:020000040000FA
:08000000F76AF86A020158D00A
:0800080004EF04F060D078D28F
:080010000001F6D3030409040A
:040018000CEF04F0F5
:04001C0012010002CB
:1000200000000008D8043C0002000102030109029C
:1000300029000101008032090400000203000000D1
:10004000092101010001221D000705810340000173
:10005000070501034000010600FF0901A101190184
:100060002940150026FF00750895408100190129D7
:10007000409100C00E03410056005200650074001C
:100080006300120350004900430031003800730040
:10009000700078000A0330003000300033001C008C
:1000A000122E002940000957001D14000474000E90
:0600B00082001294000A18
:0200B600000048
:0800B8007E6A7F6A0F0EC16E23
:1000C000949094928B908B92948482B4A1D793D87D
:1000D00099D889D817DAFDD762A406D064926094C3
:1000E00062A402D06294FCD764B2120062A001D074
:1000F00097D862A807D0608462986482A194A08493
:100100000300A09462AA09D053CFE8FFE8A004D06E
:1001100099D80F0153910201629A020E14651200E0
:1001200062A604D060A602D0FFD8629612001E0E0E
:10013000E8CF54FF400E096F700E0A6F020E0B6F6E
:10014000880E086FB00E0E6F020E0F6F400E0C6F10
:1001500002011200206F202520259E0FF66EF86AFE
:10016000000EF76E0900F5CF23F20900F5CF24F257
:100170000900F5CF20F2120016511F0B0108D8A478
:1001800012001A510008D8A412001751060811E1F4
:100190001951DF0F05E0E84E05D0E84E05D009D033
:1001A000020E03D0030E01D01DD0D4DF2881278199
:1001B00019D01651600B200801E012001751E84ECB
:1001C0000BD0E84E0FD0E84E0DD0FA0F07E0E84E06
:1001D00009D0E84E07D006D0000E01D003D0206F22
:1001E000279128811200102B01E3112B11AF8B8076
:1001F00011BF8B90120022EE00F0000EDE6AE82E96
:10020000FDD71200140E616E606A080E646E64BA47
:10021000FED7626A110E606E0201020E146F1200A8
:10022000626A7B0E606E0F015C6B160E536F0201EB
:1002300062A603D06296F3DFFBD7649803D8030E5F
:10024000146F1200000E156F26D98C0EEF6E02EEA1
:1002500004F0000EEF6E1200040E6362120002EE54
:1002600004F0EFBEFED7040E146309D01851E8CF96
:100270005CFFFF0BD8A4050ED8B4030E146F010E5B
:100280001563E0D724D802EE04F0C80EEFBC880E48
:10029000EF6E1200020E1563D5D707D802EE00F0FC
:1002A000C80EEFAC880EEF6E12000051296F2027A8
:1002B00022EEF8F022C2EAFF21C2E9FFDECFEEFF14
:1002C000292FFCD7E9CF21F2EACF22F2120002EE69
:1002D00004F0080E206101D020512A6FEF92EF90B8
:1002E000EC6E205F02EEF8F027B10FD02A511BE030
:1002F00024C2DAFF23C2D9FFDECFEEFF2A2FFCD7BC
:10030000D9CF23F2DACF24F20ED0F86A24C2F7FF55
:1003100023C2F6FF0900F5CFEEFF2A2FFBD7F6CF59
:1003200023F2F7CF24F212006350780BFCE122EEA7
:1003300016F002EEF0F0080EEECFDEFFE82EFCD74E
:1003400002EE00F0000E636287D7EF503C0B3408DA
:10035000A1E1000E156F286B206B1651600BD8B40D
:1003600004D02008D8B464D065D0175117E0E84E07
:1003700021D0E806E84E1ED0E806E84E1CD0E84E34
:100380001ED0E84E2ED0E84E2DD0E84E34D0E84EA8
:1003900042D0E84E49D0E84E4AD04CD002EEF8F0B8
:1003A000EE6AEE6AF80E236F020E246F020E206FC3
:1003B00028813DD03CD02881040E146F38D028818C
:1003C0001951E84E06D0E84E06D0E84E06D0286B0C
:1003D0002ED0000E04D0010E02D01851040FBADE48
:1003E000278125D028811E0E236F020E246F2791AE
:1003F000010E206F1CD02881070E2FEE54F0FEDE78
:1004000018511E6FFF0B04E0060E146F90DE02D031
:10041000050E146F0CD028811F0E236F020E246F5F
:100420002791010E206F03D0288118C21FF203D03C
:10043000A3DE03D02AD028A1FBD7649828A125D019
:1004400016AF11D01D5103E11C512061206F3FDF19
:10045000010E156F20D8800EED6E02EE07F010D859
:10046000C80E046F0CD0020E156F02EE05F0ED6A97
:10047000C80EED6E05D8080EED6EC80EED6E1200BA
:10048000020EED6EF80EED6E120005D8840E006FB0
:10049000046F6498120002EE03F0020EED6EF00E8F
:1004A000ED6E080EED6E120077D819D8A6881ED80A
:1004B000400EF626000EF7222D2FF8D712006CD82A
:1004C0000ED802EE74F00A00EECFF5FF0F002C2BD1
:1004D0002CB90CD82D2FF8D72C6708D8120073C26E
:1004E000F7FF7251F66E1F0B2C6F1200A68EA69CA2
:1004F000A684550EA76EAA0EA76EA6822C6B1200BC
:10050000020180DE0201E8DD0CBF17D008BF16D063
:100510001DD82F51000A06E00CBF04D02F6B02EE4D
:100520000CF002D802EE08F0400EEC6EED50EF50E9
:10053000400A400BEF6E8809EF6E12003051000A3E
:1005400004E08DD802EE0CF0EFDF12007051B06FB6
:10055000010B2F6F7051E84E12D0E84E6FD0E806B5
:10056000E84E4AD0E84E21D0E84E5FD0E84E71D038
:10057000E84E9AD7E84E7DD0E84EA1D7120002EEA1
:10058000B1F0140EEE6E010EEE6E010EEE6E010E67
:10059000EE6E71C2EEFF120071513F0B01E1400E91
:1005A0002D6F7151C00B2E6F120002EEB0F0F4DF10
:1005B0000FE02E51400A16E0F86A73C2F7FF72C2CC
:1005C000F6FF2D510900F5CFEEFFE82EFBD7120004
:1005D00073C2DAFF72C2D9FF2D51DECFEEFFE82ED3
:1005E000FCD712007251A96EA66AA680A850EE6EC2
:1005F000A92A2D2FFAD71200CFDF0BE07251A96E76
:10060000A66A7451A86EA69E72DFA6B2FED7A69403
:10061000120073C2EAFF72C2E9FF755103E0EF14E2
:100620007411746F74C2EEFF1200754F09D8FB6A23
:100630007351FA6E72510001F96E120001D8FF0079
:1006400001D864962D6BE86AE82EFED72D2FFBD7D4
:10065000120071C230F272C231F273C232F2AA0ECB
:10066000B06F010EB16F31C2E9FF32C2EAFFEF5045
:04067000B26F120053
:0408000067EF00F0AE
:020000040030CA
:0100000000FF
:0100010032CC
:010002000AF3
:010003001EDE
:010005008872
:0100060001F8
:0100080003F4
:01000900C036
:01000A0003F2
:01000B00E014
:01000C0003F0
:01000D0040B2
:00000001FF
