:020000040000FA
:08000000F76AF86A040158D008
:0800080004EF04F05ED072D297
:080010000001F6D3030409040A
:040018000CEF04F0F5
:04001C0012010002CB
:1000200000000008D8043C0002000102030109029C
:1000300029000101008032090400000203000000D1
:10004000092101010001221D000705810340000173
:10005000070501034000010600FF0901A101190184
:100060002940150026FF00750895408100190129D7
:10007000409100C00E03410056005200650074001C
:100080006300120350004900430031003800730040
:10009000700078000A0330003000300033001C008C
:1000A000122E002940000957001D14000474000E90
:0600B00082001294000A18
:0200B600000048
:0800B8000F0EC16E94909492AA
:1000C0008B908B92948482B4A3D791D897D887D8F9
:1000D00013DAFDD768A406D06D92699468A402D0A3
:1000E0006894FCD76DB2120068A001D095D868A8BA
:1000F00007D0698468986D82A19AA08A0300A09AAB
:1001000068AA07D070CFE8FFE8A002D095D8709019
:10011000689A020E1465120068A604D069A602D07F
:10012000FDD8689612001E0EE8CF71FF400E096FD1
:10013000700E0A6F040E0B6F880E086FB00E0E6FF4
:10014000040E0F6F400E0C6F04011200206F20256B
:1001500020259E0FF66EF86A000EF76E0900F5CFA7
:1001600023F40900F5CF24F40900F5CF20F41200A0
:1001700016511F0B0108D8A412001A510008D8A468
:1001800012001751060811E11951DF0F05E0E84E82
:1001900005D0E84E05D009D0020E03D0030E01D0E1
:1001A0001DD0D4DF2881278119D01651600B20087B
:1001B00001E012001751E84E0BD0E84E0FD0E84E88
:1001C0000DD0FA0F07E0E84E09D0E84E07D006D070
:1001D000000E01D003D0206F279128811200102B30
:1001E00001E3112B11AF8B8011BF8B90120024EE15
:1001F00000F0000EDE6AE82EFDD71200140E6F6EBE
:10020000696A080E6D6E6DBAFED7686A110E696E66
:100210000401020E146F1200686A7B0E696E6E6A2A
:10022000160E706E68A603D06896F5DFFBD76D9842
:1002300003D8030E146F1200000E156F26D98C0E12
:10024000EF6E04EE04F0000EEF6E1200040E6C620E
:10025000120004EE04F0EFBEFED7040E146309D0C2
:100260001851E8CF6EFFFF0BD8A4050ED8B4030ECB
:10027000146F010E1563E0D724D804EE04F0C80E05
:10028000EFBC880EEF6E1200020E1563D5D707D8AB
:1002900004EE00F0C80EEFAC880EEF6E12000051B5
:1002A000296F202724EEF8F022C4EAFF21C4E9FFD9
:1002B000DECFEEFF292FFCD7E9CF21F4EACF22F4DD
:1002C000120004EE04F0080E206101D020512A6FC4
:1002D000EF92EF90EC6E205F04EEF8F027B10FD0B4
:1002E0002A511BE024C4DAFF23C4D9FFDECFEEFF7E
:1002F0002A2FFCD7D9CF23F4DACF24F40ED0F86A12
:1003000024C4F7FF23C4F6FF0900F5CFEEFF2A2F20
:10031000FBD7F6CF23F4F7CF24F412006C50780B00
:10032000FCE124EE16F004EEF0F0080EEECFDEFF56
:10033000E82EFCD704EE00F0000E6C6287D7EF5079
:100340003C0B3408A1E1000E156F286B206B165191
:10035000600BD8B404D02008D8B464D065D017514D
:1003600017E0E84E21D0E806E84E1ED0E806E84E39
:100370001CD0E84E1ED0E84E2ED0E84E2DD0E84ED0
:1003800034D0E84E42D0E84E49D0E84E4AD04CD066
:1003900004EEF8F0EE6AEE6AF80E236F040E246F96
:1003A000020E206F28813DD03CD02881040E146FAE
:1003B00038D028811951E84E06D0E84E06D0E84ED4
:1003C00006D0286B2ED0000E04D0010E02D018519A
:1003D000040FBCDE278125D028811E0E236F040E5A
:1003E000246F2791010E206F1CD028810F0E2FEE55
:1003F00071F000DF18511E6FFF0B04E0060E146F42
:1004000092DE02D0050E146F0CD028811F0E236FD0
:10041000040E246F2791010E206F03D0288118C489
:100420001FF403D0A5DE03D02AD028A1FBD76D98F6
:1004300028A125D016AF11D01D5103E11C51206118
:10044000206F3FDF010E156F20D8800EED6E04EE99
:1004500007F010D8C80E046F0CD0020E156F04EE12
:1004600005F0ED6AC80EED6E05D8080EED6EC80EEB
:10047000ED6E1200040EED6EF80EED6E120005D852
:10048000840E006F046F6D98120004EE03F0040EEA
:10049000ED6EF00EED6E080EED6E120077D819D8E5
:1004A000A6881ED8400EF626000EF7222D2FF8D76C
:1004B00012006CD80ED804EE74F00A00EECFF5FFEF
:1004C0000F002C2B2CBB0CD82D2FF8D72C6708D85D
:1004D000120073C4F7FF7251F66E1F0B2C6F1200DF
:1004E000A68EA69CA684550EA76EAA0EA76EA682FF
:1004F0002C6B1200040182DE0401ECDD0CBF17D06E
:1005000008BF16D01DD82F51000A06E00CBF04D03A
:100510002F6B04EE0CF002D804EE08F0400EEC6EE7
:10052000ED50EF50400A400BEF6E8809EF6E12005D
:100530003051000A04E08DD804EE0CF0EFDF120019
:100540007051B06F010B2F6F7051E84E12D0E84E12
:100550006FD0E806E84E4AD0E84E21D0E84E5FD092
:10056000E84E71D0E84E9AD7E84E7DD0E84EA1D73C
:10057000120004EEB1F0250EEE6E010EEE6E010ECD
:10058000EE6E010EEE6E71C4EEFF120071513F0B64
:1005900001E1400E2D6F7151C00B2E6F120004EE61
:1005A000B0F0F4DF0FE02E51400A16E0F86A73C491
:1005B000F7FF72C4F6FF2D510900F5CFEEFFE82ECC
:1005C000FBD7120073C4DAFF72C4D9FF2D51DECFFE
:1005D000EEFFE82EFCD712007251A96EA66AA68023
:1005E000A850EE6EA92A2D2FFAD71200CFDF0BE00C
:1005F0007251A96EA66A7451A86EA69E72DFA6B249
:10060000FED7A694120073C4EAFF72C4E9FF7551C5
:1006100003E0EF147411746F74C4EEFF1200754F91
:1006200009D8FB6A7351FA6E72510001F96E12001B
:1006300001D8FF0001D86D962D6BE86AE82EFED731
:100640002D2FFBD7120071C430F472C431F473C47F
:1006500032F4AA0EB06F010EB16F31C4E9FF32C49B
:08066000EAFFEF50B26F120037
:0408000065EF00F0B0
:020000040030CA
:0100000024DB
:010001000EF0
:010002003EBF
:010003001EDE
:010005008179
:010006008178
:010008000FE8
:01000900C036
:01000A000FE6
:01000B00E014
:01000C000FE4
:01000D0040B2
:00000001FF
