:020000040800F2
:100000000050002021010008590700085B07000884
:100010005D0700085F070008610700080000000096
:10002000000000000000000000000000630700085E
:10003000650700080000000067070008690700085E
:1000400065010008650100086501000865010008F8
:1000500065010008650100086501000865010008E8
:1000600065010008650100086501000865010008D8
:1000700065010008650100086501000865010008C8
:1000800065010008650100086501000865010008B8
:100090006B0700086501000865010008650100089C
:1000A0006501000865010008650100086501000898
:1000B0006501000865010008650100086501000888
:1000C0006501000865010008650100086501000878
:1000D0006501000865010008650100086501000868
:1000E00065010008650100086501000800000000C6
:1000F0000000000000000000000000000000000000
:1001000000000000000000005FF808F141524D00BF
:10011000A300020553544D38532D44000000000045
:10012000002103E00A4B5B584350043109480A4B55
:1001300042189A42F6D3094A02E0002342F8043BEF
:10014000074B9A42F9D301F0E5FD00F022F8704721
:100150008C1E000800000020F8000020F80000209D
:1001600030030020FEE7002304E000BF00BF00BF13
:1001700000BF01338342F8DB704738B505460024E1
:1001800004E04FF4FA50FFF7EEFF0134AC42F8DB25
:1001900038BD08B500F09EFA00F078FA00F08FFA4A
:1001A00001F09CFD00F006F9FCE701384B424118D4
:1001B00003EA01007047000010B5074B074C084ADE
:1001C00008482360084B8018C01A4FF48061FFF77D
:1001D000ECFF606010BD00BF0000000800000020C0
:1001E0008C1E0008F800002000000020054B1A6853
:1001F000904201DA012070475B689842B4BF00204A
:10020000012070470000002050F8043DB3F1FF3F8B
:10021000FAD0704738B5094C6FF05C036370084B37
:1002200008485B7801256371A570E5702571A060B1
:10023000FFF7EAFF044BE0601D7038BD08010020A5
:1002400050010020000001089901002010B51A4B50
:100250005A789978012A0ED0022A19D05A680023B8
:1002600005E013F802C0154803F800C00133D8B206
:100270008842F6D31BE05A68002305E033F802C039
:100280000E4823F800C00233D8B28842F6D30EE0FD
:1002900058680022034608E0084C0432C0EB040C06
:1002A0001C68D2B24CF8034004338A42F4D3044BA6
:1002B00001221A7010BD00BF50010020080100206B
:1002C0009901002030B5184B5A789878012A0DD042
:1002D000022A1AD05A68002304E01349C918097A7F
:1002E00099540133D9B28142F7D330BD5C681A46C4
:1002F000002107E01589C3EB020C02312CF80450F1
:10030000C9B202328142F5D330BD5C681A46002181
:1003100007E09568C3EB020C04314CF80450C9B2F5
:1003200004328142F5D330BD5001002008B580472A
:1003300008BD0000024B034A1860034B1A60704767
:1003400094010020D10300089C01002009B1FFF7AF
:10035000F1BFFFF7EBBF00000A4B6FF055021A70B8
:10036000094A1278A02A02D19E3A5A7005E0012269
:100370005A70064A126812789A70054B01221A7058
:10038000704700BF080100209B01002048010020A9
:1003900099010020044B054A598811705A68044B92
:1003A0001A60FFF7D9BF00BF500100209B01002059
:1003B0004801002010B5044C236823B1034A10689B
:1003C00098470023236010BD9C0100209401002069
:1003D00010B5044600F09EF84FF41670FFF7CDFEFE
:1003E0002046BDE81040FFF7A1BF0000F8B50B4E56
:1003F0000025B77874680337BF080C360BE0204639
:10040000FFF7F4FE20B1204656F8041C00F01AFC59
:10041000043401350436BD42F1DBF8BD5001002043
:10042000034B5B880BB100F0DDBB00F0CFBB00BF1E
:100430005001002010B5064B5C682046FFF7D6FE41
:1004400020B12046BDE8104000F028BC10BD00BF20
:100450005001002010B5224B1B784BBB214B224A88
:100460001B781370013B0D2B22D8DFE803F01F210E
:10047000210A070D1C13211621212119FFF7E6FE81
:1004800016E0FFF71FFF13E0164B58685988FFF777
:100490005DFF0DE0FFF7CEFF0AE0FFF7A7FF07E0E3
:1004A000FFF7BEFF04E0FFF775FF01E0FFF7B2FEC4
:1004B0000B4C23789BB1012001F0B0FB4022014698
:1004C000094801F0B5FA012001F027FB0023237051
:1004D000064B1B781BB1BDE81040FFF73DBF10BDB8
:1004E0009901002050010020080100209B010020FC
:1004F00010B50649012001F089FAFFF7ABFF012092
:100500004FF44051BDE8104001F0EDBA5001002019
:100510007047000007B500F019FB4FF4C853ADF861
:10052000043003238DF8063005480D3301A98DF8FA
:10053000073000F0A9FC024B0022DA600EBD00BFBC
:10054000000801407FB5012106463C2000F056FC22
:1005500003244FF020031025224802A9ADF80830EB
:100560008DF80A408DF80B5000F08EFC20211D48BC
:1005700000F0D7FC4FF40073ADF804301A48142390
:1005800001A98DF806408DF8073000F07DFC4FF48E
:100590008073164803A9ADF80C308DF80E408DF825
:1005A0000F5000F071FC4FF48071104800F0B9FC5E
:1005B0000C4800F0B3FC202104460A4800F0B3FCCC
:1005C0000B4B9E1B1F2E0BDC14F0400F08D0094B69
:1005D0001868030D1B05B3F1006F01D1FFF7A6FEEC
:1005E0007FBD00BF000C0140001401400008014025
:1005F0000050002004200008014B03221A607047BD
:10060000FC000020044B9A7A044B0AB1052200E05A
:1006100001221A60704700BF08030020FC00002080
:10062000002312E04FEA107CBCF1090F94BF0CF1DB
:10063000300C0CF1370C81F800C001334FF0000C86
:1006400081F801C00001DBB202319342EAD3704766
:100650000A4A0B4B10B51B68146804321068C018A6
:100660000AD008220749FFF7DBFF0749204604228A
:10067000BDE81040FFF7D4BF10BD00BFECF7FF1F6F
:10068000E8F7FF1F0A0000201A00002007B500212C
:100690004FF0006000F086FC4FF4A06000F046FCD4
:1006A00014238DF804300022133B01A88DF8053087
:1006B0008DF806208DF8073000F042FC0EBD0020BA
:1006C00010B500F08BFB4FF400000121BDE8104095
:1006D00000F0A2BB13B500F003FB4FF4803000F034
:1006E0001FFB00F0BBFB1B4B01280446187029D1EF
:1006F000102000F05FFA022000F052FA002000F013
:100700004FFB002000F060FB4FF4806000F052FBD4
:100710004FF4404000F068FB4FF480304FF4E0119C
:1007200000F01AFB204600F023FB392000F082FB8A
:100730000028FAD0022000F021FB00F029FB082855
:10074000FBD100E0FEE701A8FFF7FCFEFFF734FD58
:100750001CBD00BFE40200207047FEE7FEE7FEE795
:10076000FEE7704770477047704700F001B800001F
:10077000384B10B51A68384B92B21A80374A1B882A
:10078000128802EA030313F4004F01D000F014FCB6
:10079000314B324A1B88128802EA030313F4806F3C
:1007A00006D02C4B4FF6FF321A602D4B5B689847F2
:1007B000294B1A88294B1B8803EA020212F4005FB6
:1007C00003D0244A4DF6FF711160234A128813406A
:1007D00013F4805F06D01F4B4EF6FF721A600020A4
:1007E00000F05CF91C4B1D4A1B88128802EA0303C7
:1007F00013F4006F0CD01B4B1B7813B100F096F96B
:1008000002E0022000F04AF9124B4FF2FF721A6028
:10081000114B1A88114B1B8803EA020212F4007F65
:1008200008D00C4A4FF6FF5111600F4A1178013180
:10083000C9B21170084A1288134013F4807F08D09F
:10084000044B4FF6FF6207201A60BDE8104000F02D
:1008500025B910BD445C0040E60200202C030020B6
:100860009C000020F4000020F8000020034B1B68CF
:100870009B7A13B1024B05221A60704728030020AF
:10088000FC000020014B04221A607047FC0000208D
:1008900070477047062808B511D1144B1B681A78A9
:1008A00002F07F02012A0AD15A7942B99B78222BA1
:1008B00001D10F4B0DE0212B15D10E4B09E00B4B55
:1008C0001B681B7803F07F03212B0CD103280AD16E
:1008D000094B064A4FF000011268002093615182D3
:1008E0009847002008BD022008BD00BF2803002053
:1008F00065090008590900083D09000801B900B15F
:1009000002207047034B00201B68DA78024B1A6004
:10091000704700BF28030020E8020020064B1B6838
:100920001B7803F07F03212B03D10B2801D1FFF7A4
:10093000E9BF0220704700BF2803002028B9044AFD
:100940004FF001011268118270470248704700BFE2
:1009500028030020E8020020014900F00BBD00BF81
:100960005C000020014900F005BD00BF64000020CC
:10097000054B1B68DB78042B01D900207047034925
:1009800001EBC30100F0F6BC280300206C0000203E
:10099000014900F0EFBC00BF8C000020014900F0CD
:1009A000E9BC00BF94000020274B284A1B68D2797D
:1009B00010B500245A729C72DC72204601F062F875
:1009C00020464FF4007101F067F82046102101F035
:1009D00070F82046402101F00FF98021204601F0F7
:1009E000F9F8204601F0BDF8194B204693F86C1039
:1009F00001F03EF9204601F0A2F801204FF4C06159
:100A000001F04AF80120C02101F0E4F801204FF480
:100A1000807101F0F1F80120402101F01BF9012063
:100A2000402101F025F901204FF4405101F05BF81D
:100A30000120202101F03DF8204600F0A9FC054BE3
:100A400001221A6010BD00BF28030020181E0008F4
:100A50005C000020FC00002010B5FFF7F9FD054BFD
:100A600000241B689C7200F083F800F0BFFF024B6B
:100A70001C6010BD28030020FC00002010B5064CAF
:100A80004FF6FB73226802EA03032360FFF7BAFD07
:100A90004FF43F43236010BD405C0040072818BF5F
:100AA000204B10B51F4C18BF18702378052B35D874
:100AB000DFE803F003070B101823FFF7DFFF06231F
:100AC00006E0FFF7DBFF042302E00223637001333B
:100AD000237010BD6378013BDBB263706378FBB9B0
:100AE000042218E0104B1A6892B242F010021A6009
:100AF00005232370DB18637010BD6378013BDBB204
:100B00006370637863B9084A4FF6EF73116801EABE
:100B1000030313600622034B1A7010BD06232370D3
:100B200010BD00BFF0020020405C0040064B1A6878
:100B300092B242F008021A601A6892B242F00402BD
:100B40001A60FFF759BD00BF405C004038B5064D44
:100B500001232B60054B00241C602046FFF7D8FCC6
:100B600003232B60204638BD405C0040445C0040BD
:100B700008B50120FFF7CCFC064B01221A60064A9B
:100B800000200649186010604FF4E0520A801A6095
:100B900008BD00BF405C0040445C00402C030020C6
:100BA000034B1A6802F0380240EA02021A607047EA
:100BB00000200240044B1A6822F010021A601A68E2
:100BC00040EA02021A60704700200240024B034ACA
:100BD0005A60034A5A60704700200240230167456B
:100BE000AB89EFCD024B1A6942F080021A6170475F
:100BF000002002400A4BDA6812F0010F01D00120F8
:100C00007047DA6812F0040F01D002207047D868EC
:100C100000F01000002814BF03200420704700BF1C
:100C20000020024010B50446FFF7E4FF02E0FFF7A2
:100C3000E1FF013C012802D1002CF8D100E004B909
:100C4000052010BD73B5002304464FF400500E4636
:100C50000193FFF7E7FF04281DD10F4D4FF400501B
:100C60002B6943F001032B61B3B22380FFF7DAFF56
:100C7000042808D102340194019B360C1E804FF4E5
:100C80000050FFF7CFFF052805D02A6941F6FE7313
:100C900002EA03032B617CBD0020024038B5054603
:100CA0004FF43020FFF7BEFF042815D10B4C4FF452
:100CB0003020236943F0020323616561236943F017
:100CC00040032361FFF7AEFF052805D0226941F6F6
:100CD000FD7302EA0303236138BD00BF0020024018
:100CE0000D4B1A6842F001021A6059680B4A01EA7A
:100CF00002025A601A6822F0847222F480321A606A
:100D00001A6822F480221A605A6822F4FE025A609D
:100D10004FF41F029A607047001002400000FFF875
:100D20000C4BB0F5803F1A6822F480321A601A68C2
:100D300022F480221A6003D0B0F5802F09D104E09C
:100D40001A6842F480321A6070471A6842F4A0228E
:100D50001A60704700100240044B5A6822F47C125B
:100D600040EA02020A435A60704700BF0010024086
:100D7000014B1860704700BF60004242034B5A6845
:100D800022F0030240EA02025A607047001002405B
:100D9000024B586800F00C00704700BF0010024082
:100DA000034B5A6822F0F00240EA02025A60704790
:100DB00000100240034B5A6822F4E06240EA02024B
:100DC0005A60704700100240034B5A6822F4605288
:100DD00042EAC0025A60704700100240014B18609E
:100DE000704700BFD8004242034B5A6822F4404289
:100DF00040EA02025A6070470010024019B1054BE8
:100E00009A69104303E0034B9A6922EA0000986153
:100E1000704700BF0010024019B1054BDA6910435A
:100E200003E0034BDA6922EA0000D861704700BF93
:100E3000001002404309012B02D1074B1B6804E05C
:100E4000022B054B0CBF1B6A5B6A00F01F0033FAD4
:100E500000F000F0010070470010024007B50023C9
:100E600001933120FFF7E6FF019B01330193019BC2
:100E7000B3F5A06F01D00028F3D03120FFF7DAFFDF
:100E8000003818BF01200EBDCB78F0B513F0100F5D
:100E900018BF8A78098803F00F0C18BF4CEA020CBF
:100EA00011F0FF0F1AD0046800220126964006EACE
:100EB0000105B5420ED196000F27B7400CFA06F691
:100EC00024EA07043443282B01D1456102E0482B72
:100ED00008BF05610132082AE7D10460FF291CD947
:100EE0004468002202F108050126AE4006EA010529
:100EF000B5420ED196000F27B7400CFA06F624EA49
:100F000007043443282B01D1456102E0482B08BF78
:100F100005610132082AE5D14460F0BD806880B2E5
:100F200070470161704741617047000040F0BE604A
:100F3000024B40F42020D860704700BF00ED00E075
:100F4000C2780378F2B1154A90F801C0D26880786F
:100F5000D24302F4E062120AC2F104010CFA01FC6D
:100F60000F21D140014041EA0C010D4A09019A18B4
:100F7000C9B282F800135909012203F01F0312FAC3
:100F800003F306E05909012203F01F0312FA03F3E9
:100F90002031034A42F82130704700BF00ED00E0E5
:100FA00000E100E021F0604121F07F01014B0143AD
:100FB0009960704700ED00E037B54FF00003ADF8E1
:100FC0000630A6E01388584903F00F030B70002B7E
:100FD0006DD1564C564D23689BB22B802988554BBA
:100FE00001F0300119802B8803F440532B802168D5
:100FF0004BF6BF7301EA030342F220014B4043F476
:10100000004343F080032360138813F0100F08D1CE
:10101000226848F60F7302EA0303236000F0C6FA61
:101020001EE023689BB2ADF80630BDF8063013F41D
:10103000006F08D0226840F68F7302EA0303236032
:1010400000F052FB0CE0BDF806301BB2002B60DA5A
:10105000226840F68F7302EA0303236000F0E2F98E
:1010600022684BF6BF7302EA03032A8812F4805FFA
:101070002F4A18BF83F48053128812F4005F2D4A60
:1010800018BF83F40053128812F0100F294A18BFBA
:1010900083F01003128812F0200F274A18BF83F044
:1010A000200343EA0202214B92B21A603BE09B000C
:1010B00003F1804303F5B8431A6892B2ADF80620F5
:1010C000BDF8062012B2002A0BDA186840F68F72BB
:1010D00000EA02021A600A78184B013A53F82230EB
:1010E0009847BDF8063013F0800F12D00E4948F62D
:1010F0000F720B789B0003F1804303F5B843186827
:1011000000EA02021A600A780D4B013A53F82230C5
:1011100098470C4B0C4A1B689BB2138013881BB278
:10112000002BFFF64FAF3EBD04030020005C0040E3
:10113000F2020020F40200208080FFFF4000002027
:1011400024000020445C0040E602002010B5074C5B
:1011500020B922684FF00101118210BD044B1B68B9
:101160001B68984720680A3010BD00BF2803002084
:101170002403002010B50A4B0A491B684978DA7825
:1011800091420AD3997841B99C8834B99A72064B36
:101190001B685B689847204610BD022010BD00BF49
:1011A00028030020CC0000202403002010B5074CA9
:1011B00020B922684FF00101118210BD044B1B6859
:1011C0009B68984720680C3010BD00BF28030020A2
:1011D0002403002038B50E4C0E4B22681B68507952
:1011E0009B69D178984723689A7A7AB170B91A794D
:1011F00062B99D7855B9084B1B68DB68984723682E
:1012000028465A79DA72DA781A7338BD022038BD66
:1012100028030020000300202403002008B5024614
:10122000254B20B91B684FF00201198241E0234A87
:101230004FF000011B681180197811F07F0114D163
:101240005B7A117813F0200F14BF41F0020121F0F6
:10125000020113F0400F194B11701A7814BF42F0BD
:10126000010222F001021A701EE0012921D0022998
:1012700001D000221DE0597901F00F039B0003F11A
:10128000804303F5B84311F0800F1B6803D003F0CF
:101290003003102B03E003F44053B3F5805F03D118
:1012A000137843F001031370054B1B681B699847C3
:1012B000024A104608BD00BF28030020F8020020A3
:1012C0002403002010B51F4B1F4C186894F800C071
:1012D000417921F08002930003F1804303F5B84384
:1012E0001B6811F0800F14BF03F0300303F4405368
:1012F000624525D244881CBB13B3837A03B39300A1
:1013000003F1804311F0800F03F5B843196806D04C
:1013100048F6BF7201EA020282F0100205E04BF6C5
:101320008F7201EA020282F4805242F4004242F0DB
:1013300080021A60054B1B689B699847002010BD0E
:10134000022010BD28030020CC0000202403002030
:1013500008B5064B1B685A7A42F020025A72044BB9
:101360001B68DB699847002008BD00BF28030020E8
:1013700024030020054B1A68538A18B98988CB1AB0
:101380001382704708681818704700BF28030020B0
:1013900030B5104B1C78002314E05FFA83FC4FEA51
:1013A0008C0202F1804202F5B84215684CF4004C00
:1013B00040F60F714CF0800C05EA01014CEA010186
:1013C00011600133A342E8D3034B40F08000186062
:1013D00030BD00BFCC0000204C5C004070470000D6
:1013E00008B50C4B002093F82C1000F041FC0A4B80
:1013F0001B68187A082807D1084B4FF480521A80CE
:10140000074B4FF010021A80092814BF002001205A
:1014100008BD00BF9C00002028030020F20200202D
:10142000F402002070B5304B1C68237A022B52D096
:10143000042B50D0032B01D0052B46D1A369228A5F
:10144000ABB1A2B1A58A954228BF15462846984758
:10145000238A06465B1B2382638A0020EB18638283
:1014600000F0EAFB2A460146304600F0F8FA238AEB
:101470005BB11E4B4FF4405200201A80014600F031
:10148000E9FB1B4B4FF030021A80238AA28A9A4252
:1014900003D8154B03221B6803E0134A1BB11368E2
:1014A00005221A720DE0126806211172114A1168A4
:1014B000114A89B28A18520013600D4B4FF0300266
:1014C0001A80094B1B681B7A06E0072B03D10B4BD4
:1014D0001B68DB6898470823034A12681372BDE84B
:1014E0007040FFF77DBF00BF28030020F2020020FC
:1014F000F4020020505C0040023000200003002075
:10150000F8B5244B1C68238A267AC3B9042E16D159
:10151000214822490278012A0CD1214A037012681D
:101520001FFA82FC1F4A6244520013604FF03002DF
:101530000A802AE04FF010030B80072625E0A58AD9
:10154000AB4294BF042602269D4228BF1D46284672
:10155000A36998470746002000F060FB2A46014631
:10156000384600F065FA2946002000F073FB238A14
:101570004FF030025B1B2382638AED18074B6582B4
:101580001A80094B4FF440521A80024B1B681E729E
:10159000F8BD00BF2803002000010020F402002055
:1015A000505C004002300020F202002010B5144BC5
:1015B0001B681A7A022A01D0042A05D1FFF7A0FF7E
:1015C0000F4B1B681B7A14E0062A11D15A78052AA2
:1015D0000AD11A7812F07F0F06D1D878FFF7D8FE1B
:1015E000084B1B681B6A9847074B1B689B6898470A
:1015F0000823034A12681372BDE81040FFF7F0BEDB
:1016000028030020240300200003002010B5324BE3
:101610001B68187810F07F0004D15A7A22F020025B
:101620005A7210BD022855D15A88002A52D11A790F
:10163000002A4FD15A7922F08000840004F18044BE
:1016400004F5B8442168254C12F0800F94F800C0CE
:1016500014BF01F0300101F4405160453AD2002935
:1016600038D09B7A002B35D0840004F1804404F5F7
:10167000B84412F0800F23680CD003F03003102B15
:1016800022D1C4B2204600F090FA2046302100F06A
:1016900010FA19E003F44053B3F5805F14D128B970
:1016A0000F4B93F82C1000F0E3FA01E000F069FA18
:1016B00022684BF68F7302EA030383F4405343F42A
:1016C000004343F080032360064B1B685B69984727
:1016D000002010BD022010BD28030020CC000020F7
:1016E0009C000020240300208C4BF7B51A688C4E18
:1016F0008C4B92B2D31835685B001F682B7A092B8C
:101700001AD0BFB207F1005707F540577F003C469B
:1017100014F8013B2B707B780A376B70B4F8030028
:1017200000F0D6FA6880B4F80700356800F0D0FA07
:10173000A88033687F88DF80794C01232268137288
:10174000D3885578002B62D1137813F07F032ED104
:10175000092D02D1FFF70EFD3BE0052D0DD192F9C9
:101760000330002B4EDB9378002B4BD19388002B5A
:1017700048D1937A002B37D044E0032D0BD1D37896
:10178000012B27D193882BBB537A13F0200F21D044
:10179000FFF7DEFD1DE0012D1CD1D378012B19D1FF
:1017A0009388BBB9537A13F0200F13D00AE0012BB2
:1017B00004D10B2D0ED1FFF70DFD0AE0022B09D14C
:1017C000012D02D1FFF722FF03E0032D02D1FFF725
:1017D00079FD48B1544B28461B685B69984703283C
:1017E00001D109230FE068B94C4B4FF030011A6862
:1017F0004E4B92B2D3185B0000221A604C4B1980FA
:10180000062300E00823464A12681372E0E0062D22
:1018100018D1137813F07F0F40F094809378012B48
:1018200003D1414B1B68DB696CE0022B03D13E4BBB
:101830001B681B6A66E0032B40F084803A4B1B68F0
:101840005B6A5FE0002D3BD1518800297AD1536853
:1018500023F47F43B3F5003F74D1137813F07F0373
:1018600003D19388002B6DD128E0012B0BD12E4B97
:1018700050791B689B699847002863D123689B7A3D
:10188000002B5FD01AE0022B5CD15379294803F07A
:101890000F018A0002F1804202F5B8421268007816
:1018A00013F0800F14BF02F0300202F44052814264
:1018B00048D213F0700F45D1002A43D01E4B22E0CE
:1018C000082D05D1137813F07F0F3BD11B4B1AE085
:1018D0000A2D37D1137803F07F03012B32D1937A8D
:1018E000002B2FD0518869BB536823F47F43B3F595
:1018F000803F27D10C4B50791B689B69984708BBE8
:101900000F4B00E0F3B1064A4FF0000112680020CF
:1019100051829361984700201FE000BF505C004057
:1019200028030020043000200003002002300020A3
:10193000F4020020CC0000201D1200084D11000808
:10194000AD110008254B264C1B6822681B69507896
:101950009847032801D1236806E0214B4FF6FF7119
:101960001B681A8A8A4201D1092203E0022800D0AA
:1019700012B908221A722BE093F90010002921DA1B
:10198000D98801910198824202D9019A1A8211E004
:101990008A420FD21149096891F82C108A4201D26B
:1019A000002105E092FBF1F001FB102212B90121A8
:1019B0000C4A1170094A126892F82C209A82FFF79B
:1019C0009FFD05E003221A72074B4FF440521A8024
:1019D00003B0BDE8F040FFF703BD00BF00030020E7
:1019E0002803002000010020F2020020044B002008
:1019F000044A18604FF43F431380034A1360704752
:101A0000445C00402C030020405C004070B500F0B6
:101A10007F0528460E4600F04BF90446284600F0A4
:101A20000BF922460146304600F019F8204670BDF9
:101A300001F10051013201F5405110B54900520841
:101A4000002309E0C41810F803C06478013A4CEA96
:101A5000042C21F813C00233002AF3D110BD01F188
:101A60000051013201F5405149005208002305E0C0
:101A700031F813C0013A20F803C00233002AF7D12D
:101A8000704700004FF6F873024A00EA0303136040
:101A9000704700BF505C0040800000F1804000F5BE
:101AA000B840026848F68F1302EA03030B43036051
:101AB0007047800000F1804000F5B840026848F6A9
:101AC000BF7302EA030311F0100F18BF83F0100375
:101AD00011F0200F18BF83F0200343F4004343F0BC
:101AE000800303607047800000F1804000F5B8403B
:101AF00002684BF68F7302EA030311F4805F18BF8C
:101B000083F4805311F4005F18BF83F4005343F44F
:101B1000004343F0800303607047800000F1804081
:101B200000F5B840026848F6BF7302EA030383F089
:101B3000300343F4004343F08003036070478000A8
:101B400000F1804000F5B84002684BF68F7302EA5E
:101B5000030383F4405343F4004343F080030360E2
:101B60007047800000F1804000F5B840026840F600
:101B70000F6302EA030343F4004343F0800303606E
:101B80007047800000F1804000F5B840036813F40E
:101B9000804F09D0026840F60F7302EA030343F452
:101BA000404343F0800303607047800000F18040B1
:101BB00000F5B840036813F0400F09D0026840F602
:101BC0000F7302EA030343F4004343F0C0030360CE
:101BD00070470000074B4FF6FE721B6801EA0202D5
:101BE0009BB203EBC00303F1005303F540535B00CA
:101BF0001A607047505C0040064B074A1B689BB256
:101C000003EBC0039A184FF6FE73520001EA030378
:101C100013607047505C004004300020054B1B6887
:101C20009BB203EBC00303F1005303F540535B0089
:101C300018887047505C0040044B054A1B689BB2F3
:101C400003EBC0039A18520010887047505C0040A4
:101C500004300020044B054A1B689BB203EBC00311
:101C60009A18520011607047505C0040023000200A
:101C70000D4B1A680D4B92B2D31803EBC0035B00F7
:101C80003E2909D94A0911F01F0F01D1013A92B238
:101C9000920242F4004205E04A0811F0010F18BF19
:101CA000013292021A607047505C004006300020FA
:101CB000054B064A1B689BB203EBC0039A185200FF
:101CC00010688005800D7047505C00400630002091
:101CD000C3B2000A40EA03207047000008B5074A73
:101CE000074B0849136002221A72074B074A136018
:101CF000074A1B681160984708BD00BF28030020F1
:101D000008030020D00000209C00002000030020D9
:101D100024030020384B82B01A6842F001021A6096
:101D20005968364A01EA02025A601A6822F084723F
:101D300022F480321A601A6822F480221A605A68EB
:101D400022F4FE025A604FF41F029A6000220192B0
:101D500000921A6842F480321A60274B1B6803F421
:101D600000330093019B01330193009B1BB9019B3E
:101D7000B3F5A06FF1D1204B1B6813F4003318BFEB
:101D800001230093009B012B34D11D4B1A6842F0B4
:101D900010021A601A6822F003021A601A6842F0F0
:101DA00002021A60144B5A685A605A685A605A689C
:101DB00042F480625A605A6822F47C125A605A686F
:101DC00042F4E8125A601A6842F080721A600A4BB4
:101DD0001A6812F0007FFAD05A6822F003025A60A3
:101DE0005A6842F002025A60034B5B6803F00C032E
:101DF000082BF9D102B07047001002400000FFF834
:101E000000200240120100020000004083045057ED
:101E1000000201020301000009022900010100C0C3
:101E20003209040000020300000009211001000132
:101E3000221D000705810340000107050103400042
:101E4000010000000600FF0901A101190129401548
:101E50000026FF0075089540810019012940910076
:101E6000C0000000040309040E03410056005200A4
:101E700065007400630000001203410052004D0031
:0C1E800033003200730070007800000096
:101E8C0000000008002000081A0330003000300069
:101E9C003100000000000000000000000000000005
:101EAC0000000000DD130008DD130008DD1300083E
:101EBC00DD130008DD130008DD130008DD13000836
:101ECC00F1040008DD130008DD130008DD13000821
:101EDC00DD130008DD130008DD1300082A1E0008BE
:101EEC0009000000441E00081D000000641E0008CC
:101EFC0004000000681E00080E000000781E000898
:101F0C0012000000080000201A000000181E000833
:101F1C0029000000041E000812000000590A0008E5
:101F2C00A909000891080008930800089508000802
:101F3C001D090008FD0800089D090008910900080A
:101F4C0071090008000000004000000002010000C0
:101F5C00DD1300086D080008DD130008DD13000810
:101F6C00DD130008DD130008DD130008DD13000885
:081F7C008508000801000000C7
:0400000508000120CE
:00000001FF
