:020000040000FA
:060000005FEF15F0120095
:0600080004EF04F01200F9
:060018000CEF04F01200E1
:060800005FEF15F012008D
:020806001200DE
:060808000EEF13F01200D8
:02080E000A00DE
:0808100048656C6C6F203A0092
:0608180015EF13F01200C1
:02081E000500D3
:10082000132B00001A02000002000000122B00002F
:100830001C02000001000000102B00001802000044
:1008400002000000062B0000000200000A00000069
:0C085000042B0000160200000200000053
:04085C00D9CFE6FF0B
:10086000E1CFD9FF00000000000000000000000000
:1008700000000000FE0EDB06F5E1E552E7CFD9FFF0
:100880001200CCEC08F011EC09F011EC09F011ECBD
:1008900009F011EC09F0FE0EDB06F5E1C8EF08F0F7
:1008A000CCEC08F0FE0EDB5018E054EC09F00B34F1
:1008B0000FE20A50C808000E0B540AE254EC09F08B
:1008C000C80E0A5E000E0B5A0A50E66EDADF04D03C
:1008D000FE0EDBCFE6FFC2DFE552C8EF08F076EC94
:1008E00009F0DF6AFC0EDB50DF5C1AE2FD0EDB5024
:1008F000010B02E08A8001D08A908A82D950FD0FD4
:10090000E96EFF0EDA20EA6E010E0F0B06E0EC52E4
:10091000D890ED32EF32E806FAE18A92DF2AE2D788
:10092000020EE15C02E2E16AE552E16EC8EF08F016
:10093000CCEC08F0E652DF6AFD0EDB04DF5C0CE273
:10094000FE0EDBA002D08A8001D08A908A82E2EC7F
:1009500008F08A92DF2AF0D7FE0EDBA002D08A8050
:1009600001D08A908A82FC0EDB5005E0FC0EDBCFC2
:10097000E6FF87DFE552FE0EE2EC08F08A92E552D0
:10098000C8EF08F0CCEC08F0FE0EDB5002E09390CC
:1009900001D09380C8EF08F0CCEC08F0FB0EDBCF61
:1009A000E6FF040EE66EFE0E2FEC09F0FC0EDBCF28
:1009B000E6FFFD0EDBCFE6FF17EC09F0E9D3ECDB39
:1009C000E66A54EC09F00E0EFAEC08F0E66AFD0E49
:1009D000DB500A6E0B6AE8506E0EFAEC08F0D8D3C2
:1009E000F80EE66EA4C0E6FF59EC09F0F70EE66ECD
:1009F000A3C0E6FF59EC09F0F60EE66EA2C0E6FFD2
:100A000059EF09F076EC09F0010EDB6A040EE66E90
:100A1000090EE66EE66A17EC09F0080EE66E000EA7
:100A2000E66EE66A17EC09F0E66AACDFE552080EFE
:100A3000DF6E8A82010EC6DB81B0DB8E8A92DF0612
:100A4000F8E1E66E9FDFE552010EDB500A6E020E02
:100A5000E15C02E2E16AE552E16E0A5099D39CDB67
:100A6000080EE126A1C0DFFF010EA5C0DBFF020ECC
:100A7000A6C0DBFFD950040F46EC09F0030EDB6A79
:100A8000DF50F36E030EA9EC09F027E2D950040FF2
:100A9000B8EC09F0EECFF3FFEDCFF4FF020EEE2637
:100AA000000EEF22F3CFE9FFF4CFEAFF060EEECF00
:100AB000DBFF070EEDCFDBFF020EDBCFE6FF040E00
:100AC000E66E010ECCDB060EDBCFE6FF070EDBCFBA
:100AD000E6FFADDB030EDB2AD3D7080EE15C02E2B2
:100AE000E16AE552E16E54D376EC09F079DF010E4C
:100AF000A1C0DBFFDF6A010EDB50DF5C0DE282DFAD
:100B0000E66EDF50EA6A600FE96E000EEA22E552F7
:100B1000E750EF6EDF2AEFD7020EE15C02E2E16AF6
:100B2000E552E16E35D338DB070EE126A1C0DFFFC9
:100B3000010EA2C0DBFFD950020FB8EC09F0A30EE2
:100B4000EE6E000EED6ED950040F5DDBDF5047E016
:100B5000A3DB01E3DB2A060EEFCFDBFFDBB68A86E1
:100B6000DBA68A96DBB48B8EDBA48B9EDBB28A80FD
:100B7000DBA28A90DBB08A82DBA08A92DBBE9386FE
:100B8000DBAE9396DBBC948EDBAC949EDBBA938099
:100B9000DBAA9390DBB89382DBA89392150E000139
:100BA000A05D16E1060EDB6A81B6DB8682BEDB84C1
:100BB00081B0DB8281B2DB80040EDBCFE9FFDB2A70
:100BC000050EDBCFEAFF01E3DB2A060EDBCFEFFFEA
:100BD000010EDBCFE6FF64DEE552DF06B7D7070E76
:100BE000E15C02E2E16AE552E16ED2D2D9CFE6FFE2
:100BF000E150FD0FE96EFF0EDA20EA6EEE50ED10C7
:100C000002E08A8601D08A96C3D2C6DA0C0EE126AB
:100C1000A10EDE6E000EDD6ED950020FF4DA85DB18
:100C200017DB01E3DB2A090EEFCFDBFFDB5005E129
:100C30000C0EE15C01E38DD08AD0090EDB503F0B36
:100C4000E76E0A0EE7CFDBFF090EDBAE2CD0040EF9
:100C5000DB6A0FDBE5E2FCDA01E3DB2A050EEFCF0E
:100C6000DBFFDBBE8A86DBAE8A96DBBC8B8EDBAC21
:100C70008B9EDBB88A82DBA88A92E66A11DEE55297
:100C8000050EDBB68A86DBA68A96DBB48B8EDBA4E8
:100C90008B9EDBB08A82DBA08A92E66A01DEE55297
:100CA000040EDB2AD6D741DB8A96040EDB6AE1DA32
:100CB00048E28A92060EDB5007E1CADA01E3DB2A3A
:100CC000070EEFCFDBFFA5DA0B0EDBCFE6FF070E3B
:100CD000DB50E552E71402E08B8E01D08B9E0A0EAA
:100CE000DB04F36E040EDB50F35C08E1090EDB500D
:100CF000400BE66EE66A7ADFE552E55281A009D044
:100D0000080EDBCFE7FF0B0EDB50E712080EE7CF34
:100D1000DBFF8A820B0EDBCFF3FFF39EF346F3CFAC
:100D2000DBFF060EDB2ADB50080808E1B5DA01E339
:100D3000DB2A080EDBCFEFFF060EDB6A040EDB2A90
:100D4000B6D7020EECDA080EDBCFEFFF69D7E16A07
:100D5000E552E16E1DD220DAE652DF6AFD0EDB506D
:100D6000DF5C0AE28A92FE0EDBB08A80DBA08A900A
:100D700029DA8A82DF2AF2D7E5520AD20DDA040E86
:100D8000C3D20ADA080EC0D2E9DA98DAFB0EDBCF5A
:100D9000EEFFFC0EDBCFEEFFFD0EDBCFEEFFFE0E17
:100DA000DBCFEEFFE66AEADFE552DFCFE6FFE9DF01
:100DB000E552010EDBCFE6FFE4DFE552020EDBCFAA
:100DC000E6FFDFDFE5528A92040EE15C02E2E16AAF
:100DD000E552E16EDDD1E66AE66AE66A9DD2FBDFA6
:100DE000EBEF06F0E66A020EE66E040EB2EF09F0D3
:100DF000B5DAA4C0DFFF010EDB6A020EDB6A030E68
:100E0000DB6A040E0E6E5ADAE8501F0BEECF0AF0C2
:100E1000EECF0BF0EECF0CF0EECF0DF007E0D89058
:100E20000A360B360C360D36E806F9E10C8A54DA30
:100E3000900EE66E010EE66E880E9ED9A2C0DFFF10
:100E4000010EA3C0DBFFFE0EDBCF0AF00B6A0C6ABB
:100E50000C8A0D6A0CBE0D6831DAEECF0EF0EECFC3
:100E60000FF0EECF10F0EFCF11F0040E1F0B02E0E9
:100E7000B0D9FEE183D9040EE15C02E2E16AE552F9
:100E8000E16E86D1A8DFAEDF060EE66EB1DFE55279
:100E9000470EE66E780EE66E200EB2EF09F09BDF8D
:100EA000A1DF1A0EE66EE66A240E66D90A0EE66E19
:100EB0003B0EE66E880E60D9070EE66E99DFE552AE
:100EC00012008DDF610EE66EE70EE66EA80EB5EF3E
:100ED00009F00CDADF6A8A92010EDB6A080EF36E03
:100EE000010E37DA09E28A82DF90DF4281B0DF8EBD
:100EF0008A92010EDB2AF2D7DF500A6E020EE15C05
:100F000002E2E16AE552E16E0A5042D1EFD9E1DF37
:100F1000DF6EDFDFE76E010EE7CFDBFF8ED902E287
:100F2000E16AE552E16E34D1E1D9010EE66E26DFC9
:100F3000E552E66A26DFE5528A929380E7DFF3CF37
:100F4000DEFFF4CFDDFF939046DF77D902E2E16A5E
:100F5000E552E16E1DD1CAD9B4DF44DFE66A3B0E2B
:100F6000E66E800E09D9200EE66E3C0EE66E880E07
:100F7000F9D9DADFF3CFDEFFF4CFDDFF010EDB506E
:100F8000800BEBE1020EE15C02E2E16AE552E16E08
:100F9000FFD002D9050EE126010EA5C0DBFF020E2F
:100FA000A1C0DBFFD950030F71D9010EDB5001E165
:100FB00076DFDF6A020EDB50DF5C30E2E66A030EAA
:100FC000E66EEB0ED9D80A6A7ED9B5D9BBD91F0B0C
:100FD00002E0FFD8FEE1D2D8010E0A6E74D9020EEB
:100FE000E0D802E0F6D8FEE1C9D8020E0A6E6BD94D
:100FF000040ED7D802E0EDD8FEE1C0D8B60EE66EFA
:101000000B0E78D9DB0E76D9EB0E74D91B0EE66E7B
:10101000BB0EABD9D950030F32D9CCD7010EDB5060
:10102000020802E198DFDEDE050EE15C02E2E16A21
:10103000E552E16EADD092D9010EA1C0DBFFD950CF
:10104000020FE1D81FDFDF6A010EDB50DF5C23E215
:10105000960EE66E0B0E53D9020E61D9F3CFEEFF5A
:101060000BC0EDFFB60EE66EDB0EE66EBA0E7DD956
:10107000D60EE66ED30E43D9020EE76EB1D8B60E89
:10108000E66E0B0E3CD9040EE76E020EA9D8D950BD
:10109000020FF5D8D9D7040EE15C02E2E16AE5520D
:1010A000E16E76D0120E0001A05D02E1D8DC23D003
:1010B000100EA05D02E194DC1ED0110EA05D02E1D5
:1010C00013DD19D0140EA05D03E0150EA05D02E142
:1010D0002ADD11D0160EA05D02E15BDF0CD0170EE9
:1010E000A05D02E1A8DF07D0180EA05D03E0190E95
:1010F000A05D01E18ADD010E0001A015066E12005F
:10110000D9CFE6FFDACFE6FFFA0EE3CFD9FFFB0E29
:10111000E3CFDAFFFC0EE3CFE9FFFD0EE3CFEAFFFA
:10112000040EDECFEEFFDECFEEFFDECFEEFFDECF32
:10113000EEFFDECFEEFFDECFEEFFDECFEEFFDECF47
:10114000EEFFDECFEEFFDECFEEFFDECFEEFFDECF37
:10115000EEFFDECFEEFFDECFEEFFDECFEEFFDECF27
:10116000EEFFE82EDED7FF0EE3CFDAFFE550FF0EED
:10117000E3CFD9FFE5501200E66ECED00E500A1232
:101180000F500B1210500C1211500D126CEF09F091
:10119000E552E7CFD9FF1200D9CFE6FFE1CFD9FF63
:1011A0001200E76EC8D8E750E926000EEA22CAD836
:1011B000040E1F0B120013DEB7DEF3CF0AF0F4CFDC
:1011C0000BF01200DBCFF3FFF390F342F3CFDBFF22
:1011D0001200D8900E360F3610361136E80612007F
:1011E0009ED8E750E926000EEA22F3CFEEFF0BC0AF
:1011F000EDFF12000B120AC0E6FF0BC0E6FFE66A25
:10120000CCEC04F0B9D0B4D8600EEE6E000EED6EEA
:101210001200080EDB6A010EF36E0B0EF3CFDBFF3C
:101220001200FA0EE66E2EEC04F0E55212006FEC9E
:1012300004F0E552E552E5521200DECF0AF0DDCFB0
:101240000BF00AC0F3FF0BC0F4FF020EE15C1200CA
:10125000DFCFE9FFDF2A010EDBCFEAFF1200DBCF91
:10126000E6FF98EC04F0E552E552E552100EE66E0A
:1012700012000A0EDB50F36E040EA9EF09F078D8C5
:10128000060EEE26000EED22DF2A120071D8A70E00
:10129000EE6E000EED6E1200020EDBCFE9FFDB2AD0
:1012A000030EDBCFEAFF1200FE0EDB500A6E0B6A64
:1012B0001200DFEC04F0E552E5521200D9CFE9FF4D
:1012C000DACFEAFF12000B6A200E0C6E0D6A1200D4
:1012D00086DDB60EE66E12000AC0E6FF0BC0E6FF22
:1012E0000CC0E6FF0DC0E6FF4FDD46D055DF020E15
:1012F000E1261200E66EBB0E3FDF68EF09F0E66EF6
:10130000BA0E3ADFDBEF08F0E66EFE0EDBCFE6FF4B
:1013100022DDE552E5523CD7E66A36DD2DD0DBCF43
:10132000E9FF030EDBCFEAFF1200060EDB6A070EB1
:10133000DB6A09EF09F0030EDBCFE9FF040EDBCF18
:10134000EAFF1200EECF0EF0EFCF0FF0106A116A35
:101350001200DBCFF4FFF350F45C12001DDF040E2B
:10136000E126120009DFEBEF06F006DFEFEF06F0F3
:10137000E96EDACFEAFF1200E552E552E552E55296
:02138000120059
:0E13820059EC0EF0020EDF6EFE0EDB50DF5C4B
:1013900002E2DF2AFAD7E5521DEF0EF0120012002A
:1013A00059EC0EF0DF6AFE0EDBBE8B8EDBAE8B9E41
:1013B0008A8281B0DF8E8A92DBBC8B8EDBAC8B9E07
:1013C0008A8281B0DF8C8A92DBBA8B8EDBAA8B9EFD
:1013D0008A8281B0DF8A8A92DBB88B8EDBA88B9EF3
:1013E0008A8281B0DF888A92DBB68B8EDBA68B9EE9
:1013F0008A8281B0DF868A92DBB48B8EDBA48B9EDF
:101400008A8281B0DF848A92DBB28B8EDBA28B9ED4
:101410008A8281B0DF828A92DBB08B8EDBA08B9ECA
:101420008A8281A002D0000EDF808A92DF50E552CE
:101430001DEF0EF0D9CFE6FFE1CFD9FFE652DF6A0C
:10144000FE0EDBBE8B8EFE0EDBAE8B9E8A82000014
:10145000000081B0DF8E8A9200000000FE0EDBBC2F
:101460008B8EFE0EDBAC8B9E8A820000000081B06A
:10147000DF8C8A9200000000FE0EDBBA8B8EFE0E1F
:10148000DBAA8B9E8A820000000081B0DF8A8A92EC
:1014900000000000FE0EDBB88B8EFE0EDBA88B9EDC
:1014A0008A820000000081B0DF888A92000000007C
:1014B000FE0EDBB68B8EFE0EDBA68B9E8A820000B4
:1014C000000081B0DF868A9200000000FE0EDBB4CF
:1014D0008B8EFE0EDBA48B9E8A820000000081B002
:1014E000DF848A9200000000FE0EDBB28B8EFE0EBF
:1014F000DBA28B9E8A820000000081B0DF828A928C
:1015000000000000FE0EDBB08B8EFE0EDBA08B9E7B
:101510008A820000000081A002D0000EDB808A9247
:1015200000000000DF5000D0E552E552E7CFD9FFC0
:1015300012007EDB020EE12602011C5105E1FE0EC7
:10154000DBCFE6FF2DDF06D01C0506E1FE0EDBCF6C
:10155000E6FF70DFE55222D08A92DF6A080EDF5C78
:101560001BE2FE0EDBBE8B8EDBAE8B9E010EDBCF55
:10157000E7FFDB50E726010E90DB81A002D0010ED1
:10158000DB808A82FE0EDBCFE7FFDB50E726FE0E14
:1015900084DB8A92DF2AE2D7010EDB500A6E020E4C
:1015A000E15C02E2E16AE552E16E0A5046D38B9CAF
:1015B0008A92949C9392949E93805BDB8B8C59DBF4
:1015C0008B9C1200948C9382948E8B9C8A928B9E1F
:1015D00012008A824EDB8A9239EF0EF029DBFE0E72
:1015E000DBCF1CF22AD365DBDF6A040EDF5C0EE280
:1015F000DF50E76EFD0EDBCFE9FFFE0EDBCFEAFF2B
:10160000E750E926000E1DDBDF2AEFD7E55215D3A0
:101610000FDBA66AFE0EDB50A96EA680A8500DD384
:1016200007DBFE0EDB50A96EFD0EDB50A86E040E2C
:10163000A66E550EA76EAA0EA76EA682A6B2FED7FC
:10164000FCD2F6DA050EE126F00EE66EE1DFE55299
:10165000040863E1030EDB6A040EDB6AF10EF36E2D
:10166000010EF3CFDBFF020EDB6A09DBD8900B50D3
:1016700004E6F50E0A5C000E0B581AE2010EDBCFF1
:10168000E6FFC6DFE552DF6E200E0A6EDF50D8801F
:101690000A5408E3DF507A0805E3030EDB2A040E40
:1016A00001E3DB2A010EDB2A020EDFE3DB2ADDD7B2
:1016B000D950030FE96EDACFEAFF040EEE182DE1E0
:1016C000ED502BE1010EDB6A020EDB6AD8DAD8900E
:1016D0000B5004E6040E0A5C000E0B581EE2CFDA33
:1016E000F10E0A24E66E94DFE552E66E010EDBCFC2
:1016F000E9FF020EDBCFEAFFD890E936EA36020EA8
:10170000E926020EEA22E552E750EE6EED6A010E7E
:10171000DB2A020EDBE3DB2AD9D7050EE15C02E20D
:10172000E16AE552E16E89D2FC0E8B169416050E25
:10173000E66E91EC13F0E552036A0001046B056B51
:101740000001F06B066A086A096A1200B2DA0350F7
:1017500014E0A00E035C0AE1C2B2FED7C350DF6EF4
:101760007EDAC450DF6E7BDAC28207D004C0E9FFA4
:1017700005C0EAFFEFCFDFFF72DAE5525ED299DAF9
:101780000850095C0FE00950EA6A000FE96E010E8B
:10179000EA22EFCFDFFF092ADF500B6AF36E0BC09E
:1017A000F4FF02D0F368F468E55247D20001250E39
:1017B000616F010E626F636F646BA1C065F0066EAE
:1017C0001200D9CFE6FFE1CFD9FF060EE126010EC8
:1017D000A1C0DBFF010EDB50C00BE76E020EE7CFAE
:1017E000DBFF010EDB503F0BE76E010EE7CFDBFFA7
:1017F000030EA2C0DBFF040EA3C0DBFF020EDBAEB4
:1018000016D0A2C0F6FFA3C0F7FFF86ADF6A010E88
:10181000DB50DF5C0BE20900DF50EA6A600FE96E23
:10182000000EEA22F5CFEFFFDF2AF1D73ED0020EFD
:10183000DBAC20D00001A251E76E050EE7CFDBFF45
:10184000DF6A010EDB50DF5C14E2050EDBCFF3FF35
:10185000DB2AF350E66EDCDEE552E66EDF50EA6A24
:10186000600FE96E000EEA22E552E750EF6EDF2AC4
:10187000E8D71BD0DF6A010EDB50DF5C16E2030EF7
:10188000DBCFE9FFDB2A040EDBCFEAFF01E3DB2A33
:10189000EF50E66EDF50EA6A600FE96E000EEA2252
:1018A000E552E750EF6EDF2AE6D7010E066E060E10
:1018B000E15C02E2E16AE552E16EE552E7CFD9FF71
:1018C0001200B6D9050EE126010EA1C0DBFF020E03
:1018D000A2C0DBFF030EA3C0DBFF010EDBAC0ED00A
:1018E0000001A251E76E040EE7CFDBFFA4C0E6FFC4
:1018F000DBCFE6FF95DEE552E55210D00001A551A1
:101900000AE0C4D9EF50A515A411E66EBFD9E5527F
:10191000E750EF6E03D0BAD9A4C0EFFF050EE15C2B
:1019200002E2E16AE552E16E88D16D6A696A1200ED
:10193000D9CFE6FFE1CFD9FF020EE126A5C0DFFF38
:10194000DF500DE0F29CF29E0A0EE66E41EC04F0D0
:10195000E552EBDF0A0EE66E41EC04F0E552FB6A5D
:10196000A3C0FAFF010EA2C0DBFF0153F96E020E05
:10197000E15C02E2E16AE552E16EE552E7CFD9FFB0
:10198000120007C060F0F0C061F03F0E0001F015DA
:10199000E66EE66AE00EE66E000EE66E620EE66E3B
:1019A000000EE66E19EC15F00A6E060EE15E0A50A6
:1019B0000001F06B010E066E12000001F06B0001D9
:1019C000700E076FA2C0E6FFA3C0E6FFA2EC12F004
:1019D000E552E5520001710E076F12006AD9A1C0ED
:1019E000DFFFDF5005E0DFCFE6FF41EC04F0E5521A
:1019F000E55223D11DD9040EE126010EDB6A000158
:101A0000AA0E606FDF6A3C0EDF5C1FE2B8DE020EDA
:101A1000F3CFDBFF030EF4CFDBFF020EDBCF0AF0C8
:101A2000030EDBCF0BF00001800E0B140EE1020E53
:101A3000DF24EA6A600FE96E000EEA22020EDBCFB5
:101A4000EFFF010EDB2ADF2ADED7010EDBCF61F0CC
:101A5000066E040EE15C02E2E16AE552E16EEDD051
:101A6000A1C003F0A2C004F0A3C005F0A00E035C67
:101A700006E19280010EC26E3C0EC06EC282FAEF89
:101A80000CF00001A2A902D09DDD05D0A2AF02D0CA
:101A9000A0DD01D08CDD0001AA0E606F010E066E84
:101AA0001200A10EE66E000EE66E9DDDE552E552D7
:101AB000010E0001A015066E1200A1C000F0A2C028
:101AC00001F0A3C002F01200A1C0E6FF87DDE552DD
:101AD0001200EFD80001A0A304D0400E006E016AEE
:101AE000026ADF6A0001A151DF5C19E20050DDD813
:101AF0000250DBD80150D9D8020EDF24EA6AA00FC9
:101B0000E96E000E9ED8880E001406E0012A0150EE
:101B100001E1022A009601D00086DF2AE3D7A0A5C2
:101B20000ED0020EA1250B6AA00F0A6E000E0B222A
:101B30000AC0E6FF0BC0E6FF56DDE552E552010E96
:101B40000001A015066EE55278D0280E0001A05DB8
:101B500002E269EF0DF02B0EA05D02E141EF0DF006
:101B60002A0EA05D02E15DEF0DF0280EA05D03E0FE
:101B7000290EA05D02E151EF0DF02C0EA05D02E1F7
:101B800064EF0DF02E0EA05D01E128DF120006507B
:101B90003BE104010851800B37E1A00EE66E000E18
:101BA000E66ECEEC11F0E552E552A0C060F0200EDA
:101BB0000001A05D02E3C9DF27D0100EA05D03E3A2
:101BC00052EC08F021D0050EA05D02E1FADD1CD038
:101BD000040EA05D02E175DE17D0060EA05D02E1E5
:101BE000A7DE12D0070EA05D02E13ADF0DD00D0E88
:101BF000A05D02E1C6DE08D00C0EA05D02E1DDDED4
:101C000003D0A00501E1D2DD065011E004010CBFB4
:101C10000ED0600EE66E000EE66EB9EC11F0E552E5
:101C2000E552066A035003E0040108BFE3DE120038
:101C3000D9CFE6FFE1CFD9FF1200E552E7CFD9FFB8
:101C40001200EA22EF5031D8E66EDF50EA6A600FE8
:101C5000E96E000EEA22E552E750EF6E12000850DE
:101C6000EA6A000FE96E010EEA22DFCFEFFF082AD1
:101C70001200640EE66EC1EC09F0E5521200010E8E
:101C8000DBCF0AF0020EDBCF0BF01200020EDBCF2F
:101C9000E9FF030EDBCFEAFF1200E7CFDBFF1CC238
:101CA000E6FFC1EC09F0E5521200E66E42DCE552B7
:081CB0001200BEDFE652120033
:081CB8007AD9E6526C5032E1CA
:101CC0006896040100513C0BE842E8420D0828E107
:101CD000180E021923E1040E031920E1100E026F01
:101CE000040E036FDF6ADF500A6E0B6A080E0A5C8F
:101CF000000E0B5813E2DF50EA6A180FE96E040E6B
:101D0000EA22EF50E66EDF50EA6A100FE96E040E29
:101D1000EA22E552E750EF6EDF2AE5D70ED80AD067
:101D20003FD808D0040E6C5C03E1689650D802D00E
:101D3000000E01D0010EE5523FD139D9E65204011F
:101D400004BF046B0201126B0A6B0B6B106B116BFF
:101D5000E8EC0FF0DF6ADF500A6E0B6A010E0A5CD6
:101D6000000E0B581AE202010B5117E1F76ADF343B
:101D7000FE0BF736F66EC60EF626280EF722090081
:101D8000F5CF0AF00800F5CF0BF004D00BC0FAFF36
:101D90000A50F96EFBDFDF2ADED7B4D8E5520CD14A
:101DA000020E02010A5D0EE181D80401180E026FD5
:101DB000040E036F080E016F00BD02D0C80E05D0DF
:101DC000880E03D0D8D8E4D88C0E006F1200040E11
:101DD0000001FB5D09E112C46EFF6E50000802E2D3
:101DE000050E01D0030EFB6F02010A0510E111D8A8
:101DF000020E0201125D03E10401840E06D004010B
:101E000004BD02D0C80E01D0880E046F1200BBEFD3
:101E10000FF0CDD8020EE1260201080E105D000E73
:101E200011590DE210C2DEFF11C2DDFF125102E1B5
:101E3000010E03D0120506E1020E126F03D0080E48
:101E4000DE6EDD6A040104930491010EDB5004137D
:101E5000DFCF05F4000EDB500201105F010EDB50F6
:101E6000115B180E0E6F040E0F6F0001FCA30CD057
:101E700097D815E00CC2F6FF0DC2F7FF0800F55029
:101E80007FD8F6E2DB06F4D78BD809E00CC2E9FF75
:101E90000DC2EAFFEF5074D8F7E2DB06F5D7020E69
:101EA000E15C02E2E16AE552E16E86D080D8020E82
:101EB000E126030E04010015E76E010EE7CFDBFFFC
:101EC00001C4DFFFDE5002011027DD501123180E80
:101ED0000C6F040E0D6F64D80EE00CC2E9FF0DC24A
:101EE000EAFFEF500EC2E9FF0FC2EAFFEF6E68D8BB
:101EF000F2E2DB06F0D7020EE15C02E2E16AE552B3
:101F0000E16E5AD06D9802010B5105E141D8840E63
:101F1000006F04011DD0040110AF1CD0020110514C
:101F20000401165D020111510401175904E216C49F
:101F300010F217C411F26DDF0201010E0A6F28D8EA
:101F4000800E006F0401180E066F040E076FC80E96
:101F5000046F12000201020E0A6F0401056BC80E25
:101F6000046F0401080E016F180E026F040E036F58
:101F7000C80E006F120002010A6B0401046B12000C
:101F80000EC2E9FF0FC2EAFFEF6E0201E0EF0FF0B1
:101F90000401080E016F100E026F040E036F120091
:101FA000D9CFE9FFDACFEAFFEE50ED101200D9CF1A
:101FB000E6FFE1CFD9FF1200E552E7CFD9FF1200CB
:101FC0000E2B000E0F230C2B0D23DF06010E12002B
:101FD00004011051600BE842E842E842E842E8425E
:101FE000000901E012001151070A40E00B0A3EE02F
:101FF000070A33E0010A23E00B0A1FE0020A1DE092
:10200000030A19E0080A10E0010A0CE00F0A08E0D0
:10201000030A01E0120018D90001040EFB6F120040
:1020200037EF10F07FEF10F00FD90201FD0E0C6FAB
:10203000000E0D6F0CD09AEF10F0CCEF10F017D906
:1020400002010C6F0D6BFE0E0C27000E0D2300011C
:10205000FC930201010E106F120009D9EA6AFE0F0B
:10206000E96E000EEA2212C4EFFF12001200800E89
:102070000401105D43E11351030A21E0010A0AE063
:10208000030A33E1E1D802013E0E0C6F280E0D6FFA
:10209000120E28D0D9D80401E3D8BA0EF626280E9D
:1020A000D7D8020E0201F76A0C25F66E0D51F72201
:1020B0000900F5CF10F20A00F5CF11F216D0C4D8FE
:1020C000030E0401125D07E19DD80CC2E9FF0DC2A9
:1020D000EAFFEF5007D096D80CC2F6FF0DC2F7FF0B
:1020E0000800F5500201106F116B030E0401125D20
:1020F00003E10001FC9312000001FC831200A4D84C
:102100000F0EE66E710EE66E0F0E97D8010EE66E9C
:10211000FE0EE66E000E91D812C4FDF004011251BD
:1021200004E10001050EFB6F12000001060EFB6FBB
:10213000A4EF11F00401186B196B040110511F0B6F
:10214000020A0FE0030A0BE0010A18E17DD804013E
:1021500018810001FCA112D0040118830FD074D89B
:102160000DD056D801E0010E5FD80EC2E9FFEA6E2D
:10217000EF50040B03E00401010E186F02010B0580
:102180000AE10201180E0C6F040E0D6F0001FC93A2
:102190000201020E106F1200040112050EE110512F
:1021A0001F0B00090AE150D8030E0401115D03E181
:1021B0000001FC8102D00001FC910401125121E1D7
:1021C00010511F0B02081DE114510F0B000919E0FB
:1021D0001FD801E0010E28D8030E0401115D02E1B1
:1021E000840E03D014AF07D0400E0EC2E9FF0FC219
:1021F000EAFFEF6E1200880E0EC2E9FF0FC2EAFF7F
:10220000EF6E12002DD8BE0EF626280E28EF11F024
:102210002ED80F0B080DF3500B6A000F0A6E040E38
:102220000B221451800B1200040DF35002010A24FA
:102230000E6F000E0B200F6F1200E66E82EC12F094
:10224000E552E552E55212000201010E0B6F120039
:10225000F7220900F5CF0CF20A00F5CF0DF21200BB
:102260001251F66EF76AD890F636F7361200ECDFA8
:06227000040114511200EC
:0A227600040110511F0B010801E0E4
:102280001200145101E01200060E115D24E11351F9
:10229000230A1FE0010A0DE0030A1BE19AD800019E
:1022A000FD0505E10201620E0C6F280E0D6F090E8F
:1022B0000DD08FD80001FD0505E102019D0E0C6FC8
:1022C000280E0D6F0001FD0504E11D0E0201106FC7
:1022D000116B0001FC8304011051600BE842E842DD
:1022E000E842E842E842010801E0120011510B0AFD
:1022F00025E0080A17E0090A11E0080A09E00B0ABC
:1023000005E0080A01E01200A2EF11F0A3EF11F0BE
:1023100060D80201130E0C6F020E09D05AD813C4F4
:1023200013F2120056D80201140E0C6F020E0D6F3C
:102330000001FC930201010E106F12004AD812C472
:1023400014F21200120012000201156B1E0E716EC3
:102350000401400E096F200E0A6F040E0B6F880EE9
:10236000086F0401600E0E6F040E0F6F400E0C6FAD
:102370001200D9CFE6FFE1CFD9FF2FD8600EE66E6D
:10238000040EE66E31D80401400E0D6F0C170C7D63
:10239000880E0C13E552E7CFD9FF1200D9CFE6FF24
:1023A000E1CFD9FF0201156B040108BF0DD0200E4B
:1023B000E66E040EE66E11D817D80401400E096FC0
:1023C0000817087D880E0813400EE552E7CFD9FFA5
:1023D00012000201020E0B6F1200FD0EDBCFE6FFB2
:1023E000FE0EDBCFE6FF120080EC08F0E552E5526E
:0623F000E552E552120067
:0A23F6006DA60CD80001FB0508E1FC
:102400006DBA06D0686A696A69806988020EFB6FD6
:1024100012006D6A696A6D860001010EFB6F120081
:102420000001FB5101E1120068B425D86DB2120021
:1024300068B038D868B817D868BA24D8030E000135
:10244000FB5D01E212000001FF6B040EFF5D0AE27A
:1024500068A608D05CEC0EF0000901E16896000166
:10246000FF2BF3D71200698468986D82A19AA08A25
:102470000300A09A12006D92699468A402D0689437
:10248000FCD7120070A00CD0800E0401005D07E1A3
:10249000840E0401045D03E104018C0E006F709052
:1024A000689A12006A6A686A9F0E6B6E7B0E696E8C
:1024B0006E6A0F0EE66E710EE66E0F0EE66E22D895
:1024C000E552E552E552160E706E68A605D0689684
:1024D00000D000D00000F9D76D98BBEC0FF00401DC
:1024E000080E016F0401100E026F040E036F040149
:1024F0008C0E006F0001FC910001FD6B0001030ECA
:10250000FB6F1200D9CFE6FFE1CFD9FFFD0EDBCF85
:10251000E9FFFE0EDBCFEAFFFC0EDB5004E0EE6AC3
:0E252000FC0EDB06F9D7E552E7CFD9FF12001B
:02252E000201A8
:10253000162B000E17231751080B02E08B80120098
:102540008B901200D9CFE6FFE1CFD9FF040EE12630
:10255000020EDB6A030EDB6A020EDBCF0AF0030E0B
:10256000DBCF0BF0080E0A5C000E0B582EE251D8A0
:10257000100E0A6E080E3FD8DE6ADD6ADECF0AF062
:10258000DDCF0BF0320E0A5C000E0B5813E241D87F
:10259000DECF0AF0DDCF0BF0200E0A24E66EA8ECA9
:1025A00014F0E552E552E552C2DFDF2A010EE6E300
:1025B000DB2AE4D72ED80E0E0A6E080E1CD8020EA7
:1025C000DB2A030EC9E3DB2AC7D7D950FD0FE96E1A
:1025D000FF0EDA20EA6EEE50ED1002E08B7001D0B3
:1025E0008B72040EE15C02E2E16AE552E16EE552B3
:1025F000E7CFD9FF12000B6E0C6A0AC0E6FFE66E49
:102600000CC0E6FF64EC14F00D6E050EE15E0D509B
:0C261000120018C2E6FF19C2E6FF12001B
:04261C00DACFE4FF2E
:10262000E652E552E5CFDAFF1100D8CFE4FFE0CF64
:10263000E4FFE46EDACFE4FFE2CFDAFFE9CFE4FFB4
:10264000EACFE4FF00EE0AF0080EE80403E3EECF61
:10265000E4FFFBD7E65215D8E55200EE11F0080E64
:10266000E80403E3E5CFEDFFFBD7E5CFEAFFE5CFD5
:10267000E9FFE5CFDAFFE550E5CFE0FFE5CFD8FF92
:1026800010009EA203D0A6EC0BF09E921200020155
:102690001A2B000E1B231B51800B02E08B821200B1
:1026A0008B92120021EC0BF00F0EC16E93689468B0
:1026B000140E6F6E0001FB6B0001FC6B0001FD6BE3
:1026C00094EC0BF0040EE66EF20EE66E80EC13F066
:1026D000E552E552D08EF28CF28E9F921200FBEC06
:1026E00011F010EC12F0060E0001FB5D05E16D50DB
:1026F000020B02E1C7EC0DF01200D4DFF0DFFED7D1
:10270000D9CFE6FFE1CFD9FFFE0EDBCFE6FF44ECE9
:1027100015F0E552FD0EDB50CB6EE552E7CFD9FF49
:102720001200D9CFE6FFE1CFD9FFFE0EDB5002E168
:10273000010E0AD0FE0EDB0402E1030E05D0FE0EF0
:10274000DB50020804E1070EE66EE66A22D0FE0EB8
:10275000DB50030802E1030E05D0FE0EDB50040837
:1027600004E1070EE66E010E13D0FE0EDB500508E5
:1027700003E1030EE66E0BD0060EF36EFE0EDBCF0A
:10278000F4FFF350F45C08E3FE0EDBCFE6FF020E2D
:10279000E66EB6DFE552E552E552E7CFD9FF12000B
:1027A0001E0EF66E080EF76E000EF86E00010900A0
:1027B000F550F66F0900F550F76F03E1F66701D0A9
:1027C0003DD00900F550F16F0900F550F26F090096
:1027D000F550F36F09000900F550E96E0900F55056
:1027E000EA6E090009000900F550F46F0900F55080
:1027F000F56F09000900F6CFF8F0F7CFF9F0F8CF40
:10280000FAF0F1C0F6FFF2C0F7FFF3C0F8FF0001E5
:10281000F45302E1F55307E00900F550EE6EF407BA
:10282000F8E2F507F9D7F8C0F6FFF9C0F7FFFAC0EC
:0E283000F8FF0001F607000EF75BBFD712009D
:02283E00120185
:10284000000200000008D8043C000200010203015D
:1028500009022900010100C032090400000203003E
:102860000000092111010001221D0007058103401C
:10287000000107050103400001040309040E0341A0
:1028800000560052006500740063001203500049B6
:10289000004300310038007300700078000600FF2C
:1028A0000901A10119012940150026FF00750895AD
:1028B000408100190129409100C0502850287928F2
:0828C0007D288B28000276221E
:0828C800D9CFE6FFDACFE6FFED
:1028D000E1CFD9FFE2CFDAFFE652FB0EDBCFF6FF06
:1028E000FC0EDBCFF7FFFD0EDBCFF8FF0800F55045
:1028F000DF6EDF5024E0F90EDBCFE6FFFA0EDBCF10
:10290000E6FFDFCFE6FFA8EC14F0E552E552E55212
:10291000F3CF0AF0F4CF0BF00001F31C05E10B1C20
:1029200003E1F368F4680DD0D950FB0FE96EFF0E98
:10293000DA20EA6EEE2A000EEE22EE22CED7F36AFD
:10294000F46AE552E552E5CFDAFFE7CFD9FF12008E
:10295000D9CFE6FFDACFE6FFE1CFD9FFE2CFDAFF4A
:10296000FB0EDBCF0AF0FC0EDBCF0BF00001800E7C
:102970000B141AE1FB0EDBCFE9FFFC0EDBCFEAFF05
:10298000EECFF3FFEDCFF4FFEE2A000EEF22F3CFF0
:10299000E9FFF4CFEAFFFD0EDBCFEFFFEF500B6A4C
:1029A000F36E0BC0F4FF10D0FB0EDB50FE0806E107
:1029B000FD0EDBCFE6FF6DEC15F005D0FD0EDBCF95
:1029C000E6FFEAEC14F0E552E552E5CFDAFFE7CF97
:0429D000D9FF120019
:0C29D400D9CFE6FFE1CFD9FFE652DF6A61
:1029E000FE0EDB500A0802E1010EDF6E100E000140
:1029F000F05D02E3010EDF6EDF5006E00001F051F2
:102A000003E06FEC13F0FAD7100EF05D0AE2F0511C
:102A1000F02BEA6AE00FE96E000EEA22FE0EDBCF31
:102A2000EFFF010EF36EF46AE552E552E7CFD9FFEE
:022A3000120092
:0E2A3200D9CFE6FFDACFE6FFFA0EE3CFD9FFE9
:102A4000FB0EE3CFDAFFFC0EE3CFE9FFFD0EE3CF91
:102A5000EAFFE9CFF3FFEACFF4FFF80EE35003E11A
:102A6000F90EE35008E0F80EE30602E2F90EE30681
:102A7000DECFEEFFF2D7FF0EE3CFDAFFE552FF0E17
:082A8000E3CFD9FFE55212007B
:082A8800D9CFE6FFDACFE6FF2B
:102A9000E1CFD9FFE2CFDAFFFD0EDB50FB0BCA6EB0
:102AA000CC6A9E92FD0EDBAE02D09D8201D09D923B
:0E2AB000CA84E552E5CFDAFFE7CFD9FF120066
:022ABE0013EE15
:102AC00000F023EE00F0F86A139CD0EC13F003EC56
:0A2AD00004F07DEC13F0FBD71200B8
:062ADA00FF0EE350ACBA50
:102AE00004D0AF6AAB8EAC8A949CACA2FED7AD6E1C
:062AF000F36EF46A12000F
:0A2AF60000EE00F00F0EEE6AEA6237
:042B0000FDD71200EB
:022B04000000CF
:0A2B06000A033000300030003100F7
:022B1000FFFFC5
:012B120005BD
:022B13000000C0
:020000040030CA
:0100000024DB
:010001000EF0
:010002003FBE
:010003001EDE
:010005008179
:010006008178
:010008000FE8
:01000900C036
:01000A000FE6
:01000B00E014
:01000C000FE4
:01000D0040B2
:00000001FF
