:020000040000FA
:060000006BEF15F0120089
:0600080004EF04F01200F9
:060018000CEF04F01200E1
:060800006BEF15F0120081
:020806001200DE
:0608080018EF13F01200CE
:02080E000A00DE
:0808100048656C6C6F203A0092
:060818001FEF13F01200B7
:02081E000500D3
:100820002B2B00006A020000020000002A2B0000AF
:100830006C02000001000000282B0000680200008C
:10084000020000001E2B0000500200000A00000001
:0C0850001C2B00006602000002000000EB
:04085C00D9CFE6FF0B
:10086000E1CFD9FF00000000000000000000000000
:1008700000000000FE0EDB06F5E1E552E7CFD9FFF0
:100880001200CCEC08F011EC09F011EC09F011ECBD
:1008900009F011EC09F0FE0EDB06F5E1C8EF08F0F7
:1008A000CCEC08F0FE0EDB5018E054EC09F04B34B1
:1008B0000FE24A50C808000E4B540AE254EC09F00B
:1008C000C80E4A5E000E4B5A4A50E66EDADF04D07C
:1008D000FE0EDBCFE6FFC2DFE552C8EF08F076EC94
:1008E00009F0DF6AFC0EDB50DF5C1AE2FD0EDB5024
:1008F000010B02E08B8E01D08B9E8A88D950FD0FB0
:10090000E96EFF0EDA20EA6E010E0F0B06E0EC52E4
:10091000D890ED32EF32E806FAE18A98DF2AE2D782
:10092000020EE15C02E2E16AE552E16EC8EF08F016
:10093000CCEC08F0E652DF6AFD0EDB04DF5C0CE273
:10094000FE0EDBA002D08B8E01D08B9E8A88E2EC5B
:1009500008F08A98DF2AF0D7FE0EDBA002D08B8E3B
:1009600001D08B9E8A88FC0EDB5005E0FC0EDBCFAD
:10097000E6FF87DFE552FE0EE2EC08F08A98E552CA
:10098000C8EF08F0CCEC08F0FE0EDB5002E0949EBD
:1009900001D0948EC8EF08F0CCEC08F0FB0EDBCF52
:1009A000E6FF040EE66EFE0E2FEC09F0FC0EDBCF28
:1009B000E6FFFD0EDBCFE6FF17EC09F0E9D3ECDB39
:1009C000E66A54EC09F00E0EFAEC08F0E66AFD0E49
:1009D000DB504A6E4B6AE8506E0EFAEC08F0D8D342
:1009E000F80EE66E14C2E6FF59EC09F0F70EE66E5B
:1009F00013C2E6FF59EC09F0F60EE66E12C2E6FFEE
:100A000059EF09F076EC09F0010EDB6A040EE66E90
:100A1000090EE66EE66A17EC09F0080EE66E000EA7
:100A2000E66EE66A17EC09F0E66AACDFE552080EFE
:100A3000DF6E8A88010EC6DB82BEDB8E8A98DF06F7
:100A4000F8E1E66E9FDFE552010EDB504A6E020EC2
:100A5000E15C02E2E16AE552E16E4A5099D39CDB27
:100A6000080EE12611C2DFFF010E15C2DBFF020EE8
:100A700016C2DBFFD950040F46EC09F0030EDB6A07
:100A8000DF50F36E030EA9EC09F027E2D950040FF2
:100A9000B8EC09F0EECFF3FFEDCFF4FF020EEE2637
:100AA000000EEF22F3CFE9FFF4CFEAFF060EEECF00
:100AB000DBFF070EEDCFDBFF020EDBCFE6FF040E00
:100AC000E66E010ECCDB060EDBCFE6FF070EDBCFBA
:100AD000E6FFADDB030EDB2AD3D7080EE15C02E2B2
:100AE000E16AE552E16E54D376EC09F079DF010E4C
:100AF00011C2DBFFDF6A010EDB50DF5C0DE282DF3B
:100B0000E66EDF50EA6A0A0FE96E000EEA22E5524D
:100B1000E750EF6EDF2AEFD7020EE15C02E2E16AF6
:100B2000E552E16E35D338DB070EE12611C2DFFF57
:100B3000010E12C2DBFFD950020FB8EC09F0130E00
:100B4000EE6E020EED6ED950040F5DDBDF5047E014
:100B5000A3DB01E3DB2A060EEFCFDBFFDBB68B8CDA
:100B6000DBA68B9CDBB48A8CDBA48A9CDBB28B8EED
:100B7000DBA28B9EDBB08A88DBA08A98DBBE948CDC
:100B8000DBAE949CDBBC938CDBAC939CDBBA948E89
:100B9000DBAA949EDBB89388DBA89398150E02011C
:100BA000105D16E1060EDB6A82BCDB8681BCDB844D
:100BB00082BEDB8281B8DB80040EDBCFE9FFDB2A5B
:100BC000050EDBCFEAFF01E3DB2A060EDBCFEFFFEA
:100BD000010EDBCFE6FF64DEE552DF06B7D7070E76
:100BE000E15C02E2E16AE552E16ED2D2D9CFE6FFE2
:100BF000E150FD0FE96EFF0EDA20EA6EEE50ED10C7
:100C000002E08B8C01D08B9CC3D2C6DA0C0EE1269D
:100C1000110EDE6E020EDD6ED950020FF4DA85DBA6
:100C200017DB01E3DB2A090EEFCFDBFFDB5005E129
:100C30000C0EE15C01E38DD08AD0090EDB503F0B36
:100C4000E76E0A0EE7CFDBFF090EDBAE2CD0040EF9
:100C5000DB6A0FDBE5E2FCDA01E3DB2A050EEFCF0E
:100C6000DBFFDBBE8B8CDBAE8B9CDBBC8A8CDBAC16
:100C70008A9CDBB88A88DBA88A98E66A11DEE5528E
:100C8000050EDBB68B8CDBA68B9CDBB48A8CDBA4DD
:100C90008A9CDBB08A88DBA08A98E66A01DEE5528E
:100CA000040EDB2AD6D741DB8B9C040EDB6AE1DA2B
:100CB00048E28A98060EDB5007E1CADA01E3DB2A34
:100CC000070EEFCFDBFFA5DA0B0EDBCFE6FF070E3B
:100CD000DB50E552E71402E08A8C01D08A9C0A0EB0
:100CE000DB04F36E040EDB50F35C08E1090EDB500D
:100CF000400BE66EE66A7ADFE552E55282AE09D035
:100D0000080EDBCFE7FF0B0EDB50E712080EE7CF34
:100D1000DBFF8A880B0EDBCFF3FFF39EF346F3CFA6
:100D2000DBFF060EDB2ADB50080808E1B5DA01E339
:100D3000DB2A080EDBCFEFFF060EDB6A040EDB2A90
:100D4000B6D7020EECDA080EDBCFEFFF69D7E16A07
:100D5000E552E16E1DD220DAE652DF6AFD0EDB506D
:100D6000DF5C0AE28A98FE0EDBB08B8EDBA08B9EE6
:100D700029DA8A88DF2AF2D7E5520AD20DDA040E80
:100D8000C3D20ADA080EC0D2E9DA98DAFB0EDBCF5A
:100D9000EEFFFC0EDBCFEEFFFD0EDBCFEEFFFE0E17
:100DA000DBCFEEFFE66AEADFE552DFCFE6FFE9DF01
:100DB000E552010EDBCFE6FFE4DFE552020EDBCFAA
:100DC000E6FFDFDFE5528A98040EE15C02E2E16AA9
:100DD000E552E16EDDD1E66AE66AE66A9DD2FBDFA6
:100DE000EBEF06F0E66A020EE66E040EB2EF09F0D3
:100DF000B5DA14C2DFFF010EDB6A020EDB6A030EF6
:100E0000DB6A040E4E6E5ADAE8501F0BEECF4AF042
:100E1000EECF4BF0EECF4CF0EECF4DF007E0D89098
:100E20004A364B364C364D36E806F9E14C8A54DAF0
:100E3000900EE66E010EE66E880E9ED912C2DFFF9E
:100E4000010E13C2DBFFFE0EDBCF4AF04B6A4C6A89
:100E50004C8A4D6A4CBE4D6831DAEECF4EF0EECF83
:100E60004FF0EECF50F0EFCF51F0040E1F0B02E029
:100E7000B0D9FEE183D9040EE15C02E2E16AE552F9
:100E8000E16E86D1A8DFAEDF060EE66EB1DFE55279
:100E9000470EE66E780EE66E200EB2EF09F09BDF8D
:100EA000A1DF1A0EE66EE66A240E66D90A0EE66E19
:100EB0003B0EE66E880E60D9070EE66E99DFE552AE
:100EC00012008DDF610EE66EE70EE66EA80EB5EF3E
:100ED00009F00CDADF6A8A98010EDB6A080EF36EFD
:100EE000010E37DA09E28A88DF90DF4282BEDF8EA8
:100EF0008A98010EDB2AF2D7DF504A6E020EE15CBF
:100F000002E2E16AE552E16E4A5042D1EFD9E1DFF7
:100F1000DF6EDFDFE76E010EE7CFDBFF8ED902E287
:100F2000E16AE552E16E34D1E1D9010EE66E26DFC9
:100F3000E552E66A26DFE5528A98948EE7DFF3CF22
:100F4000DEFFF4CFDDFF949E46DF77D902E2E16A4F
:100F5000E552E16E1DD1CAD9B4DF44DFE66A3B0E2B
:100F6000E66E800E09D9200EE66E3C0EE66E880E07
:100F7000F9D9DADFF3CFDEFFF4CFDDFF010EDB506E
:100F8000800BEBE1020EE15C02E2E16AE552E16E08
:100F9000FFD002D9050EE126010E15C2DBFF020EBD
:100FA00011C2DBFFD950030F71D9010EDB5001E1F3
:100FB00076DFDF6A020EDB50DF5C30E2E66A030EAA
:100FC000E66EEB0ED9D84A6A7ED9B5D9BBD91F0BCC
:100FD00002E0FFD8FEE1D2D8010E4A6E74D9020EAB
:100FE000E0D802E0F6D8FEE1C9D8020E4A6E6BD90D
:100FF000040ED7D802E0EDD8FEE1C0D8B60EE66EFA
:101000000B0E78D9DB0E76D9EB0E74D91B0EE66E7B
:10101000BB0EABD9D950030F32D9CCD7010EDB5060
:10102000020802E198DFDEDE050EE15C02E2E16A21
:10103000E552E16EADD092D9010E11C2DBFFD9505D
:10104000020FE1D81FDFDF6A010EDB50DF5C23E215
:10105000960EE66E0B0E53D9020E61D9F3CFEEFF5A
:101060004BC0EDFFB60EE66EDB0EE66EBA0E7DD916
:10107000D60EE66ED30E43D9020EE76EB1D8B60E89
:10108000E66E0B0E3CD9040EE76E020EA9D8D950BD
:10109000020FF5D8D9D7040EE15C02E2E16AE5520D
:1010A000E16E76D0120E0201105D02E1D8DC23D091
:1010B000100E105D02E194DC1ED0110E105D02E1F5
:1010C00013DD19D0140E105D03E0150E105D02E162
:1010D0002ADD11D0160E105D02E15BDF0CD0170E79
:1010E000105D02E1A8DF07D0180E105D03E0190EB5
:1010F000105D01E18ADD010E02011015066E12007D
:10110000D9CFE6FFDACFE6FFFA0EE3CFD9FFFB0E29
:10111000E3CFDAFFFC0EE3CFE9FFFD0EE3CFEAFFFA
:10112000040EDECFEEFFDECFEEFFDECFEEFFDECF32
:10113000EEFFDECFEEFFDECFEEFFDECFEEFFDECF47
:10114000EEFFDECFEEFFDECFEEFFDECFEEFFDECF37
:10115000EEFFDECFEEFFDECFEEFFDECFEEFFDECF27
:10116000EEFFE82EDED7FF0EE3CFDAFFE550FF0EED
:10117000E3CFD9FFE5501200E66ECED04E504A12B2
:101180004F504B1250504C1251504D126CEF09F011
:10119000E552E7CFD9FF1200D9CFE6FFE1CFD9FF63
:1011A0001200E76EC8D8E750E926000EEA22CAD836
:1011B000040E1F0B120013DEB7DEF3CF4AF0F4CF9C
:1011C0004BF01200DBCFF3FFF390F342F3CFDBFFE2
:1011D0001200D8904E364F3650365136E80612007F
:1011E0009ED8E750E926000EEA22F3CFEEFF4BC06F
:1011F000EDFF12004B124AC0E6FF4BC0E6FFE66A65
:10120000CCEC04F0B9D0B4D80A0EEE6E000EED6E40
:101210001200080EDB6A010EF36E0B0EF3CFDBFF3C
:101220001200FA0EE66E2EEC04F0E55212006FEC9E
:1012300004F0E552E552E5521200DECF4AF0DDCF70
:101240004BF04AC0F3FF4BC0F4FF020EE15C12000A
:10125000DFCFE9FFDF2A010EDBCFEAFF1200DBCF91
:10126000E6FF98EC04F0E552E552E552100EE66E0A
:1012700012000A0EDB50F36E040EA9EF09F078D8C5
:10128000060EEE26000EED22DF2A120071D8170E90
:10129000EE6E020EED6E1200020EDBCFE9FFDB2ACE
:1012A000030EDBCFEAFF1200FE0EDB504A6E4B6AE4
:1012B0001200DFEC04F0E552E5521200D9CFE9FF4D
:1012C000DACFEAFF12004B6A200E4C6E4D6A120014
:1012D00086DDB60EE66E12004AC0E6FF4BC0E6FFA2
:1012E0004CC0E6FF4DC0E6FF4FDD46D055DF020E95
:1012F000E1261200E66EBB0E3FDF68EF09F0E66EF6
:10130000BA0E3ADFDBEF08F0E66EFE0EDBCFE6FF4B
:1013100022DDE552E5523CD7E66A36DD2DD0DBCF43
:10132000E9FF030EDBCFEAFF1200060EDB6A070EB1
:10133000DB6A09EF09F0030EDBCFE9FF040EDBCF18
:10134000EAFF1200EECF4EF0EFCF4FF0506A516A35
:101350001200DBCFF4FFF350F45C12001DDF040E2B
:10136000E126120009DFEBEF06F006DFEFEF06F0F3
:10137000E96EDACFEAFF1200E552E552E552E55296
:02138000120059
:0E13820059EC0EF0020EDF6EFE0EDB50DF5C4B
:1013900002E2DF2AFAD7E5521DEF0EF0120012002A
:1013A00059EC0EF0DF6AFE0EDBBE8B8EDBAE8B9E41
:1013B0008A8C81B8DF8E8A9CDBBC8B8EDBAC8B9EEB
:1013C0008A8C81B8DF8C8A9CDBBA8B8EDBAA8B9EE1
:1013D0008A8C81B8DF8A8A9CDBB88B8EDBA88B9ED7
:1013E0008A8C81B8DF888A9CDBB68B8EDBA68B9ECD
:1013F0008A8C81B8DF868A9CDBB48B8EDBA48B9EC3
:101400008A8C81B8DF848A9CDBB28B8EDBA28B9EB8
:101410008A8C81B8DF828A9CDBB08B8EDBA08B9EAE
:101420008A8C81A802D0000EDF808A9CDF50E552B2
:101430001DEF0EF0D9CFE6FFE1CFD9FFE652DF6A0C
:10144000FE0EDBBE8B8EFE0EDBAE8B9E8A8C00000A
:10145000000081B8DF8E8A9C00000000FE0EDBBC1D
:101460008B8EFE0EDBAC8B9E8A8C0000000081B858
:10147000DF8C8A9C00000000FE0EDBBA8B8EFE0E15
:10148000DBAA8B9E8A8C0000000081B8DF8A8A9CD0
:1014900000000000FE0EDBB88B8EFE0EDBA88B9EDC
:1014A0008A8C0000000081B8DF888A9C0000000060
:1014B000FE0EDBB68B8EFE0EDBA68B9E8A8C0000AA
:1014C000000081B8DF868A9C00000000FE0EDBB4BD
:1014D0008B8EFE0EDBA48B9E8A8C0000000081B8F0
:1014E000DF848A9C00000000FE0EDBB28B8EFE0EB5
:1014F000DBA28B9E8A8C0000000081B8DF828A9C70
:1015000000000000FE0EDBB08B8EFE0EDBA08B9E7B
:101510008A8C0000000081A802D0000EDB808A9C2B
:1015200000000000DF5000D0E552E552E7CFD9FFC0
:1015300012007EDB020EE12602016C5105E1FE0E77
:10154000DBCFE6FF2DDF06D06C0506E1FE0EDBCF1C
:10155000E6FF70DFE55222D08A9CDF6A080EDF5C6E
:101560001BE2FE0EDBBE8B8EDBAE8B9E010EDBCF55
:10157000E7FFDB50E726010E90DB81A802D0010EC9
:10158000DB808A8CFE0EDBCFE7FFDB50E726FE0E0A
:1015900084DB8A9CDF2AE2D7010EDB504A6E020E02
:1015A000E15C02E2E16AE552E16E4A5046D38B9C6F
:1015B0008A9C949C939C949E93885BDB8B8C59DBD8
:1015C0008B9C1200948C938C948E8B9C8A9C8B9E0B
:1015D00012008A8C4EDB8A9C39EF0EF029DBFE0E5E
:1015E000DBCF6CF22AD365DBDF6A040EDF5C0EE230
:1015F000DF50E76EFD0EDBCFE9FFFE0EDBCFEAFF2B
:10160000E750E926000E1DDBDF2AEFD7E55215D3A0
:101610000FDBA66AFE0EDB50A96EA680A8500DD384
:1016200007DBFE0EDB50A96EFD0EDB50A86E040E2C
:10163000A66E550EA76EAA0EA76EA682A6B2FED7FC
:10164000FCD2F6DA050EE126F00EE66EE1DFE55299
:10165000040863E1030EDB6A040EDB6AF10EF36E2D
:10166000010EF3CFDBFF020EDB6A09DBD8904B5093
:1016700004E6F50E4A5C000E4B581AE2010EDBCF71
:10168000E6FFC6DFE552DF6E200E4A6EDF50D880DF
:101690004A5408E3DF507A0805E3030EDB2A040E00
:1016A00001E3DB2A010EDB2A020EDFE3DB2ADDD7B2
:1016B000D950030FE96EDACFEAFF040EEE182DE1E0
:1016C000ED502BE1010EDB6A020EDB6AD8DAD8900E
:1016D0004B5004E6040E4A5C000E4B581EE2CFDA73
:1016E000F10E4A24E66E94DFE552E66E010EDBCF82
:1016F000E9FF020EDBCFEAFFD890E936EA36520E58
:10170000E926020EEA22E552E750EE6EED6A010E7E
:10171000DB2A020EDBE3DB2AD9D7050EE15C02E20D
:10172000E16AE552E16E89D2F00E8B169416050E31
:10173000E66E9DEC13F0E552036A0001046B056B45
:101740000001706B066A086A096A1200B2DA035077
:1017500014E0A00E035C0AE1C2B2FED7C350DF6EF4
:101760007EDAC450DF6E7BDAC28207D004C0E9FFA4
:1017700005C0EAFFEFCFDFFF72DAE5525ED299DAF9
:101780000850095C0FE00950EA6A000FE96E010E8B
:10179000EA22EFCFDFFF092ADF504B6AF36E4BC01E
:1017A000F4FF02D0F368F468E55247D2140E0B6ED2
:1017B000010E0C6E0D6E0E6A11C20FF0066E120055
:1017C000D9CFE6FFE1CFD9FF060EE126010E11C207
:1017D000DBFF010EDB50C00BE76E020EE7CFDBFF35
:1017E000010EDB503F0BE76E010EE7CFDBFF030E70
:1017F00012C2DBFF040E13C2DBFF020EDBAE16D0FB
:1018000012C2F6FF13C2F7FFF86ADF6A010EDB505F
:10181000DF5C0BE20900DF50EA6A0A0FE96E000E96
:10182000EA22F5CFEFFFDF2AF1D73ED0020EDBAC84
:1018300020D002011251E76E050EE7CFDBFFDF6A11
:10184000010EDB50DF5C14E2050EDBCFF3FFDB2A79
:10185000F350E66EDDDEE552E66EDF50EA6A0A0F0F
:10186000E96E000EEA22E552E750EF6EDF2AE8D774
:101870001BD0DF6A010EDB50DF5C16E2030EDBCF0C
:10188000E9FFDB2A040EDBCFEAFF01E3DB2AEF509E
:10189000E66EDF50EA6A0A0FE96E000EEA22E552B0
:1018A000E750EF6EDF2AE6D7010E066E060EE15C0A
:1018B00002E2E16AE552E16EE552E7CFD9FF12009C
:1018C000B7D9050EE126010E11C2DBFF020E12C2CE
:1018D000DBFF030E13C2DBFF010EDBAC0ED00201F7
:1018E0001251E76E040EE7CFDBFF14C2E6FFDBCF39
:1018F000E6FF96DEE552E55210D0020115510AE0EE
:10190000C5D9EF5015151411E66EC0D9E552E75050
:10191000EF6E03D0BBD914C2EFFF050EE15C02E20B
:10192000E16AE552E16E89D1646A606A1200D9CF3A
:10193000E6FFE1CFD9FF020EE12615C2DFFFDF503F
:101940000DE0F29CF29E0A0EE66E41EC04F0E552C8
:10195000EBDF0A0EE66E41EC04F0E552FB6A13C2BF
:10196000FAFF010E12C2DBFF0153F96E020EE15CB9
:1019700002E2E16AE552E16EE552E7CFD9FF1200DB
:1019800007C00AF070C00BF03F0E00017015E66E44
:10199000E66A600EE66E000EE66E0C0EE66E000E57
:1019A000E66E25EC15F04A6E060EE15E4A50000127
:1019B000706B010E066E12000001706B0001700E5C
:1019C000076F12C2E6FF13C2E6FFACEC12F0E5525D
:1019D000E5520001710E076F12006BD911C2DFFFD3
:1019E000DF5005E0DFCFE6FF41EC04F0E552E552C1
:1019F00024D11ED9040EE126010EDB6AAA0E0A6E5E
:101A0000DF6A3C0EDF5C1FE2BADE020EF3CFDBFFC3
:101A1000030EF4CFDBFF020EDBCF4AF0030EDBCF69
:101A20004BF00001800E4B140EE1020EDF24EA6A37
:101A30000A0FE96E000EEA22020EDBCFEFFF010E65
:101A4000DB2ADF2ADED7010EDB500B6E010E066E9D
:101A5000040EE15C02E2E16AE552E16EEED011C2F1
:101A600003F012C204F013C205F0A00E035C08E1FB
:101A70009388290EC26EC16A3E0EC06EC09EC2829D
:101A8000F9EF0CF0020112A902D09CDD05D012AFD3
:101A900002D09FDD01D08BDDAA0E0A6E010E066E0C
:101AA0001200110EE66E020EE66E9DDDE552E55265
:101AB000010E02011015066E120011C200F012C2D2
:101AC00001F013C202F0120011C2E6FF87DDE552F9
:101AD0001200EFD8020110A304D0400E006E016A7C
:101AE000026ADF6A02011151DF5C19E20050DDD8A1
:101AF0000250DBD80150D9D8020EDF24EA6A100F59
:101B0000E96E020E9ED8880E001406E0012A0150EC
:101B100001E1022A009601D00086DF2AE3D710A552
:101B20000ED0020E11254B6A100F4A6E020E4B2288
:101B30004AC0E6FF4BC0E6FF56DDE552E552010E16
:101B400002011015066EE55278D0280E0201105DD4
:101B500002E269EF0DF02B0E105D02E142EF0DF095
:101B60002A0E105D02E15DEF0DF0280E105D03E01E
:101B7000290E105D02E151EF0DF02C0E105D02E117
:101B800064EF0DF02E0E105D01E127DF120006500C
:101B90003BE102010851800B37E1100EE66E020EA8
:101BA000E66ED2EC11F0E552E55210C20AF0200EBA
:101BB0000201105D02E3C9DF27D0100E105D03E3C0
:101BC00052EC08F021D0050E105D02E1F9DD1CD0C9
:101BD000040E105D02E174DE17D0060E105D02E106
:101BE000A6DE12D0070E105D02E139DF0DD00D0E1A
:101BF000105D02E1C5DE08D00C0E105D02E1DCDEF6
:101C000003D0100501E1D2DD065011E002010CBF46
:101C10000ED00A0EE66E000EE66EBDEC11F0E55237
:101C2000E552066A035003E0020108BFE2DE12003B
:101C3000D9CFE6FFE1CFD9FF1200E552E7CFD9FFB8
:101C40001200EA22EF5031D8E66EDF50EA6A0A0F3E
:101C5000E96E000EEA22E552E750EF6E12000850DE
:101C6000EA6A000FE96E010EEA22DFCFEFFF082AD1
:101C70001200640EE66EC1EC09F0E5521200010E8E
:101C8000DBCF4AF0020EDBCF4BF01200020EDBCFAF
:101C9000E9FF030EDBCFEAFF1200E7CFDBFF6CC2E8
:101CA000E6FFC1EC09F0E5521200E66E42DCE552B7
:081CB0001200BEDFE652120033
:081CB8007DD9E652635032E1D0
:101CC0006296020100513C0BE842E8420D0828E10F
:101CD000780E021923E1020E031920E1700E026F43
:101CE000020E036FDF6ADF504A6E4B6A080E4A5CD1
:101CF000000E4B5813E2DF50EA6A780FE96E020ECD
:101D0000EA22EF50E66EDF50EA6A700FE96E020ECB
:101D1000EA22E552E750EF6EDF2AE5D70ED80AD067
:101D20003FD808D0040E635C03E1629650D802D01D
:101D3000000E01D0010EE55242D13CD9E65202011B
:101D400004BF046B0201626B5A6B5B6B606B616B6F
:101D5000EBEC0FF0DF6ADF504A6E4B6A010E4A5C13
:101D6000000E4B581AE202015B5117E1F76ADF34AB
:101D7000FE0BF736F66EDE0EF626280EF722090069
:101D8000F5CF4AF00800F5CF4BF004D04BC0FAFF76
:101D90004A50F96EFBDFDF2ADED7B7D8E5520FD104
:101DA000020E02015A5D0EE184D80201780E026F24
:101DB000020E036F080E016F00BD02D0C80E05D0E1
:101DC000880E03D0DBD8E7D88C0E006F1200040E0B
:101DD00000017B5D0CE172C25CFF0F015C510008E9
:101DE00003E20001050E02D00001030E7B6F020129
:101DF0005A0510E111D8020E0201625D03E10201F1
:101E0000840E06D0020104BD02D0C80E01D0880E97
:101E1000046F1200BEEF0FF0CDD8020EE1260201D2
:101E2000080E605D000E61590DE260C2DEFF61C206
:101E3000DDFF625102E1010E03D0620506E1020EF0
:101E4000626F03D0080EDE6EDD6A02010493049116
:101E5000010EDB500413DFCF05F2000EDB50020150
:101E6000605F010EDB50615B780E5E6F020E5F6F8C
:101E700000017CA30CD097D815E05CC2F6FF5DC2D0
:101E8000F7FF0800F5507FD8F6E2DB06F4D78BD8D1
:101E900009E05CC2E9FF5DC2EAFFEF5074D8F7E2E7
:101EA000DB06F5D7020EE15C02E2E16AE552E16E83
:101EB00086D080D8020EE126030E02010015E76EDF
:101EC000010EE7CFDBFF01C2DFFFDE50020160271A
:101ED000DD506123780E5C6F020E5D6F64D80EE0FA
:101EE0005CC2E9FF5DC2EAFFEF505EC2E9FF5FC27C
:101EF000EAFFEF6E68D8F2E2DB06F0D7020EE15C93
:101F000002E2E16AE552E16E5AD0649802015B5147
:101F100005E141D8840E006F02011DD0020170AFAF
:101F20001CD0020160510201765D02016151020183
:101F3000775904E276C260F277C261F26DDF020186
:101F4000010E5A6F28D8800E006F0201780E066FBE
:101F5000020E076FC80E046F12000201020E5A6FC4
:101F60000201056BC80E046F0201080E016F780EA6
:101F7000026F020E036FC80E006F120002015A6B4F
:101F80000201046B12005EC2E9FF5FC2EAFFEF6E5E
:101F90000201E3EF0FF00201080E016F700E026FF5
:101FA000020E036F1200D9CFE9FFDACFEAFFEE503D
:101FB000ED101200D9CFE6FFE1CFD9FF1200E552B4
:101FC000E7CFD9FF12005E2B000E5F235C2B5D2351
:061FD000DF06010E120005
:0A1FD60002017051600BE842E8427E
:101FE000E842E842E842000901E012007151070AA4
:101FF00040E00B0A3EE0070A33E0010A23E00B0A47
:102000001FE0020A1DE0030A19E0080A10E0010AB5
:102010000CE00F0A08E0030A01E0120018D90001E1
:10202000040E7B6F12003AEF10F082EF10F00FD920
:1020300002017D0E5C6F000E5D6F0CD09DEF10F005
:10204000CFEF10F017D902015C6F5D6B7E0E5C273D
:10205000000E5D2300017C930201010E606F1200EF
:1020600009D9EA6A7E0FE96E000EEA2272C2EFFF1A
:1020700012001200800E0201705D43E17351030AE9
:1020800021E0010A0AE0030A33E1E1D80201560E19
:102090005C6F280E5D6F120E28D0D9D80201E3D8EC
:1020A000D20EF626280ED7D8020E0201F76A5C255A
:1020B000F66E5D51F7220900F5CF60F20A00F5CF08
:1020C00061F216D0C4D8030E0201725D07E19DD8FB
:1020D0005CC2E9FF5DC2EAFFEF5007D096D85CC250
:1020E000F6FF5DC2F7FF0800F5500201606F616BFB
:1020F000030E0201725D03E100017C9312000001F6
:102100007C831200A4D8070EE66E540EE66E0F0E06
:1021100097D8010EE66E7E0EE66E000E91D872C262
:102120007DF00201725104E10001050E7B6F120087
:102130000001060E7B6FA7EF11F00201786B796B3F
:10214000020170511F0B020A0FE0030A0BE0010AA3
:1021500018E17DD80201788100017CA112D0020132
:1021600078830FD074D80DD056D801E0010E5FD817
:102170005EC2E9FFEA6EEF50040B03E00201010EBC
:10218000786F02015B050AE10201780E5C6F020EB6
:102190005D6F00017C930201020E606F120002016C
:1021A00072050EE170511F0B00090AE150D8030EB1
:1021B0000201715D03E100017C8102D000017C918C
:1021C0000201725121E170511F0B02081DE174518F
:1021D0000F0B000919E01FD801E0010E28D8030EEB
:1021E0000201715D02E1840E03D074AF07D0400E8E
:1021F0005EC2E9FF5FC2EAFFEF6E1200880E5EC2A8
:10220000E9FF5FC2EAFFEF6E12002DD8D60EF62668
:10221000280E2BEF11F02ED80F0B080DF3504B6A40
:10222000000F4A6E020E4B227451800B1200040DF7
:10223000F35002014A245E6F000E4B205F6F1200C4
:10224000E66E8CEC12F0E552E552E5521200020106
:10225000010E5B6F1200F7220900F5CF5CF20A0055
:10226000F5CF5DF212007251F66EF76AD890F6362D
:0C227000F7361200ECDF0201745112007E
:04227C00020170519A
:102280001F0B010801E01200745101E01200060E5C
:10229000715D24E17351230A1FE0010A0DE0030A76
:1022A0001BE19BD800017D0505E102017A0E5C6F00
:1022B000280E5D6F090E0DD090D800017D0505E157
:1022C0000201B50E5C6F280E5D6F00017D0504E113
:1022D0001D0E0201606F616B00017C830201705171
:1022E000600BE842E842E842E842E842010801E0C7
:1022F000120071510B0A25E0080A17E0090A11E0E3
:10230000080A09E00B0A05E0080A01E01200A5EF3F
:1023100011F0A6EF11F061D80201630E5C6F020E9E
:1023200009D05BD873C263F2120057D80201640E61
:102330005C6F020E5D6F00017C930201010E606F05
:1023400012004BD872C264F2120012001200020195
:10235000656B0F011E0E546F0201400E096F800E57
:102360000A6F020E0B6F880E086F0201C00E0E6F0F
:10237000020E0F6F400E0C6F1200D9CFE6FFE1CFB7
:10238000D9FF2FD8C00EE66E020EE66E31D80201DC
:10239000400E0D6F0C170C7D880E0C13E552E7CF25
:1023A000D9FF1200D9CFE6FFE1CFD9FF0201656B5B
:1023B000020108BF0DD0800EE66E020EE66E11D847
:1023C00017D80201400E096F0817087D880E081300
:1023D000400EE552E7CFD9FF12000201020E5B6FFB
:1023E0001200FD0EDBCFE6FFFE0EDBCFE6FF120094
:0E23F00080EC08F0E552E552E552E55212008D
:0223FE0064A6D3
:102400000CD800017B0508E164BA06D0626A606AF4
:1024100060806088020E7B6F1200646A606A648666
:102420000001010E7B6F120000017B5101E11200DF
:1024300062B425D864B2120062B03AD862B817D834
:1024400062BA24D8030E00017B5D01E21200000194
:102450007F6B040E7F5D0AE262A608D05CEC0EF092
:10246000000901E1629600017F2BF3D7120060841E
:1024700062986482A194A0840300A09412006492E4
:10248000609462A402D06294FCD712000F0153A1A1
:102490000DD0800E0201005D07E1840E0201045D93
:1024A00003E102018C0E006F0F015391629A12003A
:1024B0000F015F6B626A0F019F0E5B6F7B0E606E98
:1024C0000F015C6B070EE66E540EE66E0F0EE66EA5
:1024D00023D8E552E552E5520F01160E536F62A65E
:1024E00005D0629600D000D00000F9D76498BEEC09
:1024F0000FF00201080E016F0201700E026F020E52
:10250000036F02018C0E006F00017C9100017D6B56
:102510000001030E7B6F1200D9CFE6FFE1CFD9FF98
:10252000FD0EDBCFE9FFFE0EDBCFEAFFFC0EDB503A
:1025300004E0EE6AFC0EDB06F9D7E552E7CFD9FFDF
:02254000120087
:0E2542000201662B000E67236751080B02E0B2
:102550008B8012008B901200D9CFE6FFE1CFD9FF1C
:10256000040EE126020EDB6A030EDB6A020EDBCFED
:102570004AF0030EDBCF4BF0080E4A5C000E4B58BE
:102580002EE251D8100E4A6E080E3FD8DE6ADD6A80
:10259000DECF4AF0DDCF4BF0320E4A5C000E4B58D6
:1025A00013E241D8DECF4AF0DDCF4BF0200E4A24B3
:1025B000E66EB4EC14F0E552E552E552C2DFDF2AD4
:1025C000010EE6E3DB2AE4D72ED80E0E4A6E080E83
:1025D0001CD8020EDB2A030EC9E3DB2AC7D7D95069
:1025E000FD0FE96EFF0EDA20EA6EEE50ED1002E00C
:1025F0008B7001D08B72040EE15C02E2E16AE5525D
:10260000E16EE552E7CFD9FF12004B6E4C6A4AC02B
:10261000E6FFE66E4CC0E6FF70EC14F04D6E050E62
:10262000E15E4D50120068C2E6FF69C2E6FF12008B
:10263000DACFE4FFE652E552E5CFDAFF1100D8CF5A
:10264000E4FFE0CFE4FFE46EDACFE4FFE2CFDAFFAD
:10265000E9CFE4FFEACFE4FF00EE4AF0080EE80419
:1026600003E3EECFE4FFFBD7E65215D8E55200EEC8
:1026700051F0080EE80403E3E5CFEDFFFBD7E5CF0B
:10268000EAFFE5CFE9FFE5CFDAFFE550E5CFE0FF70
:10269000E5CFD8FF10009EA203D0A6EC0BF09E92CF
:1026A000120002016A2B000E6B236B51800B02E0BB
:1026B0008B8212008B92120021EC0BF07E6A7F6AF3
:1026C0000F0EC16E93689468140E616E00017B6BEF
:1026D00000017C6B00017D6B94EC0BF0040EE66E48
:1026E000F20EE66E8CEC13F0E552E552D08EF28CD1
:1026F000F28E9F921200FFEC11F014EC12F0060E15
:1027000000017B5D05E16450020B02E1C7EC0DF0B6
:082710001200D2DFF0DFFED75A
:08271800D9CFE6FFE1CFD9FFA4
:10272000FE0EDBCFE6FF50EC15F0E552FD0EDB5060
:10273000CB6EE552E7CFD9FF1200D9CFE6FFE1CF4C
:10274000D9FFFE0EDB5002E1010E0AD0FE0EDB04C3
:1027500002E1030E05D0FE0EDB50020804E1070E75
:10276000E66EE66A22D0FE0EDB50030802E1030E9D
:1027700005D0FE0EDB50040804E1070EE66E010EE4
:1027800013D0FE0EDB50050803E1030EE66E0BD0FE
:10279000060EF36EFE0EDBCFF4FFF350F45C08E39D
:1027A000FE0EDBCFE6FF020EE66EB6DFE552E55227
:0827B000E552E7CFD9FF12004A
:0827B8001E0EF66E080EF76E0E
:1027C000000EF86E00010900F550766F0900F55013
:1027D000776F03E1766701D03DD00900F550716F46
:1027E0000900F550726F0900F550736F0900090078
:1027F000F550E96E0900F550EA6E0900090009007C
:10280000F550746F0900F550756F09000900F6CF97
:1028100078F0F7CF79F0F8CF7AF071C0F6FF72C098
:10282000F7FF73C0F8FF0001745302E1755307E02E
:102830000900F550EE6E7407F8E27507F9D778C015
:10284000F6FF79C0F7FF7AC0F8FF00017607000EA7
:06285000775BBFD7120008
:0A2856001201000200000008D8047F
:102860003C0002000102030109022900010100C02D
:1028700032090400000203000000092111010001D7
:10288000221D0007058103400001070501034000E8
:1028900001040309040E0341005600520065007450
:1028A00000630012035000490043003100380073F8
:1028B00000700078000600FF0901A10119012940FC
:1028C000150026FF007508954081001901294091E7
:1028D00000C06828682891289528A32850027C22E7
:1028E000D9CFE6FFDACFE6FFE1CFD9FFE2CFDAFFBB
:1028F000E652FB0EDBCFF6FFFC0EDBCFF7FFFD0E43
:10290000DBCFF8FF0800F550DF6EDF5024E0F90E52
:10291000DBCFE6FFFA0EDBCFE6FFDFCFE6FFB4EC5E
:1029200014F0E552E552E552F3CF4AF0F4CF4BF004
:102930000001F31C05E14B1C03E1F368F4680DD0C2
:10294000D950FB0FE96EFF0EDA20EA6EEE2A000E78
:10295000EE22EE22CED7F36AF46AE552E552E5CFD5
:08296000DAFFE7CFD9FF1200F6
:08296800D9CFE6FFDACFE6FF4C
:10297000E1CFD9FFE2CFDAFFFB0EDBCF4AF0FC0E4E
:10298000DBCF4BF00001800E4B141AE1FB0EDBCFC6
:10299000E9FFFC0EDBCFEAFFEECFF3FFEDCFF4FF54
:1029A000EE2A000EEF22F3CFE9FFF4CFEAFFFD0E8F
:1029B000DBCFEFFFEF504B6AF36E4BC0F4FF10D04C
:1029C000FB0EDB50FE0806E1FD0EDBCFE6FF79ECE7
:1029D00015F005D0FD0EDBCFE6FFF6EC14F0E55266
:0C29E000E552E5CFDAFFE7CFD9FF120087
:0429EC00D9CFE6FF5A
:1029F000E1CFD9FFE652DF6AFE0EDB500A0802E1A2
:102A0000010EDF6E100E0001705D02E3010EDF6E3D
:102A1000DF5006E00001705103E07BEC13F0FAD7C1
:102A2000100E705D0AE27051702BEA6A600FE96E59
:102A3000000EEA22FE0EDBCFEFFF010EF36EF46A0A
:0A2A4000E552E552E7CFD9FF12007E
:062A4A00D9CFE6FFDACF50
:102A5000E6FFFA0EE3CFD9FFFB0EE3CFDAFFFC0E61
:102A6000E3CFE9FFFD0EE3CFEAFFE9CFF3FFEACFC3
:102A7000F4FFF80EE35003E1F90EE35008E0F80E1E
:102A8000E30602E2F90EE306DECFEEFFF2D7FF0E19
:102A9000E3CFDAFFE552FF0EE3CFD9FFE552120094
:102AA000D9CFE6FFDACFE6FFE1CFD9FFE2CFDAFFF9
:102AB000FD0EDB50FB0BCA6ECC6A9E92FD0EDBAEA8
:102AC00002D09D8201D09D92CA84E552E5CFDAFF03
:062AD000E7CFD9FF120060
:0A2AD60010EE80F020EE80F0F86AA8
:102AE000539CDCEC13F003EC04F089EC13F0FBD7FF
:022AF0001200D2
:0E2AF200FF0EE350ACBA04D0AF6AAB8EAC8AD4
:0E2B0000949CACA2FED7AD6EF36EF46A120088
:022B0E0000EED7
:0C2B100000F00F0EEE6AEA62FDD7120022
:022B1C000000B7
:022B1E000A03A8
:082B20003000300030003100EC
:022B2800FFFFAD
:012B2A0005A5
:022B2B000000A8
:020000040030CA
:0100000000FF
:0100010032CC
:0100020001FC
:010003001EDE
:0100050000FA
:0100060001F8
:0100080003F4
:01000900C036
:01000A0003F2
:01000B00E014
:01000C0003F0
:01000D0040B2
:00000001FF
