:020000040000FA
:06000000B4EF10F0120045
:0600080004EF04F01200F9
:060018000CEF04F01200E1
:06080000B4EF10F012003D
:020806001200DE
:06080800CCEF0DF0120020
:02080E000A00DE
:0808100048656C6C6F203A0092
:06081800D3EF0DF0120009
:02081E000300D5
:10082000A4210000B400000002000000A22100008A
:10083000B200000002000000A0210000B000000093
:0408400002000000B2
:0C08440063EC0AF0A0940F015F6B626A85
:10085000536BADEC09F0E3EC09F0DF6AEBEC09F067
:1008600003E293EC09F0FAD7648C0F015C6B649897
:10087000649C62A607D062960001736B786B796BFB
:100880007A6BF7D70001010E8A6F8B6F8C6B8D6BC3
:10089000806BDF6A020EDF5C11E2EA6ADF3466EC2D
:1008A0000AF0EA22EE6AED6AEA6ADF346DEC0AF0D9
:1008B000EA22EE6AED6AA3EC09F0ECD70001080E1B
:1008C0006B6F020E6C6F0F01160E536F0201200E3C
:1008D000026F020E036F080E016F840E006F00019D
:1008E000616B606BE5526DEF09F063EC0AF000019B
:1008F00060510BE1646A606AE3EC09F064B602D00F
:100900006486FCD70001010E606F600508E164BADF
:1009100006D0626A606A60806088020E606F625012
:10092000040B05E06050040B02E0629499D864B2B5
:1009300045D06250010B08E06050010B05E082DFFA
:100940000001040E606F62906250100B05E0605071
:10095000100B02E07AD8629862AC0FD060AC05D080
:1009600002EC0AF0730E5AEC09F0629C0001885107
:1009700001E08807885101E124DA6250200B04E08D
:100980006050200B01E04DD86250020B0CE060502B
:10099000020B09E002EC0AF0E6687F0EE66E74ECEA
:1009A0000AF00F015F6B040E0001E76E6019E8AEFC
:1009B00002D0E73402D0E750605D02E2A1942ED06D
:1009C00060A62BD0DF6A040EDF5C27E262A625D08A
:1009D00063CF81F000018151780BE842E842E842A0
:1009E000826F629681B504D082517BEC0AF003D00D
:1009F000825180EC0AF0EA22EF70825102E13ED887
:100A00000AD0000EE66EE66A810EE66E000EE66E15
:100A1000720E5AEC09F0DF2AD6D7A194E5526DEF99
:100A200009F00F0153A10FD079EC09F0EF508008C5
:100A300009E163EC09F0EF50840804E179EC09F076
:100A40008C0EEF6E5391629A1200608462986482F9
:100A50000001010E806FC9EC09F0750E5AEF09F024
:100A60000001806BC9EC09F0740E5AEC09F0649235
:100A7000609462A402D06294FCD7120063EC0AF086
:100A800000012D0E886FFD0E811540E17E0E81154F
:100A9000E8407F0B040DF3CF63F0F4CF64F0000E59
:100AA0006327020E642363C065F064C066F0657559
:100AB00079EC09F0EF503C0BE842E8420D0824E1E4
:100AC000DF6A080EDF5C1AE279EC09F0020EE92613
:100AD000000EB6EC09F0EF50E66EDF50EA6A200F28
:100AE000E96E020EEA22E552E750EF6E79EC09F06A
:100AF0008FEC0AF0EE2AEF22DF2AE3D779EC09F037
:100B00002FEC0AF00AD807D025D805D0FD0E8115A4
:100B1000040801E12ED8E552E0D300016F6B896B28
:100B20008C6B8D6B836B706BCEDBEF9E6B75CBDB51
:100B3000EF9E6B751EEC0AF0EF9E736B746B756B1A
:100B4000786B796B7A6B53D8C9EC09F0030EB2DB82
:100B50009BEF07F0020E0001705D02E107EF08F065
:100B6000706B835104E19DDB8C0EEF6E1200836B82
:100B7000120063EC0AF0A7DBEF50400B01E0010E1E
:100B8000DF6E00016B75080E605D0BE122C25CFF39
:100B90000F015C5103E00001100E02D00001040EB1
:100BA000606F700513E18FDBA9DBF2D9020E000143
:100BB0006F5D03E188DB840E07D0DF5003E183DB48
:100BC000C80E02D080DB880EEF6E0FD078AF0CD04D
:100BD0007B517C1107E005D07CC0FAFF00017B51FE
:100BE000F96EFADF0001789F706BE55276D302014F
:100BF0002051600BE842E842E842E842E84200093E
:100C000001E0120021510C0A45E00B0A3FE00C0AFA
:100C100031E0010A22E00B0A1EE0020A1CE0030A8E
:100C200018E0080A10E0010A0CE00F0A08E0030AC5
:100C300001E012000001738F080E606F120023EFB5
:100C400007F06BEF08F00001610E716F000E726F1C
:100C50000CD060EF07F04BEF06F024510001716FEC
:100C6000726B620E7127000E72237381010E746F16
:100C7000738F12000001738F02012451EA6A620F20
:100C8000E96E000EEA2222C2EFFF120082DB020EA2
:100C90005AEF09F012001CDB050EE12602012205C5
:100CA00010E120511F0B00090CE10001738F030EAE
:100CB0000201215D04E10001010E7F6F02D00001FD
:100CC0007F6B0201225101E075D020511F0B0208F9
:100CD00071E124510F0B00096DE024510F0B010845
:100CE00069E3200E0001605D65E1738F020124BF9E
:100CF00004D0D0DB54DB59DB03D0D1DB50DB59DB34
:100D0000EA22020EEFCFDBFF84DB010B03E1000ED2
:100D1000DF9401D0DF8424BF02D0BCDB01D0BFDB75
:100D2000EA22DECFEEFFDDCFEDFF030E215D0DE108
:100D3000BBDB07E024BF02D038DB01D03ADBEA227C
:100D4000EF82840E94EC0AF035D0DF74ADDB06E060
:100D5000B5DAEF9EB3DAEF8C8CDB02D0AFDAEF8C32
:100D6000DF7457DB020B02E19FDB0DE0020124BFC1
:100D700002D01BDB01D01DDBEA22EF923B0E556E49
:100D8000C4DB77DB02D03B0EC0DB020124510F0B2A
:100D9000566A530F556E0F0E5622030E55C0DBFFD9
:100DA000040E56C0DBFF030EDBCFE9FF040EDBCFE2
:100DB000EAFFEF90050EE15C02E2E16AE552E16EC6
:100DC0008CD200018A5121E1010E8A6F8B511DE105
:100DD000010E8B6F020E705D07E175DAEE52EF6A5D
:100DE00072DAC80EEF6E120070050FE1836B81DAC4
:100DF000EE52080EEF6E7DDA32DB7BDA840EEF6E98
:100E0000010E836F4EDA800EEF6E120000018C6BC4
:100E10008D6B020E705D04E17CDB70DA0FDB10D0AD
:100E200074510201265D000175510201275904E247
:100E300026C274F027C275F0ABD845DA5FDA43DA20
:100E4000C80EEF6E1200800E0201205D38E1000135
:100E5000C00E736F02012351030A1AE0010A09E070
:100E6000030A2BE100012E0E716F1D0E726F120E20
:100E70001ED0DDDAD80EF6261D0EB5DA020E000100
:100E8000CFDAF5CF74F0030ECBDAF5CF75F01200A0
:100E9000030E225D0FE2CBDADA0EF6261D0EA3DA80
:100EA00071C0F6FF72C0F7FF0800F5500001746FC3
:100EB000756B12000001736B12000001736B12005E
:100EC000D4DA0201286B296B20511F0B020A11E0B2
:100ED000030A0CE0010A1EE10001738F0201288160
:100EE00000017F0517E10201288314D00001738FF0
:100EF00011D00001738F020124BF02D0CBDA01D0E0
:100F0000CEDA4DDAD1DA06E0D9D9EF50040B02E09F
:100F1000010E286F000173AF07D0280E716F020E0B
:100F2000726F7381020E746F020EE15C02E2E16A7D
:100F3000E552E16ED2D16498000173BF0DD078AF55
:100F400009D0020E706F8D5101E160DF00018B6BE3
:100F50008A6B120043EF0AF0020120AF0DD00001AE
:100F6000010E706F8C5101E151DF00018B6B8A6BB8
:100F700089510DE1E1EF06F00001020E706F91D989
:100F8000840EEF6E8B6B8A6B895101E11ADF1200C0
:100F90009ADA080EDF6E0001745D000E75590AE2E0
:100FA00074C0DFFF6F5102E1010E03D06F0502E153
:100FB000020E6F6FDF50566AE850745D746F5650C2
:100FC0007559756F80D9EE52DFCFEFFF280E7D6F18
:100FD000020E7E6F73B10DD0DF5017E071C0F6FFC7
:100FE00072C0F7FF712B000E72230800F550C4D9B0
:100FF000F3D7DF500AE071C0E9FF72C0EAFF712B3E
:10100000000E7223EF50B8D9F4D7E55266D12DDA2D
:1010100070D9EE52EFCFDFFFDFCF55F05550000112
:10102000795D000E7A5902E279C0DFFFDF50556E1C
:10103000566AE850795D796F56507A597A6F010E89
:10104000DB6ADF50F36E010EDBCFF4FFF350F45C8C
:1010500016E2010EDB50EA6A280FE96E020EEA2260
:10106000EF50E66E76C0E9FF77C0EAFF762B000E00
:101070007723E552E750EF6E010EDB2AE2D7000E30
:10108000D8807955000E7A550DE243DA37D931D937
:10109000EF50400B03E1D2D9C80E02D0CFD9880E51
:1010A000EF6E12D0FED8840EEF6E7B517C1107E0FC
:1010B00005D07CC0FAFF00017B51F96EFADF000118
:1010C000789F895101E17DDE020EE15C02E2E16A76
:1010D000E552E16E02D1F7D90001738F3ED9DF6A84
:1010E0007AD902E220D9FCD7648CDF6A020EDF5C79
:1010F00002E229D9FBD7010EE66EE66AE66A620EC5
:10110000E66E000ED8D9649C0001080E6B6F020ECB
:101110006C6F000E636F020E646F63C065F0666FE4
:1011200022C261F0615102E1100E0BD0010EE66E99
:10113000E66A610EE66E000EE66E010EBBD8000197
:10114000200E606FE552C9D090D9000EDE6E020EFF
:10115000DD6EDAD8040DF4CF56F0D9CFE9FFDACF3F
:10116000EAFFF350EE265650ED22A8D8EF9EFD0E72
:10117000DB5002E1D3D801D098D8EA22DECFEEFFCF
:10118000DDCFEDFF9BD8EF9C99D8040EE926000E29
:10119000EA22EF8C020EE15C02E2E16AE552E16EC6
:1011A0009CD063D9FD0EDBA402D0E66A24D9FD0EE3
:1011B000DBA203D0010EE66E1ED9FE0EDB50566A8E
:1011C000530F556E0F0EF9D879D8FD0EDBCFEFFF18
:1011D000020EE15C02E2E16AE552E16E7ED045D9A1
:1011E000FE0EDB5002E14FD905D08ED82CD98CD819
:1011F000010F29D9020EE15C02E2E16AE552E16EDB
:101200006CD033D9FD0EDB5002E04FD801D086D828
:10121000C6D8D9CFE9FFDACFEAFFEE50ED1003E1EF
:10122000F36AF46A21D04AD87AD9FB0EDBCFEEFFFD
:10123000FC0EDBCFEDFF42D8EE52FA0EDBCFEFFF14
:10124000400E63D9880E70D9FD0EDB5002E02DD818
:1012500001D064D8EA22EF74DECF55F0DDCF56F02E
:1012600055C0F3FF56C0F4FF020EE15C02E2E16AF2
:10127000E552E16E32D02CD864A812D019D9400EB4
:10128000EE16EE6AEE6AEE6A13D9EE7C0ED8EA220A
:10129000EF74400E556E0CD95550EF1609D9EF7CFE
:1012A0001CD037D9DCD81EEF0AF0FE0EEA6ADB3418
:1012B00066EF0AF0E66EE66A74EF0AF0DECFE9FF49
:1012C000DDCFEAFF12006BC0E9FF6CC0EAFF12003D
:1012D000D9CFE6FFE1CFD9FF1200E552E7CFD9FF22
:1012E000120024510F0BE96EEA6AD890E936EA360B
:1012F000120063C0E9FF64C0EAFF120010D9280E93
:10130000EE6E020EED6E1200FD0EDB50E824576EFD
:10131000FE0EDB50040DF35057241200FE0EEA6A55
:10132000DB346DEF0AF0DF50040DF3CFE9FFF4CFAB
:10133000EAFF000EE926020EEA22EE6AEE6AEE6A83
:10134000EE6ADF2A1200DF50DBD8EA22EF6ADF50B4
:10135000D2D8EA22EF6ADF2A1200010EE66EE66AB0
:10136000E66A540EE66E0F0E5BEF0AF0EA22EE50CC
:10137000EFCFEAFFE96E1200E66E7DC0E9FF7EC0A6
:10138000EAFF7D2B000E7E23E552E750EF6EDF066D
:101390001200000EE66EE66AE66EE66A1200EA22C7
:1013A000EECFDEFFEDCFDDFF120024510F0B7BEF00
:1013B0000AF024510F0B80EF0AF0562255C0DEFFD1
:1013C00056C0DDFF1200160E616E0F019F0E5B6F9F
:1013D0007B0E606E1200DF50556E566A080E555C2B
:1013E000000E56581200F7220900F5CF71F00A00DE
:1013F000F5CF72F01200FE0EDBCFE6FFA5DEE55260
:10140000E5521200010EE66EE66A000EE66EE66A2E
:101410001200D950020FE96EDACFEAFFEF50120046
:10142000F76A7125F66E7251F722080012002251F8
:10143000F66EF76AD890F636F736120065C0E9FF07
:1014400066C0EAFF1200040DF3CF55F0F4CF56F05A
:10145000000E5526020EB1DF840E94EF0AF05FD81D
:10146000200EEE6E020EED6E120032DF020EE1264D
:101470001200020EE66EE66ADECFE6FFDDCFE6FF83
:10148000050E5AEF09F00DDF8C0EEF6E1CDF840E97
:10149000EF6E120026DF670EE926000E120021DF34
:1014A0006B0EE926000E120009DFEF50800B1200D0
:1014B000FCDEB6EF09F0E66EBAEC0FF0556E050EE5
:1014C000E15E5550120004DFE6521200FE0BEA36D0
:1014D000E96E6B0EE926000E1200FE0BEA36E96E8D
:1014E000670EE926000E12000BEC0DF0556E060E8D
:1014F000E15E55501200EA6A860FE96E000E120096
:10150000EA6A840FE96E000E1200D8DEE850EF168A
:10151000120094DFEE52080EEF6E1EEF0AF0020E7C
:10152000E926000EEA221200C9DEE850EF1212008E
:10153000F00E8B169416050EE66E01EC0FF0E552D8
:10154000036A0001046B056B066A086A096A1200E7
:10155000FCD9E652035014E0A00E035C0AE1C2B2CB
:10156000FED7C350DF6EE0D9C450DF6EDDD9C28232
:1015700007D004C0E9FF05C0EAFFEFCFDFFFD4D9F1
:10158000E552E8D1E2D9E6520850095C0FE0095073
:10159000EA6A000FE96E010EEA22EFCFDFFF092AA7
:1015A000DF50566AF36E56C0F4FF02D0F368F46859
:1015B000E552D0D1140E0B6E010E0C6E0D6E0E6A3C
:1015C00031C20FF0066E1200D9CFE6FFE1CFD9FF8E
:1015D000050EE126010E31C2DBFF010EDB50C00B10
:1015E000E76E020EE7CFDBFF010EDB503F0BE76E2D
:1015F000010EE7CFDBFF030E32C2DBFF040E33C266
:10160000DBFF020EDBAE16D032C2F6FF33C2F7FFAD
:10161000F86ADF6A010EDB50DF5C0BE20900DF5085
:10162000EA6A0A0FE96E000EEA22F5CFEFFFDF2A21
:10163000F1D71BD0DF6A010EDB50DF5C16E2030E30
:10164000DBCFE9FFDB2A040EDBCFEAFF01E3DB2A75
:10165000EF50E66EDF50EA6A0A0FE96E000EEA22EA
:10166000E552E750EF6EDF2AE6D7010E066E050E53
:10167000E15C02E2E16AE552E16EE552E7CFD9FFB3
:10168000120063D9040EE126010E31C2DBFF020E07
:1016900032C2DBFF030E33C2DBFF020135510AE029
:1016A0004DD9EF5035153411E66E48D9E552E75063
:1016B000EF6E03D043D934C2EFFF040EE15C02E2C7
:1016C000E16AE552E16E46D1646A606A1200D9CFE0
:1016D000E6FFE1CFD9FF020EE12635C2DFFFDF5082
:1016E0000DE0F29CF29E0A0EE66E83EC0EF0E552DF
:1016F000EBDF0A0EE66E83EC0EF0E552FB6A33C2B6
:10170000FAFF010E32C2DBFF0153F96E020EE15CFB
:1017100002E2E16AE552E16EE552E7CFD9FF12003D
:1017200007C00AF09EC00BF03F0E00019E15E66E4A
:10173000E66A8E0EE66E000EE66E0C0EE66E000E8B
:10174000E66E8FEC0FF0556E060EE15E555000010F
:101750009E6B010E066E120000019E6B0001700E62
:10176000076F32C2E6FF33C2E6FF60EC0DF0E552D0
:10177000E5520001710E076F1200E7D8E65231C240
:10178000DFFFDF5005E0DFCFE6FF83EC0EF0E55230
:10179000E552E0D0DAD8040EE126010EDB6AAA0E8B
:1017A0000A6EDF6A3C0EDF5C1FE2ECDE020EF3CF56
:1017B000DBFF030EF4CFDBFF020EDBCF55F0030E91
:1017C000DBCF56F00001800E56140EE1020EDF242E
:1017D000EA6A0A0FE96E000EEA22020EDBCFEFFF83
:1017E000010EDB2ADF2ADED7010EDB500B6E010E65
:1017F000066E040EE15C02E2E16AE552E16EAAD0F7
:1018000031C203F032C204F033C205F0A00E035C13
:1018100008E19388290EC26EC16A3E0EC06EC09E5A
:10182000C282CAEF0BF031C200F032C201F033C203
:1018300002F012001200065042E10001AA51AB1161
:1018400002E1000E03D09CD801E0010E000937E14F
:10185000B00EE66E020EE66E300EE66E020E7ED81A
:10186000B00EE66E020EE66EE66A010E81D8F3CF88
:10187000AAF0F4CFABF030C20AF0050E0201305DE1
:1018800002E1A2DE1CD0040E305D02E1FADE17D0C8
:10189000060E305D02E11BDF12D0300502E18ADE68
:1018A0000ED00D0E305D02E13BDF09D00C0E305D35
:1018B00002E152DF04D0070E305D01E1A1DF0650E6
:1018C00032E00001AC51AD1102E1000E08D0ACC015
:1018D000E9FFADC0EAFFEF50800B01E0010E000907
:1018E00022E10A0EE66E000EE66E700EE66E020E45
:1018F00035D8700EE66E020EE66E010EE66E38D832
:10190000F3CFACF0F4CFADF0066A03500CE0000169
:10191000AA51AB1102E1000E03D032D801E0010E52
:10192000000901E037DF12000850EA6A000FE96E93
:10193000010EEA22DFCFEFFF082A1200020EDBCFF2
:10194000E9FF030EDBCFEAFF1200D9CFE6FFE1CFBC
:10195000D9FF1200E552E7CFD9FF1200E66E34EC52
:101960000EF0E552E552E552E552400EE66E1200E9
:10197000E66E01EC09F0556E050EE15E5550120061
:0E198000AAC0E9FFABC0EAFFEF50800B1200D7
:02198E00120045
:10199000120012001200120012001E0EE66E010E5E
:1019A000E66ED1EC08F0E552E552400EE66EB00E60
:1019B000E66E020EE66EE66A010EE66E01EC09F0D6
:1019C000556E050EE15E5550F3CFAAF0F4CFABF0A3
:1019D000120000017F051EE1000180051BE1D8DF38
:1019E00064920001806B0001100EAE6F0E0EAF6F9F
:1019F000AE07000EAF5BAE51AF11FAE16484080E82
:101A0000AE6F070EAF6FAE07000EAF5BAE51AF11FA
:101A1000FAE164941200D9CFE6FFE1CFD9FFFD0EC1
:101A2000DBCF50F0FE0EDBCF51F0050E501801E178
:101A3000515036E0E868501802E17F0E51182FE04F
:101A4000030E501801E1515028E0020E501801E138
:101A5000515021E0010E501801E151501AE0740E6E
:101A6000501801E1515013E0750E501801E151502A
:101A70000CE0730E501801E1515005E0720E501841
:101A80000FE151500DD085DF0BD081DF09D080DF11
:101A900007D083DF05D080DF03D07DDF01D07ADF80
:0A1AA000010EE552E7CFD9FF120056
:061AAA000001B02B000E4C
:101AB000B123B151080B02E08B8012008B90120011
:101AC000D9CFE6FFE1CFD9FF040EE126020EDB6A93
:101AD000030EDB6A020EDBCF55F0030EDBCF56F0B0
:101AE000080E555C000E56582EE251D8100E556E59
:101AF000080E3FD8DE6ADD6ADECF55F0DDCF56F046
:101B0000320E555C000E565813E241D8DECF55F028
:101B1000DDCF56F0200E5524E66E18EC10F0E5529D
:101B2000E552E552C2DFDF2A010EE6E3DB2AE4D705
:101B30002ED80E0E556E080E1CD8020EDB2A030E90
:101B4000C9E3DB2AC7D7D950FD0FE96EFF0EDA20B3
:101B5000EA6EEE50ED1002E08B7001D08B72040E35
:101B6000E15C02E2E16AE552E16EE552E7CFD9FFBE
:101B70001200566E576A55C0E6FFE66E57C0E6FF84
:101B8000D4EC0FF0586E050EE15E58501200B2C052
:081B9000E6FFB3C0E6FF1200FE
:081B9800DACFE4FFE652E5524A
:101BA000E5CFDAFF1100D8CFE4FFE0CFE4FFE46E29
:101BB000DACFE4FFE2CFDAFFE9CFE4FFEACFE4FFD8
:101BC00000EE55F0040EE80403E3EECFE4FFFBD78C
:101BD000E65215D8E55200EE58F0040EE80403E38F
:101BE000E5CFEDFFFBD7E5CFEAFFE5CFE9FFE5CF96
:101BF000DAFFE550E5CFE0FFE5CFD8FF10009EA269
:101C000003D0A8EC0AF09E9212000001B42B000E43
:101C1000B523B551800B02E08B8212008B9212002B
:101C20007E6A7F6A0F0EC16E936894680001AA6B8A
:101C3000AB6B0001AC6BAD6B22EC04F098EC0AF0DE
:101C4000040EE66EF20EE66EF0EC0EF0E552E55292
:101C5000D08EF28CF28E9F92120075EC04F01BEF86
:081C60000CF0DEDFFADFFED715
:081C6800D9CFE6FFDACFE6FF59
:101C7000FA0EE3CFD9FFFB0EE3CFDAFFFC0EE3CF82
:101C8000E9FFFD0EE3CFEAFF040EDECFEEFFDECF6D
:101C9000EEFFDECFEEFFDECFEEFFDECFEEFFDECFDC
:101CA000EEFFDECFEEFFDECFEEFFDECFEEFFDECFCC
:101CB000EEFFDECFEEFFDECFEEFFDECFEEFFDECFBC
:101CC000EEFFDECFEEFFDECFEEFFE82EDED7FF0E1B
:101CD000E3CFDAFFE550FF0EE3CFD9FFE550120066
:101CE000D9CFE6FFE1CFD9FF0000000000000000DF
:101CF0000000000000000000FE0EDB06F5E1E552EA
:101D0000E7CFD9FF1200D9CFE6FFE1CFD9FF0AD83C
:101D100009D808D807D8FE0EDB06F9E1E552E7CF6F
:0E1D2000D9FF1200FA0EE66EDBDFE55212006C
:021D2E001201A0
:101D3000000200000008D8040402000001020001B3
:101D400009022000010100C0320904000002FFFF67
:101D5000FF00070501024000010705810240000164
:101D60000403090434034D006900630072006F002E
:101D70006300680069007000200054006500630083
:101D800068006E006F006C006F0067007900200033
:101D900049006E0063002E0040034D00690063009F
:101DA00072006F00630068006900700020004C0042
:101DB0006900620075007300620020004500780031
:101DC00061006D0070006C0065002000440065003B
:101DD0007600690063006500401D601D641D981D4C
:101DE000D9CFE6FFE1CFD9FFFE0EDBCFE6FF89ECCE
:101DF00010F0E552FD0EDB50CB6EE552E7CFD9FF78
:101E00001200D9CFE6FFE1CFD9FFFE0EDB5002E191
:101E1000010E0AD0FE0EDB0402E1030E05D0FE0E19
:101E2000DB50020804E1070EE66EE66A22D0FE0EE1
:101E3000DB50030802E1030E05D0FE0EDB50040860
:101E400004E1070EE66E010E13D0FE0EDB5005080E
:101E500003E1030EE66E0BD0060EF36EFE0EDBCF33
:101E6000F4FFF350F45C08E3FE0EDBCFE6FF020E56
:101E7000E66EB6DFE552E552E552E7CFD9FF120034
:101E80001E0EF66E080EF76E000EF86E00010900C9
:101E9000F550A46F0900F550A56F03E1A46701D0C8
:101EA0003DD00900F5509F6F0900F550A06F090063
:101EB000F550A16F09000900F550E96E0900F550D1
:101EC000EA6E090009000900F550A26F0900F550FB
:101ED000A36F09000900F6CFA6F0F7CFA7F0F8CF5F
:101EE000A8F09FC0F6FFA0C0F7FFA1C0F8FF000157
:101EF000A25302E1A35307E00900F550EE6EA207DA
:101F0000F8E2A307F9D7A6C0F6FFA7C0F7FFA8C05D
:0E1F1000F8FF0001A407000EA55BBFD712006A
:021F1E00D9CF19
:101F2000E6FFDACFE6FFFA0EE3CFD9FFFB0EE3CFF1
:101F3000DAFFFC0EE3CFE9FFFD0EE3CFEAFFE9CFC6
:101F4000F3FFEACFF4FFF80EE35003E1F90EE3509C
:101F500008E0F80EE30602E2F90EE306DECFEEFF3C
:101F6000F2D7FF0EE3CFDAFFE552FF0EE3CFD9FF42
:101F7000E5521200FE0EE3CFE9FFFF0EE3CFEAFFCA
:101F8000E9CFF3FFEACFF4FFFB0EE35003E1FC0ED1
:101F9000E35009E0FB0EE30602E2FC0EE306FD0E51
:081FA000E350EE6EF1D71200D0
:081FA800D9CFE6FFDACFE6FF16
:101FB000E1CFD9FFE2CFDAFFE652FB0EDBCFF6FF2F
:101FC000FC0EDBCFF7FFFD0EDBCFF8FF0800F5506E
:101FD000DF6EDF5024E0F90EDBCFE6FFFA0EDBCF39
:101FE000E6FFDFCFE6FF18EC10F0E552E552E552D0
:101FF000F3CF55F0F4CF56F00001F31C05E1561C69
:1020000003E1F368F4680DD0D950FB0FE96EFF0EC1
:10201000DA20EA6EEE2A000EEE22EE22CED7F36A26
:10202000F46AE552E552E5CFDAFFE7CFD9FF1200B7
:10203000D9CFE6FFDACFE6FFE1CFD9FFE2CFDAFF73
:10204000FB0EDBCF55F0FC0EDBCF56F00001800E0F
:1020500056141AE1FB0EDBCFE9FFFC0EDBCFEAFFE3
:10206000EECFF3FFEDCFF4FFEE2A000EEF22F3CF19
:10207000E9FFF4CFEAFFFD0EDBCFEFFFEF50566A2A
:10208000F36E56C0F4FF10D0FB0EDB50FE0806E1E5
:10209000FD0EDBCFE6FFC2EC10F005D0FD0EDBCF6E
:1020A000E6FF5AEC10F0E552E552E5CFDAFFE7CF54
:0420B000D9FF120042
:0C20B400D9CFE6FFE1CFD9FFE652DF6A8A
:1020C000FE0EDB500A0802E1010EDF6E100E000169
:1020D0009E5D02E3010EDF6EDF5006E000019E51BF
:1020E00003E02DEC0EF0FAD7100E9E5D0AE29E5131
:1020F0009E2BEA6A8E0FE96E000EEA22FE0EDBCFFF
:10210000EFFF010EF36EF46AE552E552E7CFD9FF17
:022110001200BB
:0E211200D9CFE6FFDACFE6FFE1CFD9FFE2CF6B
:10212000DAFFFD0EDB50FB0BCA6ECC6A9E92FD0EF1
:10213000DBAE02D09D8201D09D92CA84E552E5CFEC
:08214000DAFFE7CFD9FF12001E
:08214800000EF36E00EE00F042
:10215000030E01D81200EA6002D0EE6AFCD7F350F9
:08216000E9601200EE6AFCD7F1
:0821680010EEC0F020EEC0F003
:10217000F86A549C40EC0FF003EC04F031EC0EF0E4
:04218000FBD7120077
:0C218400FF0EE350ACBA04D0AF6AAB8E83
:10219000AC8A949CACA2FED7AD6EF36EF46A1200CA
:0221A00000003D
:0221A200FFFF3D
:0221A400000039
:020000040030CA
:0100000000FF
:0100010032CC
:0100020021DC
:010003001EDE
:0100050000FA
:010006008178
:0100080003F4
:01000900C036
:01000A0003F2
:01000B00E014
:01000C0003F0
:01000D0040B2
:00000001FF
