:020000040000FA
:06000000A7EF10F0120052
:0600080004EF04F01200F9
:060018000CEF04F01200E1
:06080000A7EF10F012004A
:020806001200DE
:06080800C1EF0DF012002B
:02080E000A00DE
:0808100048656C6C6F203A0092
:06081800C8EF0DF0120014
:02081E000300D5
:100820008A210000F400000002000000882100007E
:10083000F20000000200000086210000F00000002D
:0408400002000000B2
:0C08440059EC0AF0A09A6A6A686A706AAF
:10085000A4EC09F0F1EC09F0DF6ADAEC09F003E24C
:100860008AEC09F0FAD76D8C6E6A6D986D9C68A65B
:1008700007D068960001B36BB86BB96BBA6BF7D74A
:100880000001010ECA6FCB6FCC6BCD6BC06BDF6A02
:10089000020EDF5C11E2EA6ADF345CEC0AF0EA2265
:1008A000EE6AED6AEA6ADF3463EC0AF0EA22EE6A85
:1008B000ED6A9AEC09F0ECD70001080EAB6F040E5C
:1008C000AC6F160E706E0401200E026F040E036FE3
:1008D000080E016F840E006F0001A16BA06BE55242
:1008E00064EF09F059EC0AF00001A0510BE16D6AC8
:1008F000696AF1EC09F06DB602D06D86FCD7000193
:10090000010EA06FA00508E16DBA06D0686A696A99
:1009100069806988020EA06F6850040B05E0695079
:10092000040B02E0689497D86DB244D06850010B74
:1009300008E06950010B05E085DF0001040EA06F9F
:1009400068906850100B05E06950100B02E078D8F1
:10095000689868AC0FD069AC05D0F8EC09F0730E5C
:1009600051EC09F0689C0001C85101E0C807C8516A
:1009700001E11EDA6850200B04E06950200B01E011
:100980004CD86850020B0BE06950020B08E0F8EC01
:1009900009F0E6687F0EE66E6AEC0AF06A6A040EF9
:1009A0000001E76EA019E8AE02D0E73402D0E750AC
:1009B000A05D02E2A19A2ED069A62BD0DF6A040EB8
:1009C000DF5C27E268A625D06CCFC1F00001C151E1
:1009D000780BE842E842E842C26F6896C1B504D09D
:1009E000C25171EC0AF003D0C25176EC0AF0EA224F
:1009F000EF70C25102E13DD80AD0000EE66EE66A01
:100A0000C10EE66E000EE66E720E51EC09F0DF2AA2
:100A1000D6D7A19AE55264EF09F070A00FD070EC20
:100A200009F0EF50800809E15AEC09F0EF50840812
:100A300004E170EC09F08C0EEF6E7090689A120071
:100A4000698468986D820001010EC06FC0EC09F0E6
:100A5000750E51EF09F00001C06BC0EC09F0740E87
:100A600051EC09F06D92699468A402D06894FCD7A7
:100A7000120059EC0AF000012D0EC86FFD0EC115D1
:100A800040E17E0EC115E8407F0B040DF3CFA3F0CB
:100A9000F4CFA4F0000EA327040EA423A3C0A5F056
:100AA000A4C0A6F0A57570EC09F0EF503C0BE8422D
:100AB000E8420D0824E1DF6A080EDF5C1AE270EC00
:100AC00009F0020EE926000EADEC09F0EF50E66EDB
:100AD000DF50EA6A200FE96E040EEA22E552E75081
:100AE000EF6E70EC09F085EC0AF0EE2AEF22DF2AB7
:100AF000E3D770EC09F025EC0AF00AD807D025D826
:100B000005D0FD0EC115040801E12ED8E552DCD355
:100B10000001AF6BC96BCC6BCD6BC36BB06BCADB29
:100B2000EF9EAB75C7DBEF9EAB7514EC0AF0EF9E42
:100B3000B36BB46BB56BB86BB96BBA6B50D8C0EC18
:100B400009F0030EAEDB92EF07F0020E0001B05D7C
:100B500002E1FEEF07F0B06BC35104E199DB8C0EAC
:100B6000EF6E1200C36B120059EC0AF0A3DBEF50DA
:100B7000400B01E0010EDF6E0001AB75080EA05DB9
:100B800008E122C46EFF6E5002E0100E01D0040E88
:100B9000A06FB00513E18EDBA8DBF1D9020E0001D6
:100BA000AF5D03E187DB840E07D0DF5003E182DB1A
:100BB000C80E02D07FDB880EEF6E0FD0B8AF0CD01E
:100BC000BB51BC1107E005D0BCC0FAFF0001BB510E
:100BD000F96EFADF0001B89FB06BE55275D30401DE
:100BE0002051600BE842E842E842E842E84200094E
:100BF00001E0120021510C0A45E00B0A3FE00C0A0B
:100C000031E0010A22E00B0A1EE0020A1CE0030A9E
:100C100018E0080A10E0010A0CE00F0A08E0030AD5
:100C200001E012000001B38F080EA06F12001AEF4E
:100C300007F062EF08F00001A10EB16F000EB26F75
:100C40000CD057EF07F043EF06F024510001B16FCD
:100C5000B26BA20EB127000EB223B381010EB46FA6
:100C6000B38F12000001B38F04012451EA6AA20F6E
:100C7000E96E000EEA2222C4EFFF120081DB020EB1
:100C800051EF09F012001BDB050EE12604012205DD
:100C900010E120511F0B00090CE10001B38F030E7E
:100CA0000401215D04E10001010EBF6F02D00001CB
:100CB000BF6B0401225101E074D020511F0B0208C8
:100CC00070E124510F0B00096CE024510F0B010857
:100CD00068E3200E0001A05D64E1B38F040124BF2E
:100CE00004D0CEDB53DB58DB03D0CFDB4FDB58DB4C
:100CF000EA22020EEFCFDBFF82DB010B03E1000EE5
:100D0000DF9401D0DF8424BF02D0BADB01D0BDDB89
:100D1000EA22DECFEEFFDDCFEDFF030E215D0CE119
:100D2000B9DB07E024BF02D037DB01D039DBEA2290
:100D3000EF82840EEFDB35D0DF74ACDB06E0B5DA92
:100D4000EF9EB3DAEF8C8BDB02D0AFDAEF8CDF747F
:100D500056DB020B02E19EDB0DE0040124BF02D052
:100D60001BDB01D01DDBEA22EF923B0E156EC3DBCD
:100D700076DB02D03B0EBFDB040124510F0B166A59
:100D8000700F156E0F0E1622030E15C0DBFF040E3A
:100D900016C0DBFF030EDBCFE9FF040EDBCFEAFF5B
:100DA000EF90050EE15C02E2E16AE552E16E8CD261
:100DB0000001CA5121E1010ECA6FCB511DE1010EA4
:100DC000CB6F020EB05D07E175DAEE52EF6A72DAB0
:100DD000C80EEF6E1200B0050FE1C36B81DAEE5260
:100DE000080EEF6E7DDA31DB7BDA840EEF6E010EDA
:100DF000C36F4EDA800EEF6E12000001CC6BCD6B2C
:100E0000020EB05D04E17BDB70DA0EDB10D0B45172
:100E10000401265D0001B5510401275904E226C4EE
:100E2000B4F027C4B5F0ABD845DA5FDA43DAC80EC0
:100E3000EF6E1200800E0401205D38E10001C00E4B
:100E4000B36F04012351030A1AE0010A09E0030AFF
:100E50002BE10001140EB16F1D0EB26F120E1ED0E9
:100E6000DCDABE0EF6261D0EADDA020E0001CEDA79
:100E7000F5CFB4F0030ECADAF5CFB5F01200030EC9
:100E8000225D0FE2CADAC00EF6261D0E9BDAB1C053
:100E9000F6FFB2C0F7FF0800F5500001B46FB56B64
:100EA00012000001B36B12000001B36B1200D3DA21
:100EB0000401286B296B20511F0B020A11E0030A61
:100EC0000CE0010A1EE10001B38F0401288100013A
:100ED000BF0517E10401288314D00001B38F11D09E
:100EE0000001B38F040124BF02D0CADA01D0CDDAE9
:100EF0004DDAD0DA06E0D9D9EF50040B02E0010E4A
:100F0000286F0001B3AF07D0280EB16F040EB26F87
:100F1000B381020EB46F020EE15C02E2E16AE552B7
:100F2000E16ED2D16D980001B3BF0DD0B8AF09D03A
:100F3000020EB06FCD5101E160DF0001CB6BCA6BD7
:100F4000120039EF0AF0040120AF0DD00001010EAC
:100F5000B06FCC5101E151DF0001CB6BCA6BC951BD
:100F60000DE1D8EF06F00001020EB06F91D9840EAA
:100F7000EF6ECB6BCA6BC95101E11ADF120099DA2F
:100F8000080EDF6E0001B45D000EB5590AE2B4C070
:100F9000DFFFAF5102E1010E03D0AF0502E1020E07
:100FA000AF6FDF50166AE850B45DB46F1650B55994
:100FB000B56F80D9EE52DFCFEFFF280EBD6F040E64
:100FC000BE6FB3B10DD0DF5017E0B1C0F6FFB2C0B5
:100FD000F7FFB12B000EB2230800F550C4D9F3D7A8
:100FE000DF500AE0B1C0E9FFB2C0EAFFB12B000E4A
:100FF000B223EF50B8D9F4D7E55266D12CDA70D9C4
:10100000EE52EFCFDFFFDFCF15F015500001B95DD5
:10101000000EBA5902E2B9C0DFFFDF50156E166A42
:10102000E850B95DB96F1650BA59BA6F010EDB6A54
:10103000DF50F36E010EDBCFF4FFF350F45C16E2E9
:10104000010EDB50EA6A280FE96E040EEA22EF5027
:10105000E66EB6C0E9FFB7C0EAFFB62B000EB723B5
:10106000E552E750EF6E010EDB2AE2D7000ED88082
:10107000B955000EBA550DE242DA37D931D9EF50E1
:10108000400B03E1D1D9C80E02D0CED9880EEF6E45
:1010900012D0FED8840EEF6EBB51BC1107E005D014
:1010A000BCC0FAFF0001BB51F96EFADF0001B89F26
:1010B000C95101E17DDE020EE15C02E2E16AE55226
:1010C000E16E02D1F6D90001B38F3ED9DF6A72D941
:1010D00002E220D9FCD76D8CDF6A020EDF5C02E2EF
:1010E00029D9FBD7010EE66EE66AE66AA20EE66E25
:1010F000000ED7D96D9C0001080EAB6F040EAC6FCB
:10110000000EA36F040EA46FA3C0A5F0A66F22C4A7
:10111000A1F0A15102E1100E0BD0010EE66EE66ABD
:10112000A10EE66E000EE66E010EBBD80001200E89
:10113000A06FE552C9D08FD9000EDE6E040EDD6EB1
:10114000DAD8040DF4CF16F0D9CFE9FFDACFEAFFF1
:10115000F350EE261650ED22A8D8EF9EFD0EDB5080
:1011600002E1D3D801D098D8EA22DECFEEFFDDCF5E
:10117000EDFF9BD8EF9C99D8040EE926000EEA22D9
:10118000EF8C020EE15C02E2E16AE552E16E9CD076
:1011900062D9FD0EDBA402D0E66A1CD9FD0EDBA2EB
:1011A00003D0010EE66E16D9FE0EDB50166A700FE4
:1011B000156E0F0EF9D879D8FD0EDBCFEFFF020EBA
:1011C000E15C02E2E16AE552E16E7ED044D9FE0EB6
:1011D000DB5002E14ED905D08ED82BD98CD8010F27
:1011E00028D9020EE15C02E2E16AE552E16E6CD0C0
:1011F00032D9FD0EDB5002E04FD801D086D8C6D8D8
:10120000D9CFE9FFDACFEAFFEE50ED1003E1F36A40
:10121000F46A21D04AD879D9FB0EDBCFEEFFFC0E61
:10122000DBCFEDFF42D8EE52FA0EDBCFEFFF400EE0
:1012300062D9880E6FD9FD0EDB5002E02DD801D0A7
:1012400064D8EA22EF74DECF15F0DDCF16F015C0BA
:10125000F3FF16C0F4FF020EE15C02E2E16AE55220
:10126000E16E32D02CD86DA812D018D9400EEE16EF
:10127000EE6AEE6AEE6A12D9EE7C0ED8EA22EF74BC
:10128000400E156E0BD91550EF1608D9EF7C1CD007
:1012900036D9DBD814EF0AF0FE0EEA6ADB345CEFD5
:1012A0000AF0E66EE66A6AEF0AF0DECFE9FFDDCF0C
:1012B000EAFF1200ABC0E9FFACC0EAFF1200D9CFD1
:1012C000E6FFE1CFD9FF1200E552E7CFD9FF1200C8
:1012D00024510F0BE96EEA6AD890E936EA3612001B
:1012E000A3C0E9FFA4C0EAFF12000FD9280EEE6EDA
:1012F000040EED6E1200FD0EDB50E824176EFE0E9C
:10130000DB50040DF35017241200FE0EEA6ADB34A2
:1013100063EF0AF0DF50040DF3CFE9FFF4CFEAFFEB
:10132000000EE926040EEA22EE6AEE6AEE6AEE6A22
:10133000DF2A1200DF50DAD8EA22EF6ADF50D1D874
:10134000EA22EF6ADF2A1200010EE66EE66AE66A1A
:10135000710EE66E0F0E51EF0AF0EA22EE50EFCF5B
:10136000EAFFE96E1200E66EBDC0E9FFBEC0EAFF0B
:10137000BD2B000EBE23E552E750EF6EDF061200D4
:10138000000EE66EE66AE66EE66A1200EA22EECF2C
:10139000DEFFEDCFDDFF120024510F0B71EF0AF0DD
:1013A00024510F0B76EF0AF0162215C0DEFF16C08F
:1013B000DDFF1200DF50156E166A080E155C000E78
:1013C00016581200F7220900F5CFB1F00A00F5CF48
:1013D000B2F01200FE0EDBCFE6FFADDEE552E552C5
:1013E0001200160E6F6E9F0E6B6E7B0E696E1200F2
:1013F000010EE66EE66A000EE66EE66A1200D9504D
:10140000020FE96EDACFEAFFEF501200F76AB1255A
:10141000F66EB251F722080012002251F66EF76AFA
:10142000D890F636F7361200A5C0E9FFA6C0EAFF4D
:101430001200040DF3CF15F0F4CF16F0000E1526B0
:10144000040EB2DF840E8AEF0AF05FD8200EEE6E33
:10145000040EED6E120033DF020EE1261200020EC2
:10146000E66EE66ADECFE6FFDDCFE6FF050E51EF62
:1014700009F00EDF8C0EEF6E1DDF840EEF6E120092
:1014800027DFA70EE926000E120022DFAB0EE926A9
:10149000000E12000ADFEF50800B1200FDDEADEFF0
:1014A00009F0E66EADEC0FF0156E050EE15E15501D
:1014B000120005DFE6521200FE0BEA36E96EAB0EB3
:1014C000E926000E1200FE0BEA36E96EA70EE926A9
:1014D000000E120000EC0DF0156E060EE15E1550C8
:1014E0001200EA6AC60FE96E000E1200EA6AC40F23
:1014F000E96E000E1200D9DEE850EF16120094DFFC
:10150000EE52080EEF6E14EF0AF0020EE926000EFE
:0C151000EA221200CADEE850EF121200BE
:04151C00FC0E8B1620
:101520009416050EE66EF4EC0EF0E5520E6A00011C
:101530000F6B106B116A136A146A1200FBD9E65222
:101540000E5014E0A00E0E5C0AE1C2B2FED7C350EA
:10155000DF6EDFD9C450DF6EDCD9C28207D00FC086
:10156000E9FF10C0EAFFEFCFDFFFD3D9E552E7D1A3
:10157000E1D9E6521350145C0FE01450EA6A000FF0
:10158000E96E010EEA22EFCFDFFF142ADF50166A60
:10159000F36E16C0F4FF02D0F368F468E552CFD1C1
:1015A0000001250E616F010E626F636F646B01C5F0
:1015B00065F0116E1200D9CFE6FFE1CFD9FF050E1D
:1015C000E126010E01C5DBFF010EDB50C00BE76E0B
:1015D000020EE7CFDBFF010EDB503F0BE76E010E83
:1015E000E7CFDBFF030E02C5DBFF040E03C5DBFF05
:1015F000020EDBAE16D002C5F6FF03C5F7FFF86A90
:10160000DF6A010EDB50DF5C0BE20900DF50EA6AA3
:10161000600FE96E000EEA22F5CFEFFFDF2AF1D767
:101620001BD0DF6A010EDB50DF5C16E2030EDBCF5E
:10163000E9FFDB2A040EDBCFEAFF01E3DB2AEF50F0
:10164000E66EDF50EA6A600FE96E000EEA22E552AC
:10165000E750EF6EDF2AE6D7010E116E050EE15C52
:1016600002E2E16AE552E16EE552E7CFD9FF1200EE
:1016700061D9040EE126010E01C5DBFF020E02C591
:10168000DBFF030E03C5DBFF050105510AE04BD963
:10169000EF5005150411E66E46D9E552E750EF6E9E
:1016A00003D041D904C5EFFF040EE15C02E2E16A18
:1016B000E552E16E44D16D6A696A1200D9CFE6FF46
:1016C000E1CFD9FF020EE12605C5DFFFDF500DE0B7
:1016D000F29CF29E0A0EE66E76EC0EF0E552EBDF1F
:1016E0000A0EE66E76EC0EF0E552FB6A03C5FAFFD1
:1016F000010E02C5DBFF0153F96E020EE15C02E24E
:10170000E16AE552E16EE552E7CFD9FF120012C05F
:1017100060F0DEC061F03F0E0001DE15E66EE66AA5
:10172000CE0EE66E000EE66E620EE66E000EE66E01
:1017300082EC0FF0156E060EE15E15500001DE6BB7
:10174000010E116E12000001DE6B0001700E126FAF
:1017500002C5E6FF03C5E6FF55EC0DF0E552E55284
:101760000001710E126F1200E5D8E65201C5DFFFCD
:10177000DF5005E0DFCFE6FF76EC0EF0E552E552F4
:10178000DED0D8D8040EE126010EDB6A0001AA0ED5
:10179000606FDF6A3C0EDF5C1FE2EADE020EF3CF11
:1017A000DBFF030EF4CFDBFF020EDBCF15F0030EE1
:1017B000DBCF16F00001800E16140EE1020EDF24BE
:1017C000EA6A600FE96E000EEA22020EDBCFEFFF3D
:1017D000010EDB2ADF2ADED7010EDBCF61F0116EAE
:1017E000040EE15C02E2E16AE552E16EA8D001C5B7
:1017F0000EF002C50FF003C510F0A00E0E5C06E15E
:101800009280010EC26E3C0EC06EC282C1EF0BF020
:1018100001C50BF002C50CF003C50DF0120012005B
:10182000115042E10001EA51EB1102E1000E03D038
:101830009CD801E0010E000937E1400EE66E050E6E
:10184000E66E000EE66E050E7ED8400EE66E050EC4
:10185000E66EE66A010E81D8F3CFEAF0F4CFEBF042
:1018600000C560F0050E0501005D02E1A4DE1CD09C
:10187000040E005D02E1FCDE17D0060E005D02E101
:101880001DDF12D0000502E18BDE0ED00D0E005DD3
:1018900002E13DDF09D00C0E005D02E154DF04D00F
:1018A000070E005D01E1A3DF115032E00001EC51B1
:1018B000ED1102E1000E08D0ECC0E9FFEDC0EAFF37
:1018C000EF50800B01E0010E000922E1600EE66E90
:1018D000000EE66E800EE66E050E35D8800EE66EC2
:1018E000050EE66E010EE66E38D8F3CFECF0F4CFBD
:1018F000EDF0116A0E500CE00001EA51EB1102E12B
:10190000000E03D032D801E0010E000901E039DFFA
:1019100012001350EA6A000FE96E010EEA22DFCFCF
:10192000EFFF132A1200020EDBCFE9FF030EDBCF1D
:10193000EAFF1200D9CFE6FFE1CFD9FF1200E5524E
:10194000E7CFD9FF1200E66E27EC0EF0E552E55224
:10195000E552E552400EE66E1200E66EF8EC08F035
:10196000156E050EE15E15501200EAC0E9FFEBC0EE
:08197000EAFFEF50800B1200AA
:0819780012001200120012001F
:10198000120012001E0EE66E010EE66EC8EC08F0A4
:10199000E552E552400EE66E400EE66E050EE66E2E
:1019A000E66A010EE66EF8EC08F0156E050EE15ED3
:1019B0001550F3CFEAF0F4CFEBF012000001BF05B1
:1019C0001EE10001C0051BE1D8DF6D920001C06B74
:1019D0000001100EEE6F0E0EEF6FEE07000EEF5BC4
:1019E000EE51EF11FAE16D84080EEE6F070EEF6F06
:1019F000EE07000EEF5BEE51EF11FAE16D9412006D
:101A0000D9CFE6FFE1CFD9FFFD0EDBCF06F0FE0E0A
:101A1000DBCF07F0050E061801E1075036E0E86855
:101A2000061802E17F0E07182FE0030E061801E1E9
:101A3000075028E0020E061801E1075021E0010ED0
:101A4000061801E107501AE0740E061801E107506C
:101A500013E0750E061801E107500CE0730E06182E
:101A600001E1075005E0720E06180FE107500DD096
:101A700085DF0BD081DF09D080DF07D083DF05D081
:101A800080DF03D07DDF01D07ADF010EE552E7CFA2
:041A9000D9FF120068
:0C1A94000001F02B000EF123F151080BB3
:101AA00002E08B8012008B901200D9CFE6FFE1CFCD
:101AB000D9FF040EE126020EDB6A030EDB6A020E7A
:101AC000DBCF15F0030EDBCF16F0080E155C000E11
:101AD00016582EE251D8100E156E080E3FD8DE6A49
:101AE000DD6ADECF15F0DDCF16F0320E155C000E8C
:101AF000165813E241D8DECF15F0DDCF16F0200ED8
:101B00001524E66E0BEC10F0E552E552E552C2DF0B
:101B1000DF2A010EE6E3DB2AE4D72ED80E0E156E7F
:101B2000080E1CD8020EDB2A030EC9E3DB2AC7D736
:101B3000D950FD0FE96EFF0EDA20EA6EEE50ED107F
:101B400002E08B7001D08B72040EE15C02E2E16A6C
:101B5000E552E16EE552E7CFD9FF1200166E176A23
:101B600015C0E6FFE66E17C0E6FFC7EC0FF0186E73
:101B7000050EE15E18501200F2C0E6FFF3C0E6FF6A
:021B8000120051
:0E1B8200DACFE4FFE652E552E5CFDAFF1100BC
:101B9000D8CFE4FFE0CFE4FFE46EDACFE4FFE2CF9A
:101BA000DAFFE9CFE4FFEACFE4FF00EE15F0040E20
:101BB000E80403E3EECFE4FFFBD7E65215D8E55285
:101BC00000EE18F0040EE80403E3E5CFEDFFFBD7C9
:101BD000E5CFEAFFE5CFE9FFE5CFDAFFE550E5CF56
:101BE000E0FFE5CFD8FF10009EA203D09EEC0AF0E4
:101BF0009E9212000001F42B000EF523F551800B8C
:101C000002E08B8212008B9212000F0EC16E93685D
:101C100094680001EA6BEB6B0001EC6BED6B22EC5E
:101C200004F08EEC0AF0040EE66EF20EE66EE3ECC3
:101C30000EF0E552E552D08EF28CF28E9F92120099
:0E1C400072EC04F010EF0CF0E0DFFADFFED7DC
:021C4E00D9CFEC
:101C5000E6FFDACFE6FFFA0EE3CFD9FFFB0EE3CFC4
:101C6000DAFFFC0EE3CFE9FFFD0EE3CFEAFF040E3F
:101C7000DECFEEFFDECFEEFFDECFEEFFDECFEEFFFC
:101C8000DECFEEFFDECFEEFFDECFEEFFDECFEEFFEC
:101C9000DECFEEFFDECFEEFFDECFEEFFDECFEEFFDC
:101CA000DECFEEFFDECFEEFFDECFEEFFDECFEEFFCC
:101CB000E82EDED7FF0EE3CFDAFFE550FF0EE3CFCD
:101CC000D9FFE5501200D9CFE6FFE1CFD9FF0000E0
:101CD0000000000000000000000000000000FE0EF8
:101CE000DB06F5E1E552E7CFD9FF1200D9CFE6FFD9
:101CF000E1CFD9FF0AD809D808D807D8FE0EDB06ED
:101D0000F9E1E552E7CFD9FF1200FA0EE66EDBDF0C
:041D1000E552120086
:0C1D14001201000200000008D8040402C4
:101D200000000102000109022000010100C0320987
:101D300004000002FFFFFF00070501024000010749
:101D40000581024000010403090434034D006900C9
:101D5000630072006F00630068006900700020007B
:101D600054006500630068006E006F006C006F0037
:101D700067007900200049006E0063002E004003D8
:101D80004D006900630072006F0063006800690025
:101D9000700020004C006900620075007300620052
:101DA00020004500780061006D0070006C00650047
:101DB0002000440065007600690063006500261D70
:061DC000461D4A1D7E1DB8
:0A1DC600D9CFE6FFE1CFD9FFFE0EF2
:101DD000DBCFE6FF7CEC10F0E552FD0EDB50CB6E66
:101DE000E552E7CFD9FF1200D9CFE6FFE1CFD9FF07
:101DF000FE0EDB5002E1010E0AD0FE0EDB0402E112
:101E0000030E05D0FE0EDB50020804E1070EE66E5D
:101E1000E66A22D0FE0EDB50030802E1030E05D075
:101E2000FE0EDB50040804E1070EE66E010E13D02F
:101E3000FE0EDB50050803E1030EE66E0BD0060E26
:101E4000F36EFE0EDBCFF4FFF350F45C08E3FE0EFE
:101E5000DBCFE6FF020EE66EB6DFE552E552E55255
:061E6000E7CFD9FF1200DC
:0A1E66001E0EF66E080EF76E000E59
:101E7000F86E00010900F550E46F0900F550E56FB8
:101E800003E1E46701D03DD00900F550DF6F0900A0
:101E9000F550E06F0900F550E16F09000900F550B9
:101EA000E96E0900F550EA6E090009000900F550D5
:101EB000E26F0900F550E36F09000900F6CFE6F084
:101EC000F7CFE7F0F8CFE8F0DFC0F6FFE0C0F7FFAC
:101ED000E1C0F8FF0001E25302E1E35307E009002B
:101EE000F550EE6EE207F8E2E307F9D7E6C0F6FF39
:101EF000E7C0F7FFE8C0F8FF0001E407000EE55B6C
:041F0000BFD7120035
:0C1F0400D9CFE6FFDACFE6FFFA0EE3CFFC
:101F1000D9FFFB0EE3CFDAFFFC0EE3CFE9FFFD0EA6
:101F2000E3CFEAFFE9CFF3FFEACFF4FFF80EE35087
:101F300003E1F90EE35008E0F80EE30602E2F90EC1
:101F4000E306DECFEEFFF2D7FF0EE3CFDAFFE55276
:101F5000FF0EE3CFD9FFE5521200FE0EE3CFE9FFFB
:101F6000FF0EE3CFEAFFE9CFF3FFEACFF4FFFB0E6A
:101F7000E35003E1FC0EE35009E0FB0EE30602E24E
:0E1F8000FC0EE306FD0EE350EE6EF1D71200EC
:021F8E00D9CFA9
:101F9000E6FFDACFE6FFE1CFD9FFE2CFDAFFE65284
:101FA000FB0EDBCFF6FFFC0EDBCFF7FFFD0EDBCF2A
:101FB000F8FF0800F550DF6EDF5024E0F90EDBCFAC
:101FC000E6FFFA0EDBCFE6FFDFCFE6FF0BEC10F00B
:101FD000E552E552E552F3CF15F0F4CF16F00001CB
:101FE000F31C05E1161C03E1F368F4680DD0D95029
:101FF000FB0FE96EFF0EDA20EA6EEE2A000EEE22EB
:10200000EE22CED7F36AF46AE552E552E5CFDAFF65
:06201000E7CFD9FF12002A
:0A201600D9CFE6FFDACFE6FFE1CFF5
:10202000D9FFE2CFDAFFFB0EDBCF15F0FC0EDBCFE2
:1020300016F00001800E16141AE1FB0EDBCFE9FF4B
:10204000FC0EDBCFEAFFEECFF3FFEDCFF4FFEE2A7D
:10205000000EEF22F3CFE9FFF4CFEAFFFD0EDBCF56
:10206000EFFFEF50166AF36E16C0F4FF10D0FB0EB0
:10207000DB50FE0806E1FD0EDBCFE6FFB5EC10F00D
:1020800005D0FD0EDBCFE6FF4DEC10F0E552E5523A
:0A209000E5CFDAFFE7CFD9FF120019
:06209A00D9CFE6FFE1CF03
:1020A000D9FFE652DF6AFE0EDB500A0802E1010E9C
:1020B000DF6E100E0001DE5D02E3010EDF6EDF5009
:1020C00006E00001DE5103E020EC0EF0FAD7100E1E
:1020D000DE5D0AE2DE51DE2BEA6ACE0FE96E000E0B
:1020E000EA22FE0EDBCFEFFF010EF36EF46AE5523B
:0820F000E552E7CFD9FF120011
:0820F800D9CFE6FFDACFE6FFC5
:10210000E1CFD9FFE2CFDAFFFD0EDB50FB0BCA6E49
:10211000CC6A9E92FD0EDBAE02D09D8201D09D92D4
:0E212000CA84E552E5CFDAFFE7CFD9FF1200FF
:02212E00000EA1
:10213000F36E00EE00F0080E01D81200EA6002D043
:0E214000EE6AFCD7F350E9601200EE6AFCD79D
:02214E0013EE8E
:1021500000F023EE00F0F86A0A9C33EC0FF003EC79
:0A21600004F024EC0EF0FBD712008F
:06216A00FF0EE350ACBAC9
:1021700004D0AF6AAB8EAC8A949CACA2FED7AD6E95
:06218000F36EF46A120088
:02218600000057
:02218800FFFF57
:02218A00000053
:020000040030CA
:0100000024DB
:010001000EF0
:010002003FBE
:010003001EDE
:010005008179
:010006008178
:010008000FE8
:01000900C036
:01000A000FE6
:01000B00E014
:01000C000FE4
:01000D0040B2
:00000001FF
