:020000040000FA
:06000000DDEF13F0120019
:0600080004EF04F01200F9
:060018000CEF04F01200E1
:06080000DDEF13F0120011
:020806001200DE
:0608080079EF11F012006F
:02080E000A00DE
:0808100048656C6C6F203A0092
:0608180080EF11F0120058
:02081E000400D4
:10082000F72700001002000002000000F627000079
:100830001202000001000000F42700000E02000078
:1008400002000000F22700000C020000020000007D
:10085000D9CFE6FFE1CFD9FF000000000000000083
:100860000000000000000000FE0EDB06F5E1E5528E
:10087000E7CFD9FF1200BADBF7DBF6DBF5DBF4DB01
:10088000FE0EDB06F9E1B7D3B1DBFE0EDB5018E05C
:1008900057EC08F00B340FE20A50C808000E0B5456
:1008A0000AE257EC08F0C80E0A5E000E0B5A0A5016
:1008B000E66EE1DF04D0FE0EDBCFE6FFC9DFE552D6
:1008C0009AD378EC08F0DF6AFC0EDB50DF5C1AE2AA
:1008D000FD0EDB50010B02E08A8001D08A908A82F3
:1008E000D950FD0FE96EFF0EDA20EA6E010E0F0BF4
:1008F00006E0EC52D890ED32EF32E806FAE18A9247
:10090000DF2AE2D7020EE15C02E2E16AE552E16E23
:1009100072D36CDBE652DF6AFD0EDB04DF5C0BE2B8
:10092000FE0EDBA002D08A8001D08A908A8278DB1A
:100930008A92DF2AF1D7FE0EDBA002D08A8001D096
:100940008A908A82FC0EDB5005E0FC0EDBCFE6FFCE
:1009500092DFE552FE0E64DB8A92E5524CD346DB11
:10096000FE0EDB5002E0939001D0938044D33EDB37
:10097000FB0EDBCFE6FF040EE66EFE0E8BDBFC0EFD
:10098000DBCFE6FFFD0EDBCFE6FF74DB34D32EDBDF
:10099000E66A8DDB0E0E60DBE66AFD0EDB500A6E4A
:1009A0000B6AE8506E0E58DB26D3F80EE66EA4C034
:1009B000E6FF82DBF70EE66EA3C0E6FF7DDBF60EF8
:1009C000E66EA2C0E6FF5CEF08F092DB010EDB6A88
:1009D000040EE66E090EE66EE66A4CDB080EE66E65
:1009E000000EE66EE66A46DBE66AB9DFE552080EFF
:1009F000DF6E8A82010E14DB81B0DB8E8A92DF0605
:100A0000F8E1E66EACDFE552010EDB500A6E020E35
:100A1000E15C02E2E16AE552E16E0A50ECD2E6DA0C
:100A2000080EE126A1C0DFFF010EA5C0DBFF020E0C
:100A3000A6C0DBFFD950040F7BDB030EDB6ADF505F
:100A4000F36E030EDBCFF4FFF350F45C26E2D950D3
:100A5000040F29DBEECFF3FFEDCFF4FF020EEE26FD
:100A6000000EEF22F3CFE9FFF4CFEAFF060EEECF40
:100A7000DBFF070EEDCFDBFF020EDBCFE6FF040E40
:100A8000E66E010E07DB060EDBCFE6FF070EDBCFBF
:100A9000E6FFF0DA030EDB2AD2D7080EE15C02E2B1
:100AA000E16AE552E16EA7D223DB7FDF010EA1C030
:100AB000DBFFDF6A010EDB50DF5C0DE286DFE66EF6
:100AC000DF50EA6A600FE96E000EEA22E552E75055
:100AD000EF6EDF2AEFD7020EE15C02E2E16AE55237
:100AE000E16E89D283DA070EE126A1C0DFFF010E95
:100AF000A2C0DBFFD950020FD6DAA30EEE6E000EB5
:100B0000ED6ED950040F1ADBDF504DE0020EDBCF43
:100B1000E9FFDB2A030EDBCFEAFF01E3DB2A060E47
:100B2000EFCFDBFFDBB68B8CDBA68B9CDBB48B8E35
:100B3000DBA48B9EDBB28A80DBA28A90DBB08A8248
:100B4000DBA08A92DBBE948CDBAE949CDBBC948EE3
:100B5000DBAC949EDBBA9380DBAA9390DBB89382E4
:100B6000DBA89392150E0001A05D16E1060EDB6A6C
:100B700082BCDB8682BEDB8481B0DB8281B2DB801B
:100B8000040EDBCFE9FFDB2A050EDBCFEAFF01E332
:100B9000DB2A060EDBCFEFFF010EDBCFE6FF74DEB4
:100BA000E552DF06B1D7070EE15C02E2E16AE552E9
:100BB000E16E21D21BDAE652DF6AFD0EDB50DF5C0C
:100BC0000AE28A92FE0EDBB08A80DBA08A9028DAE5
:100BD0008A82DF2AF2D7E5520ED208DA040E96D2C4
:100BE00005DA080E93D2BEDA6BDAFB0EDBCFEEFF2E
:100BF000FC0EDBCFEEFFFD0EDBCFEEFFFE0EDBCFFC
:100C0000EEFFE66AEADFE552DFCFE6FFE9DFE55215
:100C1000010EDBCFE6FFE4DFE552020EDBCFE6FF9D
:100C2000DFDFE5528A92040EE15C02E2E16AE552FE
:100C3000E16EE1D1E66AE66AE66A70D2FBDF1AEF9E
:100C400006F0E66A020EE66E040EB6EF08F08ADAE7
:100C5000A4C0DFFF010EDB6A020EDB6A030EDB6A53
:100C6000040E0E6E2DDAE8501F0BEECF0AF0EECF19
:100C70000BF0EECF0CF0EECF0DF007E0D8900A3677
:100C80000B360C360D36E806F9E10C8A27DA900EA1
:100C9000E66E010EE66E880E9DD9A2C0DFFF010E42
:100CA000A3C0DBFFFE0EDBCF0AF00B6A0C6A0C8AD6
:100CB0000D6A0CBE0D6804DAEECF0EF0EECF0FF029
:100CC000EECF10F0EFCF11F0040E1F0B02E0AFD902
:100CD000FEE182D9040EE15C02E2E16AE552E16ED6
:100CE0008AD1A8DFAEDF060EE66EB1DFE552470E11
:100CF000E66E780EE66E200EB6EF08F09BDFA1DF01
:100D00001A0EE66EE66A240E65D90A0EE66E3B0EF2
:100D1000E66E880E5FD9070EE66E99DFE552120087
:100D20008DDF610EE66EE70EE66EA80EB9EF08F0F5
:100D3000DFD9DF6A8A92010EDB6A080EF36E010EBC
:100D4000DBCFF4FFF350F45C09E28A82DF90DF42EC
:100D500081B0DF8E8A92010EDB2AEFD7DF500A6E58
:100D6000020EE15C02E2E16AE552E16E0A5043D113
:100D7000BFD9DEDFDF6EDCDFE76E010EE7CFDBFF22
:100D80007ED902E2E16AE552E16E35D1B1D9010EB8
:100D9000E66E23DFE552E66A23DFE5528A9293800E
:100DA000E7DFF3CFDEFFF4CFDDFF939043DF67D9BA
:100DB00002E2E16AE552E16E1ED19AD9B1DF41DF6C
:100DC000E66A3B0EE66E800E05D9200EE66E3C0EFE
:100DD000E66E880ECBD9DADFF3CFDEFFF4CFDDFF8E
:100DE000010EDB50800BEBE1020EE15C02E2E16AF6
:100DF000E552E16E00D1FAD8050EE126010EA5C03C
:100E0000DBFF020EA1C0DBFFD950030F91D9010E09
:100E1000DB5001E173DFDF6A020EDB50DF5C30E2A2
:100E2000E66A030EE66EEB0ED5D80A6A4ED98CD967
:100E300092D91F0B02E0FBD8FEE1CED8010E0A6E5C
:100E400044D9020EDCD802E0F2D8FEE1C5D8020E89
:100E50000A6E3BD9040ED3D802E0E9D8FEE1BCD833
:100E6000B60EE66E0B0E48D9DB0E46D9EB0E44D912
:100E70001B0EE66EBB0E7DD9D950030F52D9CCD7CD
:100E8000010EDB50020802E198DFDBDE050EE15CBB
:100E900002E2E16AE552E16EAED064D9010EA1C072
:100EA000DBFFD950020F4AD91CDFDF6A010EDB508D
:100EB000DF5C27E2960EE66E0B0E23D9020EDBCF27
:100EC000E9FF030EDBCFEAFFF3CFEEFF0BC0EDFF30
:100ED000B60EE66EDB0EE66EBA0E4BD9D60EE66E99
:100EE000D30E0FD9020EE76EA9D8B60EE66E0B0E22
:100EF00008D9040EE76E020EA1D8D950020F11D9FD
:100F0000D5D7040EE15C02E2E16AE552E16E73D0EE
:100F1000120E0001A05D02E182DD1BD0100EA05D6B
:100F200002E143DD16D0110EA05D02E1BDDD11D05E
:100F3000140EA05D03E0150EA05D02E1D3DD09D023
:100F4000160EA05D02E157DF04D0170EA05D01E18F
:100F5000A4DF010E0001A015066E1200D9CFE6FF36
:100F6000DACFE6FFFA0EE3CFD9FFFB0EE3CFDAFFCD
:100F7000FC0EE3CFE9FFFD0EE3CFEAFF040EDECF68
:100F8000EEFFDECFEEFFDECFEEFFDECFEEFFDECFF9
:100F9000EEFFDECFEEFFDECFEEFFDECFEEFFDECFE9
:100FA000EEFFDECFEEFFDECFEEFFDECFEEFFDECFD9
:100FB000EEFFDECFEEFFDECFEEFFDECFEEFFE82E60
:100FC000DED7FF0EE3CFDAFFE550FF0EE3CFD9FF08
:100FD000E5501200E66EA2D00E500A120F500B120E
:100FE00010500C1211500D126EEF08F0D9CFE6FF21
:100FF000E1CFD9FF1200E552E7CFD9FF1200E76E2B
:10100000A3D8E750E926000EEA22A5D8040E1F0B4C
:10101000120014DEBBDEF3CF0AF0F4CF0BF01200A7
:10102000DBCFF3FFF390F342F3CFDBFF1200D89056
:101030000E360F3610361136E8061200DBCFE9FF08
:10104000030EDBCFEAFFE750E926000EEA22F3CFDA
:10105000EEFF0BC0EDFF12000B120AC0E6FF0BC043
:10106000E6FFE66A84DC88D0FA0EE66E28EC04F02F
:10107000E552120026DCE552E552E5521200DECFC1
:101080000AF0DDCF0BF00AC0F3FF0BC0F4FF020E35
:10109000E15C1200DBCFE6FF3CDCE552E552E552B5
:1010A000100EE66E1200E96EDACFEAFF1200FE0EB5
:1010B000DB500A6E0B6A12006ADCE552E552120040
:1010C000D9CFE9FFDACFEAFF12000B6A200E0C6ECF
:1010D0000D6A1200B3DDB60EE66E12000AC0E6FF1E
:1010E0000BC0E6FF0CC0E6FF0DC0E6FF7CDD44D080
:1010F0007DDF020EE1261200E66EBB0E6BDF6AEFAB
:1011000008F0E66EBA0E66DF09EF08F0E66EFE0E36
:10111000DBCFE6FF4FDDE552E5526DD7E66A63DDD2
:101120002BD0C1DF060EEE26000EED22DF2A1200C4
:10113000BADFA70EEE6E000EED6E1200B4DF600E89
:10114000EE6E000EED6E1200030EDBCFE9FF040E13
:10115000DBCFEAFF1200EECF0EF0EFCF0FF0106AF8
:10116000116A120043DF040EE126120033DF1AEF8A
:1011700006F030DF1EEF06F0E552E552E552E5528B
:0211800012005B
:0E118200DDEC0CF0020EDF6EFE0EDB50DF5CCB
:1011900002E2DF2AFAD7E552DBD312001200DDECBF
:1011A0000CF0DF6AFE0EDBBE8B8EDBAE8B9E8A827E
:1011B00081B0DF8E8A92DBBC8B8EDBAC8B9E8A8209
:1011C00081B0DF8C8A92DBBA8B8EDBAA8B9E8A82FF
:1011D00081B0DF8A8A92DBB88B8EDBA88B9E8A82F5
:1011E00081B0DF888A92DBB68B8EDBA68B9E8A82EB
:1011F00081B0DF868A92DBB48B8EDBA48B9E8A82E1
:1012000081B0DF848A92DBB28B8EDBA28B9E8A82D6
:1012100081B0DF828A92DBB08B8EDBA08B9E8A82CC
:1012200081A002D0000EDF808A92DF50E55290D379
:10123000D9CFE6FFE1CFD9FFE652DF6AFE0EDBBE73
:101240008B8EFE0EDBAE8B9E8A820000000081B08A
:10125000DF8E8A9200000000FE0EDBBC8B8EFE0E3D
:10126000DBAC8B9E8A820000000081B0DF8C8A920A
:1012700000000000FE0EDBBA8B8EFE0EDBAA8B9EFA
:101280008A820000000081B0DF8A8A92000000009C
:10129000FE0EDBB88B8EFE0EDBA88B9E8A820000D2
:1012A000000081B0DF888A9200000000FE0EDBB6ED
:1012B0008B8EFE0EDBA68B9E8A820000000081B022
:1012C000DF868A9200000000FE0EDBB48B8EFE0EDD
:1012D000DBA48B9E8A820000000081B0DF848A92AA
:1012E00000000000FE0EDBB28B8EFE0EDBA28B9E9A
:1012F0008A820000000081B0DF828A920000000034
:10130000FE0EDBB08B8EFE0EDBA08B9E8A82000071
:10131000000081A002D0000EDB808A920000000055
:10132000DF5000D0E552E552E7CFD9FF12000BDBCA
:10133000020EE1260201125105E1FE0EDBCFE6FFAF
:101340002EDF06D0120506E1FE0EDBCFE6FF70DFD2
:10135000E55222D08A92DF6A080EDF5C1BE2FE0EA5
:10136000DBBE8B8EDBAE8B9E010EDBCFE7FFDB504F
:10137000E726010E16DB81A002D0010EDB808A82F7
:10138000FE0EDBCFE7FFDB50E726FE0E0ADB8A927C
:10139000DF2AE2D7010EDB500A6E020EE15C02E2A8
:1013A000E16AE552E16E0A50D3D28B9C8A92949CFA
:1013B0009392949E9380E8DA8B8CE6DA8B9C1200F1
:1013C000948C9382948E8B9C8A928B9E12008A823C
:1013D000DBDA8A92C4EF0CF0B6DAFE0EDBCF12F243
:1013E000B7D2EBDADF6A040EDF5C0EE2DF50E76EA5
:1013F000FD0EDBCFE9FFFE0EDBCFEAFFE750E9266B
:10140000000EAADADF2AEFD7E552A2D29CDAA66A4A
:10141000FE0EDB50A96EA680A8509AD294DAFE0E7A
:10142000DB50A96EFD0EDB50A86E040EA66E550EA5
:10143000A76EAA0EA76EA682A6B2FED789D2FC0E10
:101440008B169416050EE66EFAEC11F0E552036A5F
:101450000001046B056B0001F06B066A086A096AFB
:101460001200ABDA035014E0A00E035C0AE1C2B232
:10147000FED7C350DF6E7EDAC450DF6E7BDAC282E5
:1014800007D004C0E9FF05C0EAFFEFCFDFFF72DA43
:10149000E5525ED292DA0850095C0FE00950EA6A20
:1014A000000FE96E010EEA22EFCFDFFF092ADF50BD
:1014B0000B6AF36E0BC0F4FF02D0F368F468E552D8
:1014C00047D20001250E616F010E626F636F646B7E
:1014D000A1C065F0066E1200D9CFE6FFE1CFD9FFBB
:1014E000060EE126010EA1C0DBFF010EDB50C00B92
:1014F000E76E020EE7CFDBFF010EDB503F0BE76E1E
:10150000010EE7CFDBFF030EA2C0DBFF040EA3C07A
:10151000DBFF020EDBAE16D0A2C0F6FFA3C0F7FFC2
:10152000F86ADF6A010EDB50DF5C0BE20900DF5076
:10153000EA6A600FE96E000EEA22F5CFEFFFDF2ABC
:10154000F1D73ED0020EDBAC20D00001A251E76EF5
:10155000050EE7CFDBFFDF6A010EDB50DF5C14E234
:10156000050EDBCFF3FFDB2AF350E66E4FDFE552CB
:10157000E66EDF50EA6A600FE96E000EEA22E5527D
:10158000E750EF6EDF2AE8D71BD0DF6A010EDB5091
:10159000DF5C16E2030EDBCFE9FFDB2A040EDBCFB4
:1015A000EAFF01E3DB2AEF50E66EDF50EA6A600FE4
:1015B000E96E000EEA22E552E750EF6EDF2AE6D729
:1015C000010E066E060EE15C02E2E16AE552E16E92
:1015D000E552E7CFD9FF1200B6D9050EE126010E7C
:1015E000A1C0DBFF020EA2C0DBFF030EA3C0DBFF26
:1015F000010EDBAC0ED00001A251E76E040EE7CF66
:10160000DBFFA4C0E6FFDBCFE6FF08DFE552E552D3
:1016100010D00001A5510AE0BDD9EF50A515A411C5
:10162000E66EB8D9E552E750EF6E03D0B3D9A4C047
:10163000EFFF050EE15C02E2E16AE552E16E88D15E
:101640006D6A696A1200D9CFE6FFE1CFD9FF020EB9
:10165000E126A5C0DFFFDF500DE0F29CF29E0A0EEE
:10166000E66E3BEC04F0E552EBDF0A0EE66E3BEC77
:1016700004F0E552FB6AA3C0FAFF010EA2C0DBFF33
:101680000153F96E020EE15C02E2E16AE552E16E9D
:10169000E552E7CFD9FF120007C060F0F0C061F05B
:1016A0003F0E0001F015E66EE66AE00EE66E000EF3
:1016B000E66E620EE66E000EE66E87EC13F00A6EC2
:1016C000060EE15E0A500001F06B010E066E12007C
:1016D0000001F06B0001700E076FA2C0E6FFA3C00F
:1016E000E6FF0DEC11F0E552E5520001710E076FB7
:1016F000120063D9A1C0DFFFDF5005E0DFCFE6FFB6
:101700003BEC04F0E552E55223D11DD9040EE1264D
:10171000010EDB6A0001AA0E606FDF6A3C0EDF5C1F
:101720001FE2B8DE020EF3CFDBFF030EF4CFDBFFC8
:10173000020EDBCF0AF0030EDBCF0BF00001800EB0
:101740000B140EE1020EDF24EA6A600FE96E000E50
:10175000EA22020EDBCFEFFF010EDB2ADF2ADED703
:10176000010EDBCF61F0066E040EE15C02E2E16A7D
:10177000E552E16EEDD0A1C003F0A2C004F0A3C019
:1017800005F0A00E035C06E19280010EC26E3C0ED5
:10179000C06EC28285EF0BF00001A2A902D010DE5C
:1017A00005D0A2AF02D013DE01D0FFDD0001AA0EEA
:1017B000606F010E066E1200A10EE66E000EE66E60
:1017C00010DEE552E552010E0001A015066E120072
:1017D000A1C000F0A2C001F0A3C002F01200A1C09D
:1017E000E6FFFADDE5521200E8D80001A0A304D01C
:1017F000400E006E016A026ADF6A0001A151DF5CDF
:1018000019E20050D6D80250D4D80150D2D8020ED6
:10181000DF24EA6AA00FE96E000E9ED8880E00143D
:1018200006E0012A015001E1022A009601D000865B
:10183000DF2AE3D7A0A50ED0020EA1250B6AA00FC8
:101840000A6E000E0B220AC0E6FF0BC0E6FFC9DDE0
:10185000E552E552010E0001A015066EE55278D062
:10186000280E0001A05D02E2F4EF0BF02B0EA05D4C
:1018700002E1CCEF0BF02A0EA05D02E1E8EF0BF0E5
:10188000280EA05D03E0290EA05D02E1DCEF0BF065
:101890002C0EA05D02E1EFEF0BF02E0EA05D01E13A
:1018A00028DF120006503BE104010851800B37E1AC
:1018B000A00EE66E000EE66E3DEC10F0E552E5522D
:1018C000A0C060F0200E0001A05D02E3C9DF27D0B8
:1018D000100EA05D03E388EC07F021D0050EA05D9B
:1018E00002E1FADD1CD0040EA05D02E175DE17D026
:1018F000060EA05D02E1A7DE12D0070EA05D02E198
:101900003ADF0DD00D0EA05D02E1C6DE08D00C0E50
:10191000A05D02E1DDDE03D0A00501E1D2DD0650CD
:1019200011E004010CBF0ED0600EE66E000EE66EF4
:1019300028EC10F0E552E552066A035003E004017A
:1019400008BFE3DE1200D9CFE6FFE1CFD9FF1200D6
:10195000E552E7CFD9FF1200EA22EF502AD8E66E0F
:10196000DF50EA6A600FE96E000EEA22E552E750A6
:10197000EF6E12000850EA6A000FE96E010EEA22CB
:10198000DFCFEFFF082A1200640EE66EC1EC08F00C
:10199000E5521200020EDBCFE9FF030EDBCFEAFFB8
:1019A0001200E7CFDBFF12C2E6FFC1EC08F0E55200
:1019B0001200E66EBCDCE5521200C5DFE6521200F2
:1019C0007AD9E6526C5032E16896040100513C0B22
:1019D000E842E8420D0828E1180E021923E1040E3E
:1019E000031920E1100E026F040E036FDF6ADF504F
:1019F0000A6E0B6A080E0A5C000E0B5813E2DF50E9
:101A0000EA6A180FE96E040EEA22EF50E66EDF5024
:101A1000EA6A100FE96E040EEA22E552E750EF6E13
:101A2000DF2AE5D70ED80AD03FD808D0040E6C5C68
:101A300003E1689650D802D0000E01D0010EE552A5
:101A40003FD139D9E652040104BF046B0201086B8F
:101A5000006B016B066B076B6CEC0EF0DF6ADF50FE
:101A60000A6E0B6A010E0A5C000E0B581AE20201A4
:101A7000015117E1F76ADF34FE0BF736F66EA20E5E
:101A8000F626250EF7220900F5CF0AF00800F5CF5B
:101A90000BF004D00BC0FAFF0A50F96EFBDFDF2A0F
:101AA000DED7B4D8E5520CD1020E0201005D0EE182
:101AB00081D80401180E026F040E036F080E016F27
:101AC00000BD02D0C80E05D0880E03D0D8D8E4D807
:101AD0008C0E006F1200040E0001FB5D09E112C4C0
:101AE0006EFF6E50000802E2050E01D0030EFB6F80
:101AF0000201000510E111D8020E0201085D03E1A8
:101B00000401840E06D0040104BD02D0C80E01D029
:101B1000880E046F12003FEF0EF0CDD8020EE126C2
:101B20000201080E065D000E07590DE206C2DEFF37
:101B300007C2DDFF085102E1010E03D0080506E1EE
:101B4000020E086F03D0080EDE6EDD6A04010493F6
:101B50000491010EDB500413DFCF05F4000EDB50BF
:101B60000201065F010EDB50075B180E046F040EC6
:101B7000056F0001FCA30CD097D815E002C2F6FF58
:101B800003C2F7FF0800F5507FD8F6E2DB06F4D772
:101B90008BD809E002C2E9FF03C2EAFFEF5074D814
:101BA000F7E2DB06F5D7020EE15C02E2E16AE552FC
:101BB000E16E86D080D8020EE126030E04010015E6
:101BC000E76E010EE7CFDBFF01C4DFFFDE5002014D
:101BD0000627DD500723180E026F040E036F64D82A
:101BE0000EE002C2E9FF03C2EAFFEF5004C2E9FFC0
:101BF00005C2EAFFEF6E68D8F2E2DB06F0D7020E0C
:101C0000E15C02E2E16AE552E16E5AD06D980201B0
:101C1000015105E141D8840E006F04011DD004017B
:101C200010AF1CD0020106510401165D02010751DC
:101C30000401175904E216C406F217C407F26DDF57
:101C40000201010E006F28D8800E006F0401180EEB
:101C5000066F040E076FC80E046F12000201020E19
:101C6000006F0401056BC80E046F0401080E016FBC
:101C7000180E026F040E036FC80E006F12000201EF
:101C8000006B0401046B120004C2E9FF05C2EAFF05
:101C9000EF6E020164EF0EF00401080E016F100EEA
:101CA000026F040E036F1200D9CFE9FFDACFEAFF0B
:101CB000EE50ED101200D9CFE6FFE1CFD9FF1200B0
:101CC000E552E7CFD9FF1200042B000E0523022BAB
:081CD0000323DF06010E1200E0
:081CD80004011051600BE84209
:101CE000E842E842E842E842000901E012001151EE
:101CF000070A40E00B0A3EE0070A33E0010A23E04E
:101D00000B0A1FE0020A1DE0030A19E0080A10E0AE
:101D1000010A0CE00F0A08E0030A01E0120012D9E0
:101D20000001040EFB6F1200BBEF0EF0F2EF0EF09D
:101D300009D90201FD0E026F000E036F0CD00DEFEA
:101D40000FF03FEF0FF002D90201026F036BFE0E9E
:101D50000227000E03230001FC930201010E066F0F
:101D60001200F4D8EA6AFE0FE96E000EEA2212C4ED
:101D7000EFFF12001200800E0401105D32E11351DA
:101D8000030A1FE0010A0AE0030A29E1DBD8020185
:101D9000100E026F250E036F120E1ED0B2D8960ED3
:101DA000F626250EC0D8020E0201F76A0225F66E4D
:101DB0000351F7220900F5CF06F20A00F5CF07F22A
:101DC0000ED09FD89A0EF626250EADD802C2F6FF89
:101DD00003C2F7FF0800F5500201066F076B000110
:101DE000FC831200AFD80F0EE66E710EE66E0F0E7A
:101DF000A2D8010EE66EFE0EE66E000E9CD812C44E
:101E0000FDF00401125104E10001050EFB6F120008
:101E10000001060EFB6F13EF10F00401186B196B35
:101E2000040110511F0B020A0FE0030A0BE0010A24
:101E300018E188D8040118810001FCA112D0040126
:101E400018830FD07FD80DD050D801E0010E62D892
:101E500004C2E9FFEA6EEF50040B03E00401010E37
:101E6000186F020101050AE10201180E026F040E4B
:101E7000036F0001FC930201020E066F12000401C1
:101E800012050EE110511F0B00090AE15BD8030E89
:101E90000401115D03E10001FC8102D00001FC910D
:101EA0000401125121E110511F0B02081DE11451D0
:101EB0000F0B000919E019D801E0010E2BD8030E11
:101EC0000401115D02E1840E03D014AF07D0400E6F
:101ED00004C2E9FF05C2EAFFEF6E1200880E04C2D9
:101EE000E9FF05C2EAFFEF6E120030D80F0B080DB4
:101EF000F3500B6A000F0A6E040E0B221451800B74
:101F0000120020D804011251F66EF76AD890F63606
:101F1000F7361200040DF35002010A24046F000E7C
:101F20000B20056F1200F7220900F5CF02F20A001C
:101F3000F5CF03F21200E66EEDEC10F0E552E5523B
:101F4000E55212000201010E016F1200FBDF0401D5
:041F50001451120016
:0C1F5400040110511F0B010801E01200F5
:101F6000145101E01200060E115D24E11351230A01
:101F70001FE0010A0DE0030A1BE19AD80001FD05EC
:101F800005E10201340E026F250E036F090E0DD01C
:101F90008FD80001FD0505E10201790E026F250EC3
:101FA000036F0001FD0504E11D0E0201066F076BC2
:101FB0000001FC8304011051600BE842E842E84252
:101FC000E842E842010801E0120011510B0A25E045
:101FD000080A17E0090A11E0080A09E00B0A05E0FF
:101FE000080A01E0120011EF10F012EF10F060D8B3
:101FF0000201090E026F020E09D05AD813C409F269
:10200000120056D802010A0E026F020E036F000181
:10201000FC930201010E066F12004AD812C40AF2A4
:1020200012001200120002010B6B1E0E716E0401F1
:10203000400E096F200E0A6F040E0B6F880E086F9A
:102040000401600E0E6F040E0F6F400E0C6F120035
:10205000D9CFE6FFE1CFD9FF2FD8600EE66E040E90
:10206000E66E31D80401400E0D6F0C170C7D880E02
:102070000C13E552E7CFD9FF1200D9CFE6FFE1CF2D
:10208000D9FF02010B6B040108BF0DD0200EE66ED4
:10209000040EE66E11D817D80401400E096F081718
:1020A000087D880E0813400EE552E7CFD9FF1200D5
:1020B0000201020E016F1200FD0EDBCFE6FFFE0EE5
:1020C000DBCFE6FF1200AEEC07F0E552E552E55239
:0420D000E5521200C3
:0C20D4006DA60CD80001FB0508E16DBAF8
:1020E00006D0686A696A69806988020EFB6F12000F
:1020F0006D6A696A6D860001010EFB6F12000001B6
:10210000FB5101E1120068B421D86DB2120068B031
:1021100034D868B817D868BA20D8030E0001FB5D20
:1021200001E212000001FF6B040EFF5D0AE268A6E7
:1021300008D0E0EC0CF0000901E168960001FF2BEB
:10214000F3D71200698468986D8212006D926994C9
:1021500068A402D06894FCD7120070A00CD0800E46
:102160000401005D07E1840E0401045D03E1040144
:102170008C0E006F7090689A12006A6A686A9F0EEF
:102180006B6E7B0E696E6E6A0F0EE66E710EE66EFA
:102190000F0EE66E22D8E552E552E552160E706E2D
:1021A00068A605D0689600D000D00000F9D76D98D9
:1021B0003FEC0EF00401080E016F0401100E026FD7
:1021C000040E036F04018C0E006F0001FC910001EE
:1021D000FD6B0001030EFB6F1200D9CFE6FFE1CFCC
:1021E000D9FFFD0EDBCFE9FFFE0EDBCFEAFFFC0ED1
:1021F000DB5004E0EE6AFC0EDB06F9D7E552E7CFD0
:04220000D9FF1200F0
:0C22040002010C2B000E0D230D51080BE5
:1022100002E08B8012008B901200D9CFE6FFE1CF55
:10222000D9FF040EE126020EDB6A030EDB6A020E02
:10223000DBCF0AF0030EDBCF0BF0080E0A5C000EBA
:102240000B582EE251D8100E0A6E080E3FD8DE6AE7
:10225000DD6ADECF0AF0DDCF0BF0320E0A5C000E35
:102260000B5813E241D8DECF0AF0DDCF0BF0200E81
:102270000A24E66E16EC13F0E552E552E552C2DF91
:10228000DF2A010EE6E3DB2AE4D72ED80E0E0A6E13
:10229000080E1CD8020EDB2A030EC9E3DB2AC7D7BF
:1022A000D950FD0FE96EFF0EDA20EA6EEE50ED1008
:1022B00002E08B7001D08B72040EE15C02E2E16AF5
:1022C000E552E16EE552E7CFD9FF12000B6E0C6AC2
:1022D0000AC0E6FFE66E0CC0E6FFD2EC12F00D6E0F
:1022E000050EE15E0D5012000EC2E6FF0FC2E6FFC2
:0222F0001200DA
:0E22F200DACFE4FFE652E552E5CFDAFF110045
:10230000D8CFE4FFE0CFE4FFE46EDACFE4FFE2CF22
:10231000DAFFE9CFE4FFEACFE4FF00EE0AF0080EAF
:10232000E80403E3EECFE4FFFBD7E65215D8E5520D
:1023300000EE11F0080EE80403E3E5CFEDFFFBD754
:10234000E5CFEAFFE5CFE9FFE5CFDAFFE550E5CFDE
:10235000E0FFE5CFD8FF10009EA203D031EC0AF0D9
:102360009E9212000201102B000E11231151800BBE
:1023700002E08B8212008B9212000F0EC16E9368E6
:102380009468140E6F6E0001FB6B0001FC6B000182
:10239000FD6B1FEC0AF0040EE66EF20EE66EE9EC41
:1023A00011F0E552E552D08EF28CF28E9F9212001F
:1023B0006AEC10F07FEC10F0060E0001FB5D05E109
:1023C0006D50020B02E152EC0CF01200D6DFF0DF90
:0223D000FED736
:0E23D200D9CFE6FFE1CFD9FFFE0EDBCFE6FF4D
:1023E000B2EC13F0E552FD0EDB50CB6EE552E7CFB9
:1023F000D9FF1200D9CFE6FFE1CFD9FFFE0EDB50A7
:1024000002E1010E0AD0FE0EDB0402E1030E05D04C
:10241000FE0EDB50020804E1070EE66EE66A22D0EB
:10242000FE0EDB50030802E1030E05D0FE0EDB506A
:10243000040804E1070EE66E010E13D0FE0EDB5019
:10244000050803E1030EE66E0BD0060EF36EFE0EDA
:10245000DBCFF4FFF350F45C08E3FE0EDBCFE6FFC6
:10246000020EE66EB6DFE552E552E552E7CFD9FF40
:02247000120058
:0E2472001E0EF66E080EF76E000EF86E0001DC
:102480000900F550F66F0900F550F76F03E1F667A4
:1024900001D03DD00900F550F16F0900F550F26F01
:1024A0000900F550F36F09000900F550E96E0900C5
:1024B000F550EA6E090009000900F550F46F0900B3
:1024C000F550F56F09000900F6CFF8F0F7CFF9F0F5
:1024D000F8CFFAF0F1C0F6FFF2C0F7FFF3C0F8FF53
:1024E0000001F45302E1F55307E00900F550EE6EE8
:1024F000F407F8E2F507F9D7F8C0F6FFF9C0F7FFDF
:10250000FAC0F8FF0001F607000EF75BBFD7120014
:102510001201000200000008D8043C000200010281
:10252000030109022900010100C032090400000270
:1025300003000000092111010001221D000705818F
:102540000340000107050103400001040309040ED4
:1025500003410056005200650074006300120350EE
:102560000049004300310038007300700078000A11
:102570000330003000300031000600FF0901A101E6
:1025800019012940150026FF0075089540810019A2
:102590000129409100C0222522254B254F255D258C
:0425A0006F25541F30
:0C25A400D9CFE6FFDACFE6FFE1CFD9FF88
:1025B000E2CFDAFFE652FB0EDBCFF6FFFC0EDBCFFD
:1025C000F7FFFD0EDBCFF8FF0800F550DF6EDF50A0
:1025D00024E0F90EDBCFE6FFFA0EDBCFE6FFDFCF1C
:1025E000E6FF16EC13F0E552E552E552F3CF0AF0A0
:1025F000F4CF0BF00001F31C05E10B1C03E1F368C1
:10260000F4680DD0D950FB0FE96EFF0EDA20EA6EA8
:10261000EE2A000EEE22EE22CED7F36AF46AE552DD
:0C262000E552E5CFDAFFE7CFD9FF12004A
:04262C00D9CFE6FF1D
:10263000DACFE6FFE1CFD9FFE2CFDAFFFB0EDBCF47
:102640000AF0FC0EDBCF0BF00001800E0B141AE138
:10265000FB0EDBCFE9FFFC0EDBCFEAFFEECFF3FF93
:10266000EDCFF4FFEE2A000EEF22F3CFE9FFF4CF17
:10267000EAFFFD0EDBCFEFFFEF500B6AF36E0BC0EE
:10268000F4FF10D0FB0EDB50FE0806E1FD0EDBCFA1
:10269000E6FFEBEC13F005D0FD0EDBCFE6FF58ECC8
:1026A00013F0E552E552E5CFDAFFE7CFD9FF12008C
:1026B000D9CFE6FFE1CFD9FFE652DF6AFE0EDB504D
:1026C0000A0802E1010EDF6E100E0001F05D02E368
:1026D000010EDF6EDF5006E00001F05103E0D8ECA0
:1026E00011F0FAD7100EF05D0AE2F051F02BEA6A11
:1026F000E00FE96E000EEA22FE0EDBCFEFFF010EC7
:0E270000F36EF46AE552E552E7CFD9FF1200FE
:02270E00D9CF21
:10271000E6FFDACFE6FFFA0EE3CFD9FFFB0EE3CFF9
:10272000DAFFFC0EE3CFE9FFFD0EE3CFEAFFE9CFCE
:10273000F3FFEACFF4FFF80EE35003E1F90EE350A4
:1027400008E0F80EE30602E2F90EE306DECFEEFF44
:10275000F2D7FF0EE3CFDAFFE552FF0EE3CFD9FF4A
:04276000E55212002C
:0C276400D9CFE6FFDACFE6FFE1CFD9FFC6
:10277000E2CFDAFFFD0EDB50FB0BCA6ECC6A9E92F5
:10278000FD0EDBAE02D09D8201D09D92CA84E5523F
:0A279000E5CFDAFFE7CFD9FF120012
:06279A00000EF36E00EEDC
:1027A00000F0080E01D81200EA6002D0EE6AFCD7F1
:0A27B000F350E9601200EE6AFCD756
:0627BA0013EE00F023EE17
:1027C00000F0F86A139C39EC12F003EC04F0E6EC2C
:0627D00011F0FBD712001E
:0A27D600FF0EE350ACBA04D0AF6A66
:1027E000AB8EAC8A949CACA2FED7AD6EF36EF46A4D
:0227F0001200D5
:0227F2000000E5
:0227F400FFFFE5
:0127F60005DD
:0227F7000000E0
:020000040030CA
:0100000024DB
:010001000EF0
:010002003FBE
:010003001EDE
:010005008179
:010006008178
:010008000FE8
:01000900C036
:01000A000FE6
:01000B00E014
:01000C000FE4
:01000D0040B2
:00000001FF
