:020000040000FA
:06000000E9EF13F012000D
:0600080004EF04F01200F9
:060018000CEF04F01200E1
:06080000E9EF13F0120005
:020806001200DE
:0608080083EF11F0120065
:02080E000A00DE
:0808100048656C6C6F203A0092
:060818008AEF11F012004E
:02081E000400D4
:100820000F28000060020000020000000E280000F7
:1008300062020000010000000C2800005E020000BF
:10084000020000000A2800005C0200000200000014
:10085000D9CFE6FFE1CFD9FF000000000000000083
:100860000000000000000000FE0EDB06F5E1E5528E
:10087000E7CFD9FF1200BADBF7DBF6DBF5DBF4DB01
:10088000FE0EDB06F9E1B7D3B1DBFE0EDB5018E05C
:1008900057EC08F04B340FE24A50C808000E4B5496
:1008A0000AE257EC08F0C80E4A5E000E4B5A4A5056
:1008B000E66EE1DF04D0FE0EDBCFE6FFC9DFE552D6
:1008C0009AD378EC08F0DF6AFC0EDB50DF5C1AE2AA
:1008D000FD0EDB50010B02E08A8801D08A988A8CD9
:1008E000D950FD0FE96EFF0EDA20EA6E010E0F0BF4
:1008F00006E0EC52D890ED32EF32E806FAE18A9C3D
:10090000DF2AE2D7020EE15C02E2E16AE552E16E23
:1009100072D36CDBE652DF6AFD0EDB04DF5C0BE2B8
:10092000FE0EDBA002D08A8801D08A988A8C78DB00
:100930008A9CDF2AF1D7FE0EDBA002D08A8801D084
:100940008A988A8CFC0EDB5005E0FC0EDBCFE6FFBC
:1009500092DFE552FE0E64DB8A9CE5524CD346DB07
:10096000FE0EDB5002E0939801D0938844D33EDB27
:10097000FB0EDBCFE6FF040EE66EFE0E8BDBFC0EFD
:10098000DBCFE6FFFD0EDBCFE6FF74DB34D32EDBDF
:10099000E66A8DDB0E0E60DBE66AFD0EDB504A6E0A
:1009A0004B6AE8506E0E58DB26D3F80EE66E14C282
:1009B000E6FF82DBF70EE66E13C2E6FF7DDBF60E86
:1009C000E66E12C2E6FF5CEF08F092DB010EDB6A16
:1009D000040EE66E090EE66EE66A4CDB080EE66E65
:1009E000000EE66EE66A46DBE66AB9DFE552080EFF
:1009F000DF6E8A8C010E14DB81B8DB8E8A9CDF06E9
:100A0000F8E1E66EACDFE552010EDB504A6E020EF5
:100A1000E15C02E2E16AE552E16E4A50ECD2E6DACC
:100A2000080EE12611C2DFFF010E15C2DBFF020E28
:100A300016C2DBFFD950040F7BDB030EDB6ADF50ED
:100A4000F36E030EDBCFF4FFF350F45C26E2D950D3
:100A5000040F29DBEECFF3FFEDCFF4FF020EEE26FD
:100A6000000EEF22F3CFE9FFF4CFEAFF060EEECF40
:100A7000DBFF070EEDCFDBFF020EDBCFE6FF040E40
:100A8000E66E010E07DB060EDBCFE6FF070EDBCFBF
:100A9000E6FFF0DA030EDB2AD2D7080EE15C02E2B1
:100AA000E16AE552E16EA7D223DB7FDF010E11C2BE
:100AB000DBFFDF6A010EDB50DF5C0DE286DFE66EF6
:100AC000DF50EA6A0A0FE96E000EEA22E552E750AB
:100AD000EF6EDF2AEFD7020EE15C02E2E16AE55237
:100AE000E16E89D283DA070EE12611C2DFFF010E23
:100AF00012C2DBFFD950020FD6DA130EEE6E020ED1
:100B0000ED6ED950040F1ADBDF504DE0020EDBCF43
:100B1000E9FFDB2A030EDBCFEAFF01E3DB2A060E47
:100B2000EFCFDBFFDBB68B8CDBA68B9CDBB48B8E35
:100B3000DBA48B9EDBB28A88DBA28A98DBB08A8C2E
:100B4000DBA08A9CDBBE948CDBAE949CDBBC948ED9
:100B5000DBAC949EDBBA9388DBAA9398DBB8938CCA
:100B6000DBA8939C150E0201105D16E1060EDB6AF0
:100B700082BCDB8682BEDB8481B8DB8281BCDB8009
:100B8000040EDBCFE9FFDB2A050EDBCFEAFF01E332
:100B9000DB2A060EDBCFEFFF010EDBCFE6FF74DEB4
:100BA000E552DF06B1D7070EE15C02E2E16AE552E9
:100BB000E16E21D21BDAE652DF6AFD0EDB50DF5C0C
:100BC0000AE28A9CFE0EDBB08A88DBA08A9828DACB
:100BD0008A8CDF2AF2D7E5520ED208DA040E96D2BA
:100BE00005DA080E93D2BEDA6BDAFB0EDBCFEEFF2E
:100BF000FC0EDBCFEEFFFD0EDBCFEEFFFE0EDBCFFC
:100C0000EEFFE66AEADFE552DFCFE6FFE9DFE55215
:100C1000010EDBCFE6FFE4DFE552020EDBCFE6FF9D
:100C2000DFDFE5528A9C040EE15C02E2E16AE552F4
:100C3000E16EE1D1E66AE66AE66A70D2FBDF1AEF9E
:100C400006F0E66A020EE66E040EB6EF08F08ADAE7
:100C500014C2DFFF010EDB6A020EDB6A030EDB6AE1
:100C6000040E4E6E2DDAE8501F0BEECF4AF0EECF99
:100C70004BF0EECF4CF0EECF4DF007E0D8904A3677
:100C80004B364C364D36E806F9E14C8A27DA900EA1
:100C9000E66E010EE66E880E9DD912C2DFFF010ED0
:100CA00013C2DBFFFE0EDBCF4AF04B6A4C6A4C8A64
:100CB0004D6A4CBE4D6804DAEECF4EF0EECF4FF0E9
:100CC000EECF50F0EFCF51F0040E1F0B02E0AFD982
:100CD000FEE182D9040EE15C02E2E16AE552E16ED6
:100CE0008AD1A8DFAEDF060EE66EB1DFE552470E11
:100CF000E66E780EE66E200EB6EF08F09BDFA1DF01
:100D00001A0EE66EE66A240E65D90A0EE66E3B0EF2
:100D1000E66E880E5FD9070EE66E99DFE552120087
:100D20008DDF610EE66EE70EE66EA80EB9EF08F0F5
:100D3000DFD9DF6A8A9C010EDB6A080EF36E010EB2
:100D4000DBCFF4FFF350F45C09E28A8CDF90DF42E2
:100D500081B8DF8E8A9C010EDB2AEFD7DF504A6E06
:100D6000020EE15C02E2E16AE552E16E4A5043D1D3
:100D7000BFD9DEDFDF6EDCDFE76E010EE7CFDBFF22
:100D80007ED902E2E16AE552E16E35D1B1D9010EB8
:100D9000E66E23DFE552E66A23DFE5528A9C9388FC
:100DA000E7DFF3CFDEFFF4CFDDFF939843DF67D9B2
:100DB00002E2E16AE552E16E1ED19AD9B1DF41DF6C
:100DC000E66A3B0EE66E800E05D9200EE66E3C0EFE
:100DD000E66E880ECBD9DADFF3CFDEFFF4CFDDFF8E
:100DE000010EDB50800BEBE1020EE15C02E2E16AF6
:100DF000E552E16E00D1FAD8050EE126010E15C2CA
:100E0000DBFF020E11C2DBFFD950030F91D9010E97
:100E1000DB5001E173DFDF6A020EDB50DF5C30E2A2
:100E2000E66A030EE66EEB0ED5D84A6A4ED98CD927
:100E300092D91F0B02E0FBD8FEE1CED8010E4A6E1C
:100E400044D9020EDCD802E0F2D8FEE1C5D8020E89
:100E50004A6E3BD9040ED3D802E0E9D8FEE1BCD8F3
:100E6000B60EE66E0B0E48D9DB0E46D9EB0E44D912
:100E70001B0EE66EBB0E7DD9D950030F52D9CCD7CD
:100E8000010EDB50020802E198DFDBDE050EE15CBB
:100E900002E2E16AE552E16EAED064D9010E11C200
:100EA000DBFFD950020F4AD91CDFDF6A010EDB508D
:100EB000DF5C27E2960EE66E0B0E23D9020EDBCF27
:100EC000E9FF030EDBCFEAFFF3CFEEFF4BC0EDFFF0
:100ED000B60EE66EDB0EE66EBA0E4BD9D60EE66E99
:100EE000D30E0FD9020EE76EA9D8B60EE66E0B0E22
:100EF00008D9040EE76E020EA1D8D950020F11D9FD
:100F0000D5D7040EE15C02E2E16AE552E16E73D0EE
:100F1000120E0201105D02E182DD1BD0100E105D89
:100F200002E143DD16D0110E105D02E1BDDD11D0EE
:100F3000140E105D03E0150E105D02E1D3DD09D043
:100F4000160E105D02E157DF04D0170E105D01E1AF
:100F5000A4DF010E02011015066E1200D9CFE6FFC4
:100F6000DACFE6FFFA0EE3CFD9FFFB0EE3CFDAFFCD
:100F7000FC0EE3CFE9FFFD0EE3CFEAFF040EDECF68
:100F8000EEFFDECFEEFFDECFEEFFDECFEEFFDECFF9
:100F9000EEFFDECFEEFFDECFEEFFDECFEEFFDECFE9
:100FA000EEFFDECFEEFFDECFEEFFDECFEEFFDECFD9
:100FB000EEFFDECFEEFFDECFEEFFDECFEEFFE82E60
:100FC000DED7FF0EE3CFDAFFE550FF0EE3CFD9FF08
:100FD000E5501200E66EA2D04E504A124F504B120E
:100FE00050504C1251504D126EEF08F0D9CFE6FF21
:100FF000E1CFD9FF1200E552E7CFD9FF1200E76E2B
:10100000A3D8E750E926000EEA22A5D8040E1F0B4C
:10101000120014DEBBDEF3CF4AF0F4CF4BF0120027
:10102000DBCFF3FFF390F342F3CFDBFF1200D89056
:101030004E364F3650365136E8061200DBCFE9FF08
:10104000030EDBCFEAFFE750E926000EEA22F3CFDA
:10105000EEFF4BC0EDFF12004B124AC0E6FF4BC043
:10106000E6FFE66A84DC88D0FA0EE66E28EC04F02F
:10107000E552120026DCE552E552E5521200DECFC1
:101080004AF0DDCF4BF04AC0F3FF4BC0F4FF020E35
:10109000E15C1200DBCFE6FF3CDCE552E552E552B5
:1010A000100EE66E1200E96EDACFEAFF1200FE0EB5
:1010B000DB504A6E4B6A12006ADCE552E5521200C0
:1010C000D9CFE9FFDACFEAFF12004B6A200E4C6E4F
:1010D0004D6A1200B3DDB60EE66E12004AC0E6FF9E
:1010E0004BC0E6FF4CC0E6FF4DC0E6FF7CDD44D0C0
:1010F0007DDF020EE1261200E66EBB0E6BDF6AEFAB
:1011000008F0E66EBA0E66DF09EF08F0E66EFE0E36
:10111000DBCFE6FF4FDDE552E5526DD7E66A63DDD2
:101120002BD0C1DF060EEE26000EED22DF2A1200C4
:10113000BADF170EEE6E020EED6E1200B4DF0A0E6D
:10114000EE6E000EED6E1200030EDBCFE9FF040E13
:10115000DBCFEAFF1200EECF4EF0EFCF4FF0506A38
:10116000516A120043DF040EE126120033DF1AEF4A
:1011700006F030DF1EEF06F0E552E552E552E5528B
:0211800012005B
:0E118200DDEC0CF0020EDF6EFE0EDB50DF5CCB
:1011900002E2DF2AFAD7E552DBD312001200DDECBF
:1011A0000CF0DF6AFE0EDBBE8B8EDBAE8B9E8A8C74
:1011B00081B8DF8E8A9CDBBC8B8EDBAC8B9E8A8CED
:1011C00081B8DF8C8A9CDBBA8B8EDBAA8B9E8A8CE3
:1011D00081B8DF8A8A9CDBB88B8EDBA88B9E8A8CD9
:1011E00081B8DF888A9CDBB68B8EDBA68B9E8A8CCF
:1011F00081B8DF868A9CDBB48B8EDBA48B9E8A8CC5
:1012000081B8DF848A9CDBB28B8EDBA28B9E8A8CBA
:1012100081B8DF828A9CDBB08B8EDBA08B9E8A8CB0
:1012200081A802D0000EDF808A9CDF50E55290D367
:10123000D9CFE6FFE1CFD9FFE652DF6AFE0EDBBE73
:101240008B8EFE0EDBAE8B9E8A8C0000000081B878
:10125000DF8E8A9C00000000FE0EDBBC8B8EFE0E33
:10126000DBAC8B9E8A8C0000000081B8DF8C8A9CEE
:1012700000000000FE0EDBBA8B8EFE0EDBAA8B9EFA
:101280008A8C0000000081B8DF8A8A9C0000000080
:10129000FE0EDBB88B8EFE0EDBA88B9E8A8C0000C8
:1012A000000081B8DF888A9C00000000FE0EDBB6DB
:1012B0008B8EFE0EDBA68B9E8A8C0000000081B810
:1012C000DF868A9C00000000FE0EDBB48B8EFE0ED3
:1012D000DBA48B9E8A8C0000000081B8DF848A9C8E
:1012E00000000000FE0EDBB28B8EFE0EDBA28B9E9A
:1012F0008A8C0000000081B8DF828A9C0000000018
:10130000FE0EDBB08B8EFE0EDBA08B9E8A8C000067
:10131000000081A802D0000EDB808A9C0000000043
:10132000DF5000D0E552E552E7CFD9FF12000BDBCA
:10133000020EE1260201625105E1FE0EDBCFE6FF5F
:101340002EDF06D0620506E1FE0EDBCFE6FF70DF82
:10135000E55222D08A9CDF6A080EDF5C1BE2FE0E9B
:10136000DBBE8B8EDBAE8B9E010EDBCFE7FFDB504F
:10137000E726010E16DB81A802D0010EDB808A8CE5
:10138000FE0EDBCFE7FFDB50E726FE0E0ADB8A9C72
:10139000DF2AE2D7010EDB504A6E020EE15C02E268
:1013A000E16AE552E16E4A50D3D28B9C8A9C949CB0
:1013B000939C949E9388E8DA8B8CE6DA8B9C1200DF
:1013C000948C938C948E8B9C8A9C8B9E12008A8C1E
:1013D000DBDA8A9CC4EF0CF0B6DAFE0EDBCF62F2E9
:1013E000B7D2EBDADF6A040EDF5C0EE2DF50E76EA5
:1013F000FD0EDBCFE9FFFE0EDBCFEAFFE750E9266B
:10140000000EAADADF2AEFD7E552A2D29CDAA66A4A
:10141000FE0EDB50A96EA680A8509AD294DAFE0E7A
:10142000DB50A96EFD0EDB50A86E040EA66E550EA5
:10143000A76EAA0EA76EA682A6B2FED789D2F00E1C
:101440008B169416050EE66E06EC12F0E552036A52
:101450000001046B056B0001706B066A086A096A7B
:101460001200ABDA035014E0A00E035C0AE1C2B232
:10147000FED7C350DF6E7EDAC450DF6E7BDAC282E5
:1014800007D004C0E9FF05C0EAFFEFCFDFFF72DA43
:10149000E5525ED292DA0850095C0FE00950EA6A20
:1014A000000FE96E010EEA22EFCFDFFF092ADF50BD
:1014B0004B6AF36E4BC0F4FF02D0F368F468E55258
:1014C00047D2140E0B6E010E0C6E0D6E0E6A11C219
:1014D0000FF0066E1200D9CFE6FFE1CFD9FF060E5E
:1014E000E126010E11C2DBFF010EDB50C00BE76EDF
:1014F000020EE7CFDBFF010EDB503F0BE76E010E64
:10150000E7CFDBFF030E12C2DBFF040E13C2DBFFCB
:10151000020EDBAE16D012C2F6FF13C2F7FFF86A56
:10152000DF6A010EDB50DF5C0BE20900DF50EA6A84
:101530000A0FE96E000EEA22F5CFEFFFDF2AF1D79E
:101540003ED0020EDBAC20D002011251E76E050E38
:10155000E7CFDBFFDF6A010EDB50DF5C14E2050E34
:10156000DBCFF3FFDB2AF350E66E50DFE552E66E89
:10157000DF50EA6A0A0FE96E000EEA22E552E750F0
:10158000EF6EDF2AE8D71BD0DF6A010EDB50DF5C8D
:1015900016E2030EDBCFE9FFDB2A040EDBCFEAFF06
:1015A00001E3DB2AEF50E66EDF50EA6A0A0FE96ECC
:1015B000000EEA22E552E750EF6EDF2AE6D7010E71
:1015C000066E060EE15C02E2E16AE552E16EE5526A
:1015D000E7CFD9FF1200B7D9050EE126010E11C2DF
:1015E000DBFF020E12C2DBFF030E13C2DBFF010E94
:1015F000DBAC0ED002011251E76E040EE7CFDBFF29
:1016000014C2E6FFDBCFE6FF09DFE552E55210D05A
:10161000020115510AE0BED9EF5015151411E66EFE
:10162000B9D9E552E750EF6E03D0B4D914C2EFFF39
:10163000050EE15C02E2E16AE552E16E89D1646A7D
:10164000606A1200D9CFE6FFE1CFD9FF020EE12692
:1016500015C2DFFFDF500DE0F29CF29E0A0EE66E2F
:101660003BEC04F0E552EBDF0A0EE66E3BEC04F0D7
:10167000E552FB6A13C2FAFF010E12C2DBFF0153EF
:10168000F96E020EE15C02E2E16AE552E16EE552BA
:10169000E7CFD9FF120007C00AF070C00BF03F0E71
:1016A00000017015E66EE66A600EE66E000EE66EEC
:1016B0000C0EE66E000EE66E93EC13F04A6E060E0C
:1016C000E15E4A500001706B010E066E12000001CF
:1016D000706B0001700E076F12C2E6FF13C2E6FFC7
:1016E00017EC11F0E552E5520001710E076F120080
:1016F00064D911C2DFFFDF5005E0DFCFE6FF3BEC2E
:1017000004F0E552E55224D11ED9040EE126010E63
:10171000DB6AAA0E0A6EDF6A3C0EDF5C1FE2BADEED
:10172000020EF3CFDBFF030EF4CFDBFF020EDBCFA5
:101730004AF0030EDBCF4BF00001800E4B140EE19C
:10174000020EDF24EA6A0A0FE96E000EEA22020E98
:10175000DBCFEFFF010EDB2ADF2ADED7010EDB50E5
:101760000B6E010E066E040EE15C02E2E16AE552C8
:10177000E16EEED011C203F012C204F013C205F004
:10178000A00E035C08E19388290EC26EC16A3E0E6A
:10179000C06EC09EC28284EF0BF0020112A902D07B
:1017A0000FDE05D012AF02D012DE01D0FEDDAA0E90
:1017B0000A6E010E066E1200110EE66E020EE66E45
:1017C00010DEE552E552010E02011015066E120000
:1017D00011C200F012C201F013C202F0120011C2D5
:1017E000E6FFFADDE5521200E8D8020110A304D0AA
:1017F000400E006E016A026ADF6A02011151DF5C6D
:1018000019E20050D6D80250D4D80150D2D8020ED6
:10181000DF24EA6A100FE96E020E9ED8880E0014CB
:1018200006E0012A015001E1022A009601D000865B
:10183000DF2AE3D710A50ED0020E11254B6A100F38
:101840004A6E020E4B224AC0E6FF4BC0E6FFC9DDDE
:10185000E552E552010E02011015066EE55278D0F0
:10186000280E0201105D02E2F4EF0BF02B0E105D6A
:1018700002E1CDEF0BF02A0E105D02E1E8EF0BF074
:10188000280E105D03E0290E105D02E1DCEF0BF085
:101890002C0E105D02E1EFEF0BF02E0E105D01E15A
:1018A00027DF120006503BE102010851800B37E1AF
:1018B000100EE66E020EE66E41EC10F0E552E552B7
:1018C00010C20AF0200E0201105D02E3C9DF27D02A
:1018D000100E105D03E388EC07F021D0050E105DBB
:1018E00002E1F9DD1CD0040E105D02E174DE17D0B8
:1018F000060E105D02E1A6DE12D0070E105D02E1B9
:1019000039DF0DD00D0E105D02E1C5DE08D00C0EE2
:10191000105D02E1DCDE03D0100501E1D2DD0650EE
:1019200011E002010CBF0ED00A0EE66E000EE66E4C
:101930002CEC10F0E552E552066A035003E0020178
:1019400008BFE2DE1200D9CFE6FFE1CFD9FF1200D7
:10195000E552E7CFD9FF1200EA22EF502AD8E66E0F
:10196000DF50EA6A0A0FE96E000EEA22E552E750FC
:10197000EF6E12000850EA6A000FE96E010EEA22CB
:10198000DFCFEFFF082A1200640EE66EC1EC08F00C
:10199000E5521200020EDBCFE9FF030EDBCFEAFFB8
:1019A0001200E7CFDBFF62C2E6FFC1EC08F0E552B0
:1019B0001200E66EBCDCE5521200C5DFE6521200F2
:1019C0007DD9E652635032E16296020100513C0B30
:1019D000E842E8420D0828E1780E021923E1020EE0
:1019E000031920E1700E026F020E036FDF6ADF50F1
:1019F0004A6E4B6A080E4A5C000E4B5813E2DF50E9
:101A0000EA6A780FE96E020EEA22EF50E66EDF50C6
:101A1000EA6A700FE96E020EEA22E552E750EF6EB5
:101A2000DF2AE5D70ED80AD03FD808D0040E635C71
:101A300003E1629650D802D0000E01D0010EE552AB
:101A400042D13CD9E652020104BF046B0201586B3B
:101A5000506B516B566B576B6FEC0EF0DF6ADF50BB
:101A60004A6E4B6A010E4A5C000E4B581AE20201A4
:101A7000515117E1F76ADF34FE0BF736F66EBA0EF6
:101A8000F626250EF7220900F5CF4AF00800F5CF1B
:101A90004BF004D04BC0FAFF4A50F96EFBDFDF2A4F
:101AA000DED7B7D8E5520FD1020E0201505D0EE12C
:101AB00084D80201780E026F020E036F080E016FC8
:101AC00000BD02D0C80E05D0880E03D0DBD8E7D801
:101AD0008C0E006F1200040E00017B5D0CE172C2DF
:101AE0005CFF0F015C51000803E20001050E02D00B
:101AF0000001030E7B6F0201500510E111D8020EA8
:101B00000201585D03E10201840E06D0020104BD0A
:101B100002D0C80E01D0880E046F120042EF0EF002
:101B2000CDD8020EE1260201080E565D000E57596F
:101B30000DE256C2DEFF57C2DDFF585102E1010E31
:101B400003D0580506E1020E586F03D0080EDE6E72
:101B5000DD6A020104930491010EDB500413DFCF10
:101B600005F2000EDB500201565F010EDB50575BA1
:101B7000780E546F020E556F00017CA30CD097D8DD
:101B800015E052C2F6FF53C2F7FF0800F5507FD8A8
:101B9000F6E2DB06F4D78BD809E052C2E9FF53C264
:101BA000EAFFEF5074D8F7E2DB06F5D7020EE15CEE
:101BB00002E2E16AE552E16E86D080D8020EE126AB
:101BC000030E02010015E76E010EE7CFDBFF01C235
:101BD000DFFFDE5002015627DD505723780E526F8B
:101BE000020E536F64D80EE052C2E9FF53C2EAFFFF
:101BF000EF5054C2E9FF55C2EAFFEF6E68D8F2E237
:101C0000DB06F0D7020EE15C02E2E16AE552E16E2A
:101C10005AD064980201515105E141D8840E006FF9
:101C200002011DD0020170AF1CD002015651020109
:101C3000765D020157510201775904E276C256F2ED
:101C400077C257F26DDF0201010E506F28D8800E67
:101C5000006F0201780E066F020E076FC80E046F48
:101C600012000201020E506F0201056BC80E046FD4
:101C70000201080E016F780E026F020E036FC80E8C
:101C8000006F12000201506B0201046B120054C27B
:101C9000E9FF55C2EAFFEF6E020167EF0EF00201A5
:101CA000080E016F700E026F020E036F1200D9CF83
:101CB000E9FFDACFEAFFEE50ED101200D9CFE6FFD0
:101CC000E1CFD9FF1200E552E7CFD9FF1200542B24
:0E1CD000000E5523522B5323DF06010E120087
:021CDE00020101
:101CE0007051600BE842E842E842E842E8420009ED
:101CF00001E012007151070A40E00B0A3EE0070ABA
:101D000033E0010A23E00B0A1FE0020A1DE0030A88
:101D100019E0080A10E0010A0CE00F0A08E0030AC3
:101D200001E0120012D90001040E7B6F1200BEEF19
:101D30000EF0F5EF0EF009D902017D0E526F000E84
:101D4000536F0CD010EF0FF042EF0FF002D90201E9
:101D5000526F536B7E0E5227000E532300017C936B
:101D60000201010E566F1200F4D8EA6A7E0FE96E86
:101D7000000EEA2272C2EFFF12001200800E020172
:101D8000705D32E17351030A1FE0010A0AE0030AA1
:101D900029E1DBD80201280E526F250E536F120E77
:101DA0001ED0B2D8AE0EF626250EC0D8020E020105
:101DB000F76A5225F66E5351F7220900F5CF56F215
:101DC0000A00F5CF57F20ED09FD8B20EF626250E98
:101DD000ADD852C2F6FF53C2F7FF0800F55002011A
:101DE000566F576B00017C831200AFD8070EE66E6A
:101DF000540EE66E0F0EA2D8010EE66E7E0EE66E53
:101E0000000E9CD872C27DF00201725104E1000103
:101E1000050E7B6F12000001060E7B6F16EF10F0AF
:101E20000201786B796B020170511F0B020A0FE0FF
:101E3000030A0BE0010A18E188D802017881000149
:101E40007CA112D0020178830FD07FD80DD050D85A
:101E500001E0010E62D854C2E9FFEA6EEF50040BB4
:101E600003E00201010E786F020151050AE102014F
:101E7000780E526F020E536F00017C930201020E26
:101E8000566F1200020172050EE170511F0B00091E
:101E90000AE15BD8030E0201715D03E100017C8160
:101EA00002D000017C910201725121E170511F0B9F
:101EB00002081DE174510F0B000919E019D801E067
:101EC000010E2BD8030E0201715D02E1840E03D0D6
:101ED00074AF07D0400E54C2E9FF55C2EAFFEF6E5F
:101EE0001200880E54C2E9FF55C2EAFFEF6E1200DD
:101EF00030D80F0B080DF3504B6A000F4A6E020EDC
:101F00004B227451800B120020D802017251F66EE0
:101F1000F76AD890F636F7361200040DF350020136
:101F20004A24546F000E4B20556F1200F72209000F
:101F3000F5CF52F20A00F5CF53F21200E66EF7EC3D
:101F400010F0E552E552E55212000201010E516F08
:0A1F50001200FBDF020174511200C1
:061F5A00020170511F0B93
:101F6000010801E01200745101E01200060E715DDB
:101F700024E17351230A1FE0010A0DE0030A1BE16B
:101F80009BD800017D0505E102014C0E526F250E24
:101F9000536F090E0DD090D800017D0505E10201B7
:101FA000910E526F250E536F00017D0504E11D0E49
:101FB0000201566F576B00017C8302017051600B68
:101FC000E842E842E842E842E842010801E0120043
:101FD00071510B0A25E0080A17E0090A11E0080A06
:101FE00009E00B0A05E0080A01E0120014EF10F006
:101FF00015EF10F061D80201590E526F020E09D090
:102000005BD873C259F2120057D802015A0E526FB0
:10201000020E536F00017C930201010E566F1200F5
:102020004BD872C25AF212001200120002015B6B0E
:102030000F011E0E546F0201400E096F800E0A6FD1
:10204000020E0B6F880E086F0201C00E0E6F020E9B
:102050000F6F400E0C6F1200D9CFE6FFE1CFD9FF12
:102060002FD8C00EE66E020EE66E31D80201400E89
:102070000D6F0C170C7D880E0C13E552E7CFD9FFBE
:102080001200D9CFE6FFE1CFD9FF02015B6B02015D
:1020900008BF0DD0800EE66E020EE66E11D817D87E
:1020A0000201400E096F0817087D880E0813400EC4
:1020B000E552E7CFD9FF12000201020E516F120064
:1020C000FD0EDBCFE6FFFE0EDBCFE6FF1200AEEC2F
:0C20D00007F0E552E552E552E55212001F
:0420DC0064A60CD812
:1020E00000017B0508E164BA06D0626A606A60801C
:1020F0006088020E7B6F1200646A606A6486000169
:10210000010E7B6F120000017B5101E1120062B4ED
:1021100021D864B2120062B036D862B817D862BA59
:1021200020D8030E00017B5D01E2120000017F6BED
:10213000040E7F5D0AE262A608D0E0EC0CF0000914
:1021400001E1629600017F2BF3D712006084629850
:10215000648212006492609462A402D06294FCD7FC
:1021600012000F0153A10DD0800E0201005D07E1A6
:10217000840E0201045D03E102018C0E006F0F0169
:102180005391629A12000F015F6B626A0F019F0EFA
:102190005B6F7B0E606E0F015C6B070EE66E540E7C
:1021A000E66E0F0EE66E23D8E552E552E5520F01BA
:1021B000160E536F62A605D0629600D000D00000C4
:1021C000F9D7649842EC0EF00201080E016F02018B
:1021D000700E026F020E036F02018C0E006F000181
:1021E0007C9100017D6B0001030E7B6F1200D9CF43
:1021F000E6FFE1CFD9FFFD0EDBCFE9FFFE0EDBCF1F
:10220000EAFFFC0EDB5004E0EE6AFC0EDB06F9D7B9
:08221000E552E7CFD9FF1200EF
:0822180002015C2B000E5D23A6
:102220005D51080B02E08B8012008B901200D9CF19
:10223000E6FFE1CFD9FF040EE126020EDB6A030EB2
:10224000DB6A020EDBCF4AF0030EDBCF4BF0080E49
:102250004A5C000E4B582EE251D8100E4A6E080E02
:102260003FD8DE6ADD6ADECF4AF0DDCF4BF0320EBA
:102270004A5C000E4B5813E241D8DECF4AF0DDCF66
:102280004BF0200E4A24E66E22EC13F0E552E552A4
:10229000E552C2DFDF2A010EE6E3DB2AE4D72ED8BF
:1022A0000E0E4A6E080E1CD8020EDB2A030EC9E37E
:1022B000DB2AC7D7D950FD0FE96EFF0EDA20EA6E90
:1022C000EE50ED1002E08B7001D08B72040EE15CD9
:1022D00002E2E16AE552E16EE552E7CFD9FF120072
:1022E0004B6E4C6A4AC0E6FFE66E4CC0E6FFDEEC81
:1022F00012F04D6E050EE15E4D5012005EC2E6FF1B
:062300005FC2E6FF1200BF
:0A230600DACFE4FFE652E552E5CF1E
:10231000DAFF1100D8CFE4FFE0CFE4FFE46EDACFBC
:10232000E4FFE2CFDAFFE9CFE4FFEACFE4FF00EE1B
:102330004AF0080EE80403E3EECFE4FFFBD7E652D1
:1023400015D8E55200EE51F0080EE80403E3E5CF9E
:10235000EDFFFBD7E5CFEAFFE5CFE9FFE5CFDAFFF9
:10236000E550E5CFE0FFE5CFD8FF10009EA203D0F7
:1023700031EC0AF09E9212000201602B000E6123E4
:102380006151800B02E08B8212008B9212007E6AF8
:102390007F6A0F0EC16E93689468140E616E00011F
:1023A0007B6B00017C6B00017D6B1FEC0AF0040E5F
:1023B000E66EF20EE66EF5EC11F0E552E552D08EC7
:1023C000F28CF28E9F9212006EEC10F083EC10F003
:1023D000060E00017B5D05E16450020B02E152EC48
:0A23E0000CF01200D4DFF0DFFED78E
:0623EA00D9CFE6FFE1CFB0
:1023F000D9FFFE0EDBCFE6FFBEEC13F0E552FD0E7B
:10240000DB50CB6EE552E7CFD9FF1200D9CFE6FF04
:10241000E1CFD9FFFE0EDB5002E1010E0AD0FE0E25
:10242000DB0402E1030E05D0FE0EDB50020804E1DE
:10243000070EE66EE66A22D0FE0EDB50030802E1CC
:10244000030E05D0FE0EDB50040804E1070EE66E15
:10245000010E13D0FE0EDB50050803E1030EE66EFD
:102460000BD0060EF36EFE0EDBCFF4FFF350F45CE0
:1024700008E3FE0EDBCFE6FF020EE66EB6DFE552A6
:0A248000E552E552E7CFD9FF120044
:06248A001E0EF66E080EA6
:10249000F76E000EF86E00010900F550766F090026
:1024A000F550776F03E1766701D03DD00900F55014
:1024B000716F0900F550726F0900F550736F0900D4
:1024C0000900F550E96E0900F550EA6E09000900AF
:1024D0000900F550746F0900F550756F0900090087
:1024E000F6CF78F0F7CF79F0F8CF7AF071C0F6FF39
:1024F00072C0F7FF73C0F8FF0001745302E1755317
:1025000007E00900F550EE6E7407F8E27507F9D799
:1025100078C0F6FF79C0F7FF7AC0F8FF00017607B0
:08252000000E775BBFD712002B
:0825280012010002000000088E
:10253000D8043C0002000102030109022900010144
:1025400000C032090400000203000000092111014B
:102550000001221D0007058103400001070501035A
:10256000400001040309040E0341005600520065B7
:10257000007400630012035000490043003100382A
:10258000007300700078000A033000300030003122
:10259000000600FF0901A10119012940150026FFCD
:1025A00000750895408100190129409100C03A2525
:0C25B0003A2563256725752587255A1FED
:0425BC00D9CFE6FF8E
:1025C000DACFE6FFE1CFD9FFE2CFDAFFE652FB0E2A
:1025D000DBCFF6FFFC0EDBCFF7FFFD0EDBCFF8FF06
:1025E0000800F550DF6EDF5024E0F90EDBCFE6FF88
:1025F000FA0EDBCFE6FFDFCFE6FF22EC13F0E55269
:10260000E552E552F3CF4AF0F4CF4BF00001F31C52
:1026100005E14B1C03E1F368F4680DD0D950FB0FC2
:10262000E96EFF0EDA20EA6EEE2A000EEE22EE22AE
:10263000CED7F36AF46AE552E552E5CFDAFFE7CF89
:04264000D9FF1200AC
:0C264400D9CFE6FFDACFE6FFE1CFD9FFE7
:10265000E2CFDAFFFB0EDBCF4AF0FC0EDBCF4BF014
:102660000001800E4B141AE1FB0EDBCFE9FFFC0EDC
:10267000DBCFEAFFEECFF3FFEDCFF4FFEE2A000E43
:10268000EF22F3CFE9FFF4CFEAFFFD0EDBCFEFFF40
:10269000EF504B6AF36E4BC0F4FF10D0FB0EDB50D3
:1026A000FE0806E1FD0EDBCFE6FFF7EC13F005D0E8
:1026B000FD0EDBCFE6FF64EC13F0E552E552E5CF0B
:0826C000DAFFE7CFD9FF120099
:0826C800D9CFE6FFE1CFD9FFF5
:1026D000E652DF6AFE0EDB500A0802E1010EDF6EF1
:1026E000100E0001705D02E3010EDF6EDF5006E0A8
:1026F0000001705103E0E4EC11F0FAD7100E705DA8
:102700000AE27051702BEA6A600FE96E000EEA224D
:10271000FE0EDBCFEFFF010EF36EF46AE552E552D9
:06272000E7CFD9FF120013
:0A272600D9CFE6FFDACFE6FFFA0E86
:10273000E3CFD9FFFB0EE3CFDAFFFC0EE3CFE9FFD7
:10274000FD0EE3CFEAFFE9CFF3FFEACFF4FFF80E87
:10275000E35003E1F90EE35008E0F80EE30602E26D
:10276000F90EE306DECFEEFFF2D7FF0EE3CFDAFF7E
:0C277000E552FF0EE3CFD9FFE552120046
:04277C00D9CFE6FFCC
:10278000DACFE6FFE1CFD9FFE2CFDAFFFD0EDB5073
:10279000FB0BCA6ECC6A9E92FD0EDBAE02D09D8210
:1027A00001D09D92CA84E552E5CFDAFFE7CFD9FF89
:0227B000120015
:0E27B200000EF36E00EE00F0030E01D81200D0
:1027C000EA6002D0EE6AFCD7F350E9601200EE6ACC
:0227D000FCD734
:0E27D20010EE80F020EE80F0F86A539C45EC8B
:0E27E00012F003EC04F0F2EC11F0FBD7120043
:0227EE00FF0EDC
:1027F000E350ACBA04D0AF6AAB8EAC8A949CACA266
:0A280000FED7AD6EF36EF46A12000D
:02280A000000CC
:02280C00FFFFCC
:01280E0005C4
:01280F0000C8
:0128100000C7
:020000040030CA
:0100000000FF
:0100010032CC
:0100020001FC
:010003001EDE
:0100050000FA
:010006008178
:0100080003F4
:01000900C036
:01000A0003F2
:01000B00E014
:01000C0003F0
:01000D0040B2
:00000001FF
