:020000040000FA
:06000000C2EF17F0120030
:0600080004EF04F01200F9
:060018000CEF04F01200E1
:06080000C2EF17F0120028
:020806001200DE
:0608080026EF16F01200BD
:02080E000A00DE
:0808100048656C6C6F203A0092
:060818002DEF16F01200A6
:02081E000500D3
:10082000CB2F00006A02000002000000CA2F000067
:100830006C02000001000000C82F000068020000E8
:1008400002000000BE2F0000500200000A0000005D
:0C085000BC2F0000660200000200000047
:04085C00D9CFE6FF0B
:10086000E1CFD9FF00000000000000000000000000
:1008700000000000FE0EDB06F5E1E552E7CFD9FFF0
:100880001200D9CFE6FFE1CFD9FFFA0EE66EE6DF20
:10089000E552FA0EE66EE2DFE552FA0EE66EDEDFB4
:1008A000E552FA0EE66EDADFE552FE0EDB06EDE10A
:1008B000E552E7CFD9FF1200D9CFE6FFE1CFD9FF4C
:1008C000FE0EDB501CE0FE0EDB50486E496A4934D8
:1008D00011E24850C808000E49540CE2FE0EDB50ED
:1008E000486E496AC80E485E000E495A4850E66E86
:1008F000C8DF04D0FE0EDBCFE6FFB0DFE552E552E5
:10090000E7CFD9FF1200D9CFE6FFE1CFD9FF020E22
:10091000E126DF6AFC0EDB50DF5C1AE2FD0EDB50E5
:10092000010B02E08A8801D08A988A8CD950FD0F89
:10093000E96EFF0EDA20EA6E010E0F0B06E0EC52B4
:10094000D890ED32EF32E806FAE18A9CDF2AE2D74E
:10095000020EE15C02E2E16AE552E16EE552E7CFA8
:10096000D9FF1200D9CFE6FFE1CFD9FFE652DF6A07
:10097000FD0EDB04DF5C10E2FE0EDBA002D08A88F5
:1009800001D08A988A8CDBCFF3FFF390F342F3CF48
:10099000DBFF8A9CDF2AECD7FE0EDBA002D08A8820
:1009A00001D08A988A8CFC0EDB5005E0FC0EDBCF70
:1009B000E6FF67DFE552FE0EDBCFF3FFF390F34275
:1009C000F3CFDBFF8A9CE552E552E7CFD9FF120057
:1009D000D9CFE6FFE1CFD9FFFE0EDB5002E09398BE
:1009E00001D09388E552E7CFD9FF1200D9CFE6FFB7
:1009F000E1CFD9FFFB0EDBCFE6FF040EE66EFE0E65
:100A0000DBCFE6FFAFDFE552E552E552100EE66EB2
:100A1000FC0EDBCFE6FFFD0EDBCFE6FF74DFE55219
:100A2000E552E552E552E7CFD9FF1200D9CFE6FFF4
:100A3000E1CFD9FFE66AFE0EDB50486E496A0E0E22
:100A4000491248C0E6FF49C0E6FFE66ACFDFE5523B
:100A5000E552E552E552E66AFD0EDB50486E496A02
:100A6000E8506E0E491248C0E6FF49C0E6FFE66A4C
:100A7000BDDFE552E552E552E552E552E7CFD9FF39
:100A80001200F80EE66E14C2E6FFD0DFE552E55222
:100A9000F70EE66E13C2E6FFC9DFE552E552F60E29
:100AA000E66E12C2E6FFC2DFE552E5521200D9CF70
:100AB000E6FFE1CFD9FF020EE126010EDB6A040E4C
:100AC000E66E090EE66EE66A1EDFE552E552E55275
:100AD000080EE66E000EE66EE66A15DFE552E55298
:100AE000E552E66A75DFE552080EDF6E8A8C010E6C
:100AF000DBCFF3FFF390F342F3CFDBFF81B8DB8E64
:100B00008A9CDF06F3E1E66E63DFE552010EDB50FF
:100B1000486E020EE15C02E2E16AE552E16E485085
:100B2000E552E7CFD9FF1200D9CFE6FFE1CFD9FFD9
:100B3000080EE12611C2DFFF010E15C2DBFF020E17
:100B400016C2DBFFD950040FE96EDACFEAFF170EA9
:100B5000EE6E020EED6E030EDB6ADF50F36E030ED7
:100B6000DBCFF4FFF350F45C32E2D950040FE96EAE
:100B7000DACFEAFFEECFF3FFEDCFF4FF020EEE2661
:100B8000000EEF22F3CFE9FFF4CFEAFF060EEECF1F
:100B9000DBFF070EEDCFDBFF020EDBCFE6FF040E1F
:100BA000E66E010EDBCFE6FFDDDEE552E552E552F3
:100BB000100EE66E060EDBCFE6FF070EDBCFE6FF7C
:100BC000A2DEE552E552E552030EDB2AC6D7080E37
:100BD000E15C02E2E16AE552E16EE552E7CFD9FF5E
:100BE0001200D9CFE6FFE1CFD9FF020EE12649DF9F
:100BF000010E11C2DBFFDF6A010EDB50DF5C0DE28C
:100C000056DFE66EDF50EA6A080FE96E000EEA2250
:100C1000E552E750EF6EDF2AEFD7020EE15C02E209
:100C2000E16AE552E16EE552E7CFD9FF1200D9CF74
:100C3000E6FFE1CFD9FF070EE12611C2DFFF010E6B
:100C400012C2DBFFD950020FE96EDACFEAFF130EB2
:100C5000EE6E020EED6ED950040FE96EDACFEAFFA8
:100C6000080EEE6E000EED6EDF504DE0020EDBCF93
:100C7000E9FFDB2A030EDBCFEAFF01E3DB2A060EE6
:100C8000EFCFDBFFDBB68B8CDBA68B9CDBB48B8ED4
:100C9000DBA48B9EDBB28A88DBA28A98DBB08A8CCD
:100CA000DBA08A9CDBBE948CDBAE949CDBBC948E78
:100CB000DBAC949EDBBA9388DBAA9398DBB8938C69
:100CC000DBA8939C150E0201105D16E1060EDB6A8F
:100CD00082BCDB8682BEDB8481B8DB8281BCDB80A8
:100CE000040EDBCFE9FFDB2A050EDBCFEAFF01E3D1
:100CF000DB2A060EDBCFEFFF010EDBCFE6FFDCDDEC
:100D0000E552DF06B1D7070EE15C02E2E16AE55287
:100D1000E16EE552E7CFD9FF1200D9CFE6FFE150EF
:100D2000FD0FE96EFF0EDA20EA6EEE50ED1002E0E4
:100D30008B8C01D08B9CE552E7CFD9FF1200D9CF25
:100D4000E6FFE1CFD9FF0C0EE126110EDE6E020E9A
:100D5000DD6ED950020FE96EDACFEAFF080EEE6EB3
:100D6000000EED6E060EDB6A070EDB6A080EDB6A0C
:100D7000010EF36E0B0EF3CFDBFFDFCFE9FFDF2AAF
:100D8000010EDBCFEAFF01E3DB2A090EEFCFDBFF29
:100D9000DB5005E10C0EE15C01E3BFD0BCD0090ED5
:100DA000DB503F0BE76E0A0EE7CFDBFF090EDBAE31
:100DB00038D0040EDB6A0A0EDB50F36E040EDBCF74
:100DC000F4FFF350F45CD9E2DFCFE9FFDF2A010E34
:100DD000DBCFEAFF01E3DB2A050EEFCFDBFFDBBE53
:100DE0008B8CDBAE8B9CDBBC8B8EDBAC8B9EDBB849
:100DF0008A8CDBA88A9CE66A5FDDE552050EDBB6CD
:100E00008B8CDBA68B9CDBB48B8EDBA48B9EDBB048
:100E10008A8CDBA08A9CE66A4FDDE552040EDB2A51
:100E2000CAD7060EDB6A070EDB6A080EDB6A010E04
:100E3000F36E0B0EF3CFDBFF8B9C040EDB6A0A0E06
:100E4000DB50F36E040EDBCFF4FFF350F45C59E299
:100E50008A9C060EDB5012E1DFCFE9FFDF2A010E8C
:100E6000DBCFEAFF01E3DB2A070EEFCFDBFF080E43
:100E7000DB6A010EF36E0B0EF3CFDBFF0B0EDBCF45
:100E8000E6FF070EDB50E552E71402E08B8E01D03F
:100E90008B9E0A0EDB04F36E040EDB50F35C08E15C
:100EA000090EDB50400BE66EE66A37DFE552E5528D
:100EB00081A809D0080EDBCFE7FF0B0EDB50E7124D
:100EC000080EE7CFDBFF8A8C0B0EDBCFF3FFF39E20
:100ED000F346F3CFDBFF060EDB2ADB5008080EE1FA
:100EE000020EDBCFE9FFDB2A030EDBCFEAFF01E3D3
:100EF000DB2A080EDBCFEFFF060EDB6A040EDB2ACF
:100F00009ED7020EDBCFE9FF030EDBCFEAFF080E10
:100F1000DBCFEFFF32D7E16AE552E16EE552E7CF72
:100F2000D9FF1200D9CFE6FFE1CFD9FFE652DF6A41
:100F3000FD0EDB50DF5C0FE28A9CFE0EDBB08A8880
:100F4000DBA08A98DBCFF3FFF390F342F3CFDBFF14
:100F50008A8CDF2AEDD7E552E552E7CFD9FF1200A0
:100F6000D9CFE6FFE1CFD9FF040EE66EFE0EDBCF50
:100F7000E6FFD8DFE552E552E552E7CFD9FF120090
:100F8000D9CFE6FFE1CFD9FF080EE66EFE0EDBCF2C
:100F9000E6FFC8DFE552E552E552E7CFD9FF120080
:100FA000D9CFE6FFE1CFD9FF040EE126D9CFE9FF83
:100FB000DACFEAFFFB0EDBCFEEFFFC0EDBCFEEFF5E
:100FC000FD0EDBCFEEFFFE0EDBCFEEFFE66AC8DFE5
:100FD000E552DFCFE6FFD4DFE552010EDBCFE6FFBF
:100FE000CFDFE552020EDBCFE6FFCADFE5528A9C77
:100FF000040EE15C02E2E16AE552E16EE552E7CF00
:10100000D9FF1200E66AE66AE66AE66AC9DFE552D7
:10101000E552E552E5521200F5DF02EF08F0E66A0C
:10102000020EE66E040EE66EE66ABADFE552E5529F
:10103000E552E55202EF08F0D9CFE6FFE1CFD9FF44
:10104000040EE12614C2DFFF010EDB6A020EDB6A2A
:10105000030EDB6A040E4C6ED9CFE9FFDACFEAFF4C
:10106000E8501F0BEECF48F0EECF49F0EECF4AF03C
:10107000EECF4BF007E0D890483649364A364B362B
:10108000E806F9E14A8A48C0E6FF49C0E6FF4AC0DF
:10109000E6FF4BC0E6FF84DFE552E552E552E5523C
:1010A000900EE66E010EE66E880EE66EE66A78DF5A
:1010B000E552E552E552E55212C2DFFF010E13C2BE
:1010C000DBFFFE0EDBCF48F0496A4A6A4A8A4B6A68
:1010D0004ABE4B68D9CFE9FFDACFEAFFEECF4CF03A
:1010E000EECF4DF0EECF4EF0EFCF4FF0040E1F0BD2
:1010F00007E0D8904C364D364E364F36E806F9E1CB
:101100004C5048124D5049124E504A124F504B12FB
:1011100048C0E6FF49C0E6FF4AC0E6FF4BC0E6FF15
:101120003FDFE552E552E552E552040EE15C02E292
:10113000E16AE552E16EE552E7CFD9FF120062DFC6
:101140006EDF060EE66E78DFE552470EE66E780E2D
:10115000E66E200EE66EE66A23DFE552E552E552C2
:10116000E55202EF08F04EDF5ADF1A0EE66EE66A2D
:10117000240EE66EE66A14DFE552E552E552E552CA
:101180000A0EE66E3B0EE66E880EE66EE66A08DF35
:10119000E552E552E552E552070EE66E4DDFE552A7
:1011A00012003ADF610EE66EE70EE66EA80EE66EFE
:1011B000E66AF6DEE552E552E552E5520CEF08F03C
:1011C000D9CFE6FFE1CFD9FF020EE126DF6A8A9C84
:1011D000010EDB6A080EF36E010EDBCFF4FFF35055
:1011E000F45C09E28A8CDF90DF4281B8DF8E8A9C52
:1011F000010EDB2AEFD7DF50486E020EE15C02E2FF
:10120000E16AE552E16E4850E552E7CFD9FF12009E
:10121000D9CFE6FFE1CFD9FF020EE126D1DFDF6EA5
:10122000CFDFE76E010EE7CFDBFFDECF48F0DDCF8B
:1012300049F048C0F3FF49C0F4FF020EE15C02E24E
:10124000E16AE552E16EE552E7CFD9FF1200D9CF4E
:10125000E6FFE1CFD9FF020EE126010EE66E80DE49
:10126000E552E66A8DDEE5528A9C9388D1DFF3CFA2
:10127000DEFFF4CFDDFF9398C5DEDECF48F0DDCF93
:1012800049F048C0F3FF49C0F4FF020EE15C02E2FE
:10129000E16AE552E16EE552E7CFD9FF1200D9CFFE
:1012A000E6FFE1CFD9FF020EE1267BDFB8DEE66A7A
:1012B0003B0EE66E800EE66EE66A72DEE552E552A1
:1012C000E552E552200EE66E3C0EE66E880EE66EA6
:1012D000E66A66DEE552E552E552E55293DEB7DF97
:1012E000F3CFDEFFF4CFDDFF010EDB50800BDEE13C
:1012F000020EE15C02E2E16AE552E16EE552E7CFFF
:10130000D9FF1200D9CFE6FFE1CFD9FF050EE126C4
:10131000010E15C2DBFF020E11C2DBFFD950030F15
:10132000E96EDACFEAFF170EEE6E020EED6E010ED9
:10133000DB5001E118DFDF6A020EDB50DF5C01E306
:10134000E7D0E66A030EE66EEB0EE66EE66A28DE8E
:10135000E552E552E552E552486A496A200E4A6E66
:101360004B6A030EDBCFE9FF040EDBCFEAFFEECFC3
:101370004CF0EFCF4DF04E6A4F6A1F0B07E0D8904C
:101380004C364D364E364F36E806F9E14C50481291
:101390004D5049124E504A124F504B1248C0E6FF72
:1013A00049C0E6FF4AC0E6FF4BC0E6FFF9DDE55263
:1013B000E552E552E552010E486E496A200E4A6E2A
:1013C0004B6A020EE76E030EDBCFE9FF040EDBCFA4
:1013D000EAFFE750E926000EEA22EECF4CF0EFCF0D
:1013E0004DF04E6A4F6A040E1F0B07E0D8904C3642
:1013F0004D364E364F36E806F9E14C5048124D5006
:1014000049124E504A124F504B1248C0E6FF49C095
:10141000E6FF4AC0E6FF4BC0E6FFC2DDE552E552FB
:10142000E552E552020E486E496A200E4A6E4B6A3A
:10143000040EE76E030EDBCFE9FF040EDBCFEAFFFD
:10144000E750E926000EEA22EECF4CF0EFCF4DF048
:101450004E6A4F6A040E1F0B07E0D8904C364D368B
:101460004E364F36E806F9E14C5048124D504912BD
:101470004E504A124F504B1248C0E6FF49C0E6FF9B
:101480004AC0E6FF4BC0E6FF8BDDE552E552E55270
:10149000E552B60EE66E0B0EE66EBB0EE66EE66A23
:1014A0007FDDE552E552E552E552B6DDB60EE66E59
:1014B000DB0EE66EBB0EE66EE66A72DDE552E552C5
:1014C000E552E552A9DDB60EE66EEB0EE66EBB0EFA
:1014D000E66EE66A65DDE552E552E552E5529CDDD1
:1014E000B60EE66E1B0EE66EBB0EE66EE66A58DDC5
:1014F000E552E552E552E5528FDDD950030FE96E12
:10150000DACFEAFF060EEE26000EED22DF2A14D710
:10151000010EDB50020802E1C2DE81DD050EE15C56
:1015200002E2E16AE552E16EE552E7CFD9FF12002F
:10153000D9CFE6FFE1CFD9FF040EE126010E11C29B
:10154000DBFFD950020FE96EDACFEAFF080EEE6E2C
:10155000000EED6EF4DDDF6A010EDB50DF5C01E3AF
:1015600077D0960EE66E0B0EE66EBA0EE66EE66A63
:1015700017DDE552E552E552E5524EDD68DEF3CF68
:1015800048F0F4CF49F0020EDBCFE9FF030EDBCFCA
:10159000EAFFF3CFEEFF49C0EDFFB60EE66EDB0EBD
:1015A000E66EBA0EE66EE66AFBDCE552E552E552FF
:1015B000E55232DDD60EE66ED30EE66EBA0EE66E5C
:1015C000E66AEEDCE552E552E552E55225DD3FDE06
:1015D000F3CF48F0F4CF49F0020EE76EDBCFE9FF1E
:1015E000030EDBCFEAFFE750E926000EEA22F3CF35
:1015F000EEFF49C0EDFFB60EE66E0B0EE66EBA0EBC
:10160000E66EE66ACDDCE552E552E552E55204DDD0
:101610001EDEF3CF48F0F4CF49F0040EE76E020E61
:10162000DBCFE9FF030EDBCFEAFFE750E926000E30
:10163000EA22F3CFEEFF49C0EDFFD950020FE96E69
:10164000DACFEAFF060EEE26000EED22DF2A84D75F
:10165000040EE15C02E2E16AE552E16EE552E7CF99
:10166000D9FF1200120E0201105D03E194EC05F0A7
:1016700027D0100E105D03E141EC05F021D0110ED2
:10168000105D03E1F1EC05F01BD0140E105D03E0DA
:10169000150E105D03E117EC06F012D0160E105D6A
:1016A00002E130DE0DD0170E105D02E141DF08D0FF
:1016B000180E105D03E0190E105D02E19FEC06F0BC
:1016C000010E02011015066E1200D9CFE6FFDACF27
:1016D000E6FFFA0EE3CFD9FFFB0EE3CFDAFFFC0EF5
:1016E000E3CFE9FFFD0EE3CFEAFF040EDECFEEFF0E
:1016F000DECFEEFFDECFEEFFDECFEEFFDECFEEFF82
:10170000DECFEEFFDECFEEFFDECFEEFFDECFEEFF71
:10171000DECFEEFFDECFEEFFDECFEEFFDECFEEFF61
:10172000DECFEEFFDECFEEFFDECFEEFFE82EDED720
:10173000FF0EE3CFDAFFE550FF0EE3CFD9FFE55010
:02174000120095
:0E174200D9CFE6FFE1CFD9FFE652020EDF6EEF
:10175000FE0EDB50DF5C02E2DF2AFAD7E552E552EB
:10176000E7CFD9FF120012001200D9CFE6FFE1CF78
:10177000D9FFE652DF6AFE0EDBBE8B8EDBAE8B9EA0
:101780008A8C81B8DF8E8A9CDBBC8B8EDBAC8B9E17
:101790008A8C81B8DF8C8A9CDBBA8B8EDBAA8B9E0D
:1017A0008A8C81B8DF8A8A9CDBB88B8EDBA88B9E03
:1017B0008A8C81B8DF888A9CDBB68B8EDBA68B9EF9
:1017C0008A8C81B8DF868A9CDBB48B8EDBA48B9EEF
:1017D0008A8C81B8DF848A9CDBB28B8EDBA28B9EE5
:1017E0008A8C81B8DF828A9CDBB08B8EDBA08B9EDB
:1017F0008A8C81A802D0000EDF808A9CDF50E552DF
:10180000E552E7CFD9FF1200D9CFE6FFE1CFD9FFEC
:10181000E652DF6AFE0EDBBE8B8EFE0EDBAE8B9ECB
:101820008A8C0000000081B8DF8E8A9C00000000D6
:10183000FE0EDBBC8B8EFE0EDBAC8B9E8A8C00001A
:10184000000081B8DF8C8A9C00000000FE0EDBBA2D
:101850008B8EFE0EDBAA8B9E8A8C0000000081B866
:10186000DF8A8A9C00000000FE0EDBB88B8EFE0E25
:10187000DBA88B9E8A8C0000000081B8DF888A9CE0
:1018800000000000FE0EDBB68B8EFE0EDBA68B9EEC
:101890008A8C0000000081B8DF868A9C000000006E
:1018A000FE0EDBB48B8EFE0EDBA48B9E8A8C0000BA
:1018B000000081B8DF848A9C00000000FE0EDBB2CD
:1018C0008B8EFE0EDBA28B9E8A8C0000000081B8FE
:1018D000DF828A9C00000000FE0EDBB08B8EFE0EC5
:1018E000DBA08B9E8A8C0000000081A802D0000E35
:1018F000DB808A9C00000000DF5000D0E552E552FA
:10190000E7CFD9FF1200D9CFE6FFE1CFD9FF020E12
:10191000E12602016C5105E1FE0EDBCFE6FF25DF7B
:1019200006D06C0506E1FE0EDBCFE6FF6DDFE5526B
:101930002CD08A9CDF6A080EDF5C25E2FE0EDBBE3F
:101940008B8EDBAE8B9E010EDBCFE7FFDB50E726F5
:10195000010EE7CFDBFF6CC2E6FFF3DEE55281A8A4
:1019600002D0010EDB808A8CFE0EDBCFE7FFDB505E
:10197000E726FE0EE7CFDBFF6CC2E6FFE2DEE552B4
:101980008A9CDF2AD8D7010EDB50486E020EE15C3C
:1019900002E2E16AE552E16E4850E552E7CFD9FF35
:1019A00012008B9C8A9C949C939C949E9388640EBA
:1019B000E66EC7DEE5528B8C640EE66EC2DEE55243
:1019C0008B9C1200948C938C948E8B9C8A9C8B9E07
:1019D00012008A8C640EE66EB4DEE5528A9C640EB8
:1019E000E66EAFDEE5521200D9CFE6FFE1CFD9FFB8
:1019F000FE0EDBCF6CF2E552E7CFD9FF1200D9CF54
:101A0000E6FFE1CFD9FFE652DF6A040EDF5C1CE29D
:101A1000DF50E76EFD0EDBCFE9FFFE0EDBCFEAFF06
:101A2000E750E926000EEA22EF50E66E6CDFE55241
:101A3000E66EDF50EA6A080FE96E000EEA22E55210
:101A4000E750EF6EDF2AE1D7E552E552E7CFD9FF45
:101A50001200D9CFE6FFE1CFD9FFA66AFE0EDB5018
:101A6000A96EA680A850E552E7CFD9FF1200D9CFC2
:101A7000E6FFE1CFD9FFFE0EDB50A96EFD0EDB5075
:101A8000A86E040EA66E550EA76EAA0EA76EA682AD
:101A9000A6B2FED7E552E7CFD9FF1200D9CFE6FFB5
:101AA000E1CFD9FF050EE126F00EE66ED2DFE5525A
:101AB000040872E1030EDB6A040EDB6AF10EF36EBA
:101AC000010EF3CFDBFF020EDB6A010EDBCF48F025
:101AD000020EDBCF49F0D890495004E6F50E485C81
:101AE000000E49581AE2010EDBCFE6FFB2DFE552E5
:101AF000DF6E200E486EDF50D880485408E3DF5078
:101B00007A0805E3030EDB2A040E01E3DB2A010E4B
:101B1000DB2A020EDAE3DB2AD8D7D950030FE96EAD
:101B2000DACFEAFF040EEE1837E1ED5035E1010E91
:101B3000DB6A020EDB6A010EDBCF48F0020EDBCF60
:101B400049F0D890495004E6040E485C000E49580C
:101B500023E2010EDBCF48F0020EDBCF49F0F10E9D
:101B60004824E66E76DFE552E66E010EDBCFE9FF34
:101B7000020EDBCFEAFFD890E936EA36520EE926AC
:101B8000020EEA22E552E750EE6EED6A010EDB2A04
:101B9000020ED1E3DB2ACFD7050EE15C02E2E16A57
:101BA000E552E16EE552E7CFD9FF1200F00E8B1639
:101BB0009416050EE66E98EC15F0E552036A0001E6
:101BC000046B056B0001706B066A1200140E096E3F
:101BD000010E0A6E0B6E0C6A11C20DF0066E120039
:101BE000D9CFE6FFE1CFD9FF060EE126010E11C2E3
:101BF000DBFF010EDB50C00BE76E020EE7CFDBFF11
:101C0000010EDB503F0BE76E010EE7CFDBFF030E4B
:101C100012C2DBFF040E13C2DBFF020EDBAE16D0D6
:101C200012C2F6FF13C2F7FFF86ADF6A010EDB503B
:101C3000DF5C0BE20900DF50EA6A080FE96E000E74
:101C4000EA22F5CFEFFFDF2AF1D73ED0020EDBAC60
:101C500020D002011251E76E050EE7CFDBFFDF6AED
:101C6000010EDB50DF5C14E2050EDBCFF3FFDB2A55
:101C7000F350E66EEEDEE552E66EDF50EA6A080FDC
:101C8000E96E000EEA22E552E750EF6EDF2AE8D750
:101C90001BD0DF6A010EDB50DF5C16E2030EDBCFE8
:101CA000E9FFDB2A040EDBCFEAFF01E3DB2AEF507A
:101CB000E66EDF50EA6A080FE96E000EEA22E5528E
:101CC000E750EF6EDF2AE6D7010E066E060EE15CE6
:101CD00002E2E16AE552E16EE552E7CFD9FF120078
:101CE000D9CFE6FFE1CFD9FF050EE126010E11C2E3
:101CF000DBFF020E12C2DBFF030E13C2DBFF010E7D
:101D0000DBAC0ED002011251E76E040EE7CFDBFF11
:101D100014C2E6FFDBCFE6FFAADEE552E5521FD094
:101D20000201155114E0020EDBCFE9FF030EDBCFF9
:101D3000EAFFEF5015151411E66E020EDBCFE9FF36
:101D4000030EDBCFEAFFE552E750EF6E08D0020E3C
:101D5000DBCFE9FF030EDBCFEAFF14C2EFFF050E76
:101D6000E15C02E2E16AE552E16EE552E7CFD9FFBC
:101D70001200646A606A1200D9CFE6FFE1CFD9FF92
:101D8000020EE12615C2DFFFDF500DE0F29CF29E4D
:101D90000A0EE66E41EC04F0E552EBDF0A0EE66E49
:101DA00041EC04F0E552FB6A13C2FAFF010E12C2C5
:101DB000DBFF0153F96E020EE15C02E2E16AE552DB
:101DC000E16EE552E7CFD9FF120007C008F070C0FE
:101DD00009F03F0E00017015E66EE66A600EE66ED1
:101DE000000EE66E0A0EE66E000EE66E6CEC17F064
:101DF000486E060EE15E48500001706B010E066EE3
:101E000012000001706B0001700E076F12C2E6FF36
:101E100013C2E6FF0DEC15F0E552E5520001710E1C
:101E2000076F1200D9CFE6FFE1CFD9FFE65211C20A
:101E3000DFFFDF5005E0DFCFE6FF41EC04F0E552C5
:101E4000E552E552E7CFD9FF1200AA0E086EA00EA8
:101E5000035C09E1020E096EC2B2FED7C3500A6EDE
:101E6000C4500B6E08D0010E096E04C0E9FF05C016
:101E7000EAFFEF500A6E010E066E120011C203F067
:101E800012C204F013C205F0A00E035C08E19388AF
:101E9000290EC26EC16A3E0EC06EC09EC28225EF80
:101EA0000FF0020112A902D08DDD05D012AF02D0D1
:101EB00090DD01D076DDAA0E086E010E066E1200CE
:101EC000110EE66E020EE66E9ADDE552E552010E47
:101ED00002011015066E120011C200F012C201F0CC
:101EE00013C202F0120011C2E6FF7EDDE5521200BD
:101EF000D9CFE6FFE1CFD9FFE652020110A304D00B
:101F0000400E006E016A026ADF6A02011151DF5C55
:101F10002DE20050E66EF7DCE5520250E66EF3DC8F
:101F2000E5520150E66EEFDCE552020EDF24EA6A6C
:101F3000100FE96E020EEA22EF50E66EE4DCE55285
:101F4000E66EDF50EA6A080FE96E000EEA22E552FB
:101F5000E750EF6E880E001406E0012A015001E1FF
:101F6000022A009601D00086DF2ACFD710A50ED016
:101F7000020E1125496A100F486E020E492248C010
:101F8000E6FF49C0E6FF3BDDE552E552010E0201E6
:101F90001015066EE552E552E7CFD9FF1200280E64
:101FA0000201105D02E278EF0FF02B0E105D02E1EE
:101FB00051EF0FF02A0E105D02E16CEF0FF0280ECA
:101FC000105D03E0290E105D02E160EF0FF02C0EB2
:101FD000105D02E173EF0FF02E0E105D01E122DFC4
:101FE000120006503BE102010851800B37E1100E50
:101FF000E66E020EE66E3BEC14F0E552E55210C2BE
:1020000008F0200E0201105D02E3C9DF27D0100E98
:10201000105D03E332EC0BF021D0050E105D02E100
:10202000DFDD1CD0040E105D02E15ADE17D0060E73
:10203000105D02E1A1DE12D0070E105D02E11EDF8D
:102040000DD00D0E105D02E1C0DE08D00C0E105D4B
:1020500002E1D7DE03D0100501E1B8DD065011E042
:1020600002010CBF0ED0080EE66E000EE66E1CECF0
:1020700014F0E552E552066A035003E0020108BF7E
:04208000E4DE120088
:0C208400D9CFE6FFE1CFD9FFE652635050
:1020900032E16296020100513C0BE842E8420D0831
:1020A00028E1780E021923E1020E031920E1700ED7
:1020B000026F020E036FDF6ADF50486E496A080E36
:1020C000485C000E495813E2DF50EA6A780FE96E67
:1020D000020EEA22EF50E66EDF50EA6A700FE96EF8
:1020E000020EEA22E552E750EF6EDF2AE5D711D85B
:1020F0000AD048D808D0040E635C03E162965FD82A
:1021000002D0000E01D0010EE552E552E7CFD9FF13
:102110001200D9CFE6FFE1CFD9FFE652020104BF9A
:10212000046B0201626B5A6B5B6B606B616B00EC62
:1021300012F0DF6ADF50486E496A010E485C000EFB
:1021400049581AE202015B5117E1F76ADF34FE0BCE
:10215000F736F66E6C0EF6262D0EF7220900F5CF37
:1021600048F00800F5CF49F004D049C0FAFF4850C4
:10217000F96EFBDFDF2ADED7F9D8E552E552E7CF6B
:10218000D9FF1200020E02015A5D0EE1B2D802011F
:10219000780E026F020E036F080E016F00BD02D0B1
:1021A000C80E0BD0880E09D026D90201080E016F87
:1021B000700E026F020E036F8C0E006F1200040E81
:1021C00000017B5D0CE172C25CFF0F015C510008F5
:1021D00003E20001050E02D00001030E7B6F020135
:1021E0005A0510E111D8020E0201625D03E10201FD
:1021F000840E06D0020104BD02D0C80E01D0880EA4
:10220000046F1200FBEF11F0D9CFE6FFE1CFD9FF49
:10221000020EE1260201080E605D000E61590DE21A
:1022200060C2DEFF61C2DDFF625102E1010E03D038
:10223000620506E1020E626F03D0080EDE6EDD6AF3
:10224000020104930491010EDB500413DFCF05F269
:10225000000EDB500201605F010EDB50615B780E07
:102260005E6F020E5F6F00017CA31DD0D9CFE9FF26
:10227000DACFEAFFEE50ED1032E05CC2F6FF5DC24D
:10228000F7FF0800F5505EC2E9FF5FC2EAFFEF6E9C
:1022900002015E2B000E5F235C2B5D23DF06010E27
:1022A000E5E2DB06E3D7D9CFE9FFDACFEAFFEE506C
:1022B000ED1015E05CC2E9FF5DC2EAFFEF505EC2BF
:1022C000E9FF5FC2EAFFEF6E02015E2B000E5F23A3
:1022D0005C2B5D23DF06010EE6E2DB06E4D7020E8F
:1022E000E15C02E2E16AE552E16EE552E7CFD9FF37
:1022F0001200D9CFE6FFE1CFD9FF020EE126030E8F
:1023000002010015E76E010EE7CFDBFF01C2DFFF20
:10231000DE5002016027DD506123780E5C6F020EF3
:102320005D6FD9CFE9FFDACFEAFFEE50ED1014E090
:102330005CC2E9FF5DC2EAFFEF505EC2E9FF5FC227
:10234000EAFFEF6E5E2B000E5F235C2B5D23DF0642
:10235000010EE7E2DB06E5D7020EE15C02E2E16A8C
:10236000E552E16EE552E7CFD9FF12006498020111
:102370005B510BE10201080E016F700E026F020E3D
:10238000036F840E006F020123D0020170AF22D0D0
:10239000020160510201765D02016151020177592B
:1023A00004E276C260F277C261F22EDF0201010E12
:1023B0005A6F0201080E016F700E026F020E036F5A
:1023C000800E006F0201780E066F020E076FC80EB6
:1023D000046F12000201020E5A6F0201056BC80E53
:1023E000046F0201080E016F780E026F020E036F78
:1023F000C80E006F120002015A6B0201046B12003A
:1024000002017051600BE842E842E842E842E842CB
:10241000000901E012007151070A4CE00B0A4AE082
:10242000070A3BE0010A27E00B0A23E0020A21E049
:10243000030A1DE0080A12E0010A0EE00F0A0AE092
:10244000030A01E012000201010E5B6F0001040E9D
:102450007B6F12005BEF12F0D2EF12F00201010E5F
:102460005B6F02017D0E5C6F000E5D6F10D0F9EFA7
:1024700012F044EF13F00201010E5B6F0201745180
:1024800002015C6F5D6B7E0E5C27000E5D23000118
:102490007C930201010E606F12000201010E5B6F5E
:1024A00002017451EA6A7E0FE96E000EEA2272C2DE
:1024B000EFFF12001200800E0201705D72E1735195
:1024C000030A30E0010A0CE0030A62E10201010E96
:1024D0005B6F0201E40E5C6F2C0E5D6F120E55D027
:1024E0000201010E5B6F02017251F66EF76AD8901D
:1024F000F636F736600EF6262D0EF7220900F5CFD8
:102500005CF20A00F5CF5DF2020E0201F76A5C256B
:10251000F66E5D51F7220900F5CF60F20A00F5CFA3
:1025200061F236D00201010E5B6F030E0201725D93
:1025300016E17251F66EF76AD890F636F736640EE9
:10254000F6262D0EF7220900F5CF5CF20A00F5CF32
:102550005DF25CC2E9FF5DC2EAFFEF5016D0725136
:10256000F66EF76AD890F636F736640EF6262D0E1C
:10257000F7220900F5CF5CF20A00F5CF5DF25CC2EC
:10258000F6FF5DC2F7FF0800F5500201606F616B56
:10259000030E0201725D03E100017C931200000151
:1025A0007C8312000201010E5B6F070EE66E540E73
:1025B000E66E0F0EE66EEDEC14F0E552E552E552D4
:1025C000010EE66E7E0EE66E000EE66EEDEC14F089
:1025D000E552E552E55272C27DF00201725104E10A
:1025E0000001050E7B6F12000001060E7B6F06EFE7
:1025F00014F00201786B796B020170511F0B020A13
:1026000013E0030A0DE0010A31E10201010E5B6FE4
:102610000201788100017CA129D00201788326D0B3
:102620000201010E5B6F22D00201010E5B6F0201FD
:1026300074510F0B080DF350496A000F486E020EDB
:1026400049227451800B01E0010E040DF350020188
:1026500048245E6F000E49205F6F5EC2E9FFEA6E9C
:10266000EF50040B03E00201010E786F02015B05DD
:102670000AE10201780E5C6F020E5D6F00017C932F
:102680000201020E606F12000201720510E170512A
:102690001F0B00090CE10201010E5B6F030E02012A
:1026A000715D03E100017C8102D000017C91020197
:1026B000725136E170511F0B020832E174510F0B59
:1026C00000092EE00201010E5B6F020174510F0B35
:1026D000080DF350496A000F486E020E49227451EA
:1026E000800B01E0010E040DF350020148245E6FDF
:1026F000000E49205F6F030E0201715D02E1840E3E
:1027000003D074AF07D0400E5EC2E9FF5FC2EAFF9C
:10271000EF6E1200880E5EC2E9FF5FC2EAFFEF6E45
:022720001200A5
:0E272200020170511F0B010801E012007451FA
:1027300001E01200060E715D28E17351230A23E0C7
:10274000010A0FE0030A1FE10201020E5B6F0001A4
:102750007D0505E10201080E5C6F2D0E5D6F090E0F
:102760000FD00201020E5B6F00017D0505E1020141
:10277000430E5C6F2D0E5D6F00017D0504E11D0EA3
:102780000201606F616B00017C8302017051600B7C
:10279000E842E842E842E842E842010801E012006B
:1027A00071510B0A2BE0080A1BE0090A13E0080A22
:1027B00009E00B0A05E0080A01E0120004EF14F03A
:1027C00005EF14F00201020E5B6F0201630E5C6FF5
:1027D000020E0DD00201020E5B6F73C263F2120093
:1027E0000201020E5B6F0201640E5C6F020E5D6FF0
:1027F00000017C930201010E606F12000201020EC3
:102800005B6F72C264F21200120012000201656B6B
:102810000F011E0E546F0201400E096F800E0A6FE9
:10282000020E0B6F880E086F0201C00E0E6F020EB3
:102830000F6F400E0C6F1200D9CFE6FFE1CFD9FF2A
:10284000FD0EDBCFE6FFFE0EDBCFE6FFC00EE66E31
:10285000020EE66E65EC0BF0E552E552E552E552EC
:102860000201400E0D6F0C170C7D880E0C13E55203
:10287000E7CFD9FF1200D9CFE6FFE1CFD9FF0201A0
:10288000656B020108BF17D0800EE66E020EE66E81
:10289000FD0EDBCFE6FFFE0EDBCFE6FF65EC0BF0B7
:1028A000E552E552E552E5520201400E096F081764
:1028B000087D880E0813400EE552E7CFD9FF1200BD
:1028C00064A60CD800017B0508E164BA06D0626AF0
:1028D000606A60806088020E7B6F1200646A606AC2
:1028E00064860001010E7B6F120000017B5101E143
:1028F000120062B425D864B2120062B03AD862B84D
:1029000017D862BA24D8030E00017B5D01E21200E1
:1029100000017F6B040E7F5D0AE262A608D042ECE4
:1029200010F0000901E1629600017F2BF3D712003D
:10293000608462986482A194A0840300A094120031
:102940006492609462A402D06294FCD712000F01DA
:1029500053A10DD0800E0201005D07E1840E02013B
:10296000045D03E102018C0E006F0F015391629A26
:1029700012000F015F6B626A0F019F0E5B6F7B0E8F
:10298000606E0F015C6B070EE66E540EE66E0F0E66
:10299000E66E23D8E552E552E5520F01160E536F4D
:1029A00062A605D0629600D000D00000F9D76498E6
:1029B000FBEC11F00201080E016F0201700E026FB4
:1029C000020E036F02018C0E006F00017C9100016A
:1029D0007D6B0001030E7B6F1200D9CFE6FFE1CFC4
:1029E000D9FFFD0EDBCFE9FFFE0EDBCFEAFFFC0EC9
:1029F000DB5004E0EE6AFC0EDB06F9D7E552E7CFC8
:042A0000D9FF1200E8
:0C2A04000201662B000E67236751080BCF
:102A100002E08B8012008B901200D9CFE6FFE1CF4D
:102A2000D9FF040EE126020EDB6A030EDB6A020EFA
:102A3000DBCF48F0030EDBCF49F0080E485C000EF8
:102A400049584FE268C2E6FF69C2E6FF100E486EC1
:102A5000080E496E4A6A48C0E6FFE66E4AC0E6FFC5
:102A6000B7EC16F04B6E050EE15E4B50DE6ADD6A88
:102A7000DECF48F0DDCF49F0320E485C000E4958F9
:102A800016E268C2E6FF69C2E6FFDECF48F0DDCF9E
:102A900049F0200E4824E66EFBEC16F0E552E552B4
:102AA000E552B0DFDF2A010EE3E3DB2AE1D768C29B
:102AB000E6FF69C2E6FF0E0E486E080E496E4A6ACE
:102AC00048C0E6FFE66E4AC0E6FFB7EC16F04B6E74
:102AD000050EE15E4B50020EDB2A030EA8E3DB2A53
:102AE000A6D7D950FD0FE96EFF0EDA20EA6EEE5040
:102AF000ED1002E08B7001D08B72040EE15C02E2FB
:0E2B0000E16AE552E16EE552E7CFD9FF12001F
:022B0E00D9CF1D
:102B1000E6FFE1CFD9FFFE0EDBCFE6FF97EC17F023
:102B2000E552FD0EDB50CB6EE552E7CFD9FF120028
:102B3000D9CFE6FFE1CFD9FFFE0EDB5002E1010E57
:102B40000AD0FE0EDB0402E1030E05D0FE0EDB50C0
:102B5000020804E1070EE66EE66A22D0FE0EDB50A4
:102B6000030802E1030E05D0FE0EDB50040804E169
:102B7000070EE66E010E13D0FE0EDB50050803E1D2
:102B8000030EE66E0BD0060EF36EFE0EDBCFF4FFE7
:102B9000F350F45C08E3FE0EDBCFE6FF020EE66EB8
:0E2BA000B6DFE552E552E552E7CFD9FF12004D
:022BAE001E0EF9
:102BB000F66E080EF76E000EF86E00010900F55073
:102BC000766F0900F550776F03E1766701D03DD04D
:102BD0000900F550716F0900F550726F0900F5504A
:102BE000736F09000900F550E96E0900F550EA6EAF
:102BF000090009000900F550746F0900F550756F60
:102C000009000900F6CF78F0F7CF79F0F8CF7AF025
:102C100071C0F6FF72C0F7FF73C0F8FF0001745374
:102C200002E1755307E00900F550EE6E7407F8E213
:102C30007507F9D778C0F6FF79C0F7FF7AC0F8FFBB
:0C2C400000017607000E775BBFD7120082
:042C4C00DACFE4FFF8
:102C5000E652E552E5CFDAFF1100D8CFE4FFE0CF2E
:102C6000E4FFE46EDACFE4FFE652E552E5CFDAFFA7
:102C7000E550E5CFE0FFE5CFD8FF10009EB29E9271
:102C8000120002016A2B000E6B236B51800B02E0D5
:102C90008B8212008B9212004EEC0DF07E6A7F6ADE
:102CA0000F0EC16E93689468140E616E00017B6B09
:102CB00000017C6B00017D6BD6EC0DF0F29CF29E66
:102CC000120060EC14F075EC14F0060E00017B5D50
:102CD00005E16450020B02E1F1EC0FF01200DCDFC1
:042CE000F0DFFED74C
:0C2CE4001201000200000008D8043C00AF
:102CF00002000102030109022900010100C032099A
:102D00000400000203000000092111010001221D3E
:102D1000000705810340000107050103400001048D
:102D20000309040E0341005600520065007400635D
:102D30000012035000490043003100380073007056
:102D40000078000600FF0901A101190129401500C2
:102D500026FF00750895408100190129409100C0A7
:0E2D6000F62CF62C1F2D232D312D500222278C
:022D6E00D9CFBB
:102D7000E6FFDACFE6FFE1CFD9FFE2CFDAFFE65296
:102D8000FB0EDBCFF6FFFC0EDBCFF7FFFD0EDBCF3C
:102D9000F8FF0800F550DF6EDF5024E0F90EDBCFBE
:102DA000E6FFFA0EDBCFE6FFDFCFE6FFFBEC16F027
:102DB000E552E552E552F3CF48F0F4CF49F0000177
:102DC000F31C05E1491C03E1F368F4680DD0D95008
:102DD000FB0FE96EFF0EDA20EA6EEE2A000EEE22FD
:102DE000EE22CED7F36AF46AE552E552E5CFDAFF78
:062DF000E7CFD9FF12003D
:0A2DF600D9CFE6FFDACFE6FFE1CF08
:102E0000D9FFE2CFDAFFFB0EDBCF48F0FC0EDBCFC1
:102E100049F00001800E49141AE1FB0EDBCFE9FFF7
:102E2000FC0EDBCFEAFFEECFF3FFEDCFF4FFEE2A8F
:102E3000000EEF22F3CFE9FFF4CFEAFFFD0EDBCF68
:102E4000EFFFEF50496AF36E49C0F4FF10D0FB0E5C
:102E5000DB50FE0806E1FD0EDBCFE6FFD0EC17F0FD
:102E600005D0FD0EDBCFE6FF3DEC17F0E552E55255
:0A2E7000E5CFDAFFE7CFD9FF12002B
:062E7A00D9CFE6FFE1CF15
:102E8000D9FFE652DF6AFE0EDB500A0802E1010EAE
:102E9000DF6E100E0001705D02E3010EDF6EDF5089
:102EA00006E00001705103E061EC16F0FAD7100E55
:102EB000705D0AE27051702BEA6A600FE96E000ED5
:102EC000EA22FE0EDBCFEFFF010EF36EF46AE5524D
:082ED000E552E7CFD9FF120023
:082ED800D9CFE6FFDACFE6FFD7
:102EE000FA0EE3CFD9FFFB0EE3CFDAFFFC0EE3CF00
:102EF000E9FFFD0EE3CFEAFFE9CFF3FFEACFF4FFEE
:102F0000F80EE35003E1F90EE35008E0F80EE30693
:102F100002E2F90EE306DECFEEFFF2D7FF0EE3CFBB
:0E2F2000DAFFE552FF0EE3CFD9FFE5521200B3
:022F2E00D9CFF9
:102F3000E6FFDACFE6FFE1CFD9FFE2CFDAFFFD0E01
:102F4000DB50FB0BCA6ECC6A9E92FD0EDBAE02D04C
:102F50009D8201D09D92CA84E552E5CFDAFFE7CF8A
:042F6000D9FF120083
:0C2F6400000EF36E00EE00F0030E01D82A
:102F70001200EA6002D0EE6AFCD7F350E96012005A
:042F8000EE6AFCD722
:0C2F840010EE80F020EE80F0F86A519C06
:102F9000D7EC15F003EC04F06FEC16F0FBD7120041
:102FA000FF0EE350ACBA04D0AF6AAB8EAC8A949CEF
:0C2FB000ACA2FED7AD6EF36EF46A120006
:022FBC00000013
:022FBE000A0304
:082FC000300030003000310048
:022FC800FFFF09
:012FCA000501
:022FCB00000004
:020000040030CA
:0100000000FF
:0100010032CC
:0100020021DC
:010003001EDE
:0100050000FA
:010006008178
:0100080003F4
:01000900C036
:01000A0003F2
:01000B00E014
:01000C0003F0
:01000D0040B2
:00000001FF
